{"contracts/SubContract.sol":{"SubContract":{"abi":[{"anonymous":false,"inputs":[{"indexed":false,"internalType":"uint8","name":"version","type":"uint8"}],"name":"Initialized","type":"event"},{"anonymous":false,"inputs":[{"indexed":true,"internalType":"address","name":"interchainGasPaymaster","type":"address"}],"name":"InterchainGasPaymasterSet","type":"event"},{"anonymous":false,"inputs":[{"indexed":true,"internalType":"address","name":"module","type":"address"}],"name":"InterchainSecurityModuleSet","type":"event"},{"anonymous":false,"inputs":[{"indexed":true,"internalType":"address","name":"mailbox","type":"address"}],"name":"MailboxSet","type":"event"},{"anonymous":false,"inputs":[{"indexed":true,"internalType":"address","name":"previousOwner","type":"address"},{"indexed":true,"internalType":"address","name":"newOwner","type":"address"}],"name":"OwnershipTransferred","type":"event"},{"inputs":[],"name":"interchainGasPaymaster","outputs":[{"internalType":"contract IInterchainGasPaymaster","name":"","type":"address"}],"stateMutability":"view","type":"function"},{"inputs":[],"name":"interchainSecurityModule","outputs":[{"internalType":"contract IInterchainSecurityModule","name":"","type":"address"}],"stateMutability":"view","type":"function"},{"inputs":[],"name":"mailbox","outputs":[{"internalType":"contract IMailbox","name":"","type":"address"}],"stateMutability":"view","type":"function"},{"inputs":[],"name":"owner","outputs":[{"internalType":"address","name":"","type":"address"}],"stateMutability":"view","type":"function"},{"inputs":[{"internalType":"uint32","name":"_destination","type":"uint32"},{"internalType":"address","name":"_recipient","type":"address"},{"internalType":"address","name":"_NGOAddress","type":"address"}],"name":"relayNGOMappingToMainContract","outputs":[],"stateMutability":"nonpayable","type":"function"},{"inputs":[],"name":"renounceOwnership","outputs":[],"stateMutability":"nonpayable","type":"function"},{"inputs":[{"internalType":"address","name":"_interchainGasPaymaster","type":"address"}],"name":"setInterchainGasPaymaster","outputs":[],"stateMutability":"nonpayable","type":"function"},{"inputs":[{"internalType":"address","name":"_module","type":"address"}],"name":"setInterchainSecurityModule","outputs":[],"stateMutability":"nonpayable","type":"function"},{"inputs":[{"internalType":"address","name":"_mailbox","type":"address"}],"name":"setMailbox","outputs":[],"stateMutability":"nonpayable","type":"function"},{"inputs":[{"internalType":"address","name":"newOwner","type":"address"}],"name":"transferOwnership","outputs":[],"stateMutability":"nonpayable","type":"function"}],"evm":{"bytecode":{"linkReferences":{},"object":"608060405234801561001057600080fd5b50610dcd806100206000396000f3fe608060405234801561001057600080fd5b506004361061009e5760003560e01c8063de523cf311610066578063de523cf314610123578063f1bd6f0a14610141578063f2fde38b1461015d578063f3c61d6b14610179578063f9c65cb4146101955761009e565b80630e72cc06146100a357806339bb4ad9146100bf578063715018a6146100dd5780638da5cb5b146100e7578063d5438eae14610105575b600080fd5b6100bd60048036038101906100b89190610892565b6101b1565b005b6100c76101c5565b6040516100d4919061091e565b60405180910390f35b6100e56101eb565b005b6100ef6101ff565b6040516100fc9190610948565b60405180910390f35b61010d610229565b60405161011a9190610984565b60405180910390f35b61012b61024f565b60405161013891906109c0565b60405180910390f35b61015b60048036038101906101569190610892565b610275565b005b61017760048036038101906101729190610892565b610289565b005b610193600480360381019061018e9190610892565b61030c565b005b6101af60048036038101906101aa9190610a17565b610320565b005b6101b96103f5565b6101c281610473565b50565b606660009054906101000a900473ffffffffffffffffffffffffffffffffffffffff1681565b6101f36103f5565b6101fd6000610579565b565b6000603360009054906101000a900473ffffffffffffffffffffffffffffffffffffffff16905090565b606560009054906101000a900473ffffffffffffffffffffffffffffffffffffffff1681565b606760009054906101000a900473ffffffffffffffffffffffffffffffffffffffff1681565b61027d6103f5565b6102868161063f565b50565b6102916103f5565b600073ffffffffffffffffffffffffffffffffffffffff168173ffffffffffffffffffffffffffffffffffffffff1603610300576040517f08c379a00000000000000000000000000000000000000000000000000000000081526004016102f790610aed565b60405180910390fd5b61030981610579565b50565b6103146103f5565b61031d81610710565b50565b6000816040516020016103339190610b55565b6040516020818303038152906040529050606560009054906101000a900473ffffffffffffffffffffffffffffffffffffffff1673ffffffffffffffffffffffffffffffffffffffff1663fa31de018561038c866107e1565b846040518463ffffffff1660e01b81526004016103ab93929190610c28565b6020604051808303816000875af11580156103ca573d6000803e3d6000fd5b505050506040513d601f19601f820116820180604052508101906103ee9190610c92565b5050505050565b6103fd610804565b73ffffffffffffffffffffffffffffffffffffffff1661041b6101ff565b73ffffffffffffffffffffffffffffffffffffffff1614610471576040517f08c379a000000000000000000000000000000000000000000000000000000000815260040161046890610d0b565b60405180910390fd5b565b600073ffffffffffffffffffffffffffffffffffffffff168173ffffffffffffffffffffffffffffffffffffffff1614806104b357506104b28161080c565b5b6104f2576040517f08c379a00000000000000000000000000000000000000000000000000000000081526004016104e990610d77565b60405180910390fd5b80606760006101000a81548173ffffffffffffffffffffffffffffffffffffffff021916908373ffffffffffffffffffffffffffffffffffffffff1602179055508073ffffffffffffffffffffffffffffffffffffffff167ffec811ed4e60aebdaf7a79cad8a97196bf56e35362f039705598226d30c9d24860405160405180910390a250565b6000603360009054906101000a900473ffffffffffffffffffffffffffffffffffffffff16905081603360006101000a81548173ffffffffffffffffffffffffffffffffffffffff021916908373ffffffffffffffffffffffffffffffffffffffff1602179055508173ffffffffffffffffffffffffffffffffffffffff168173ffffffffffffffffffffffffffffffffffffffff167f8be0079c531659141344cd1fd0a4f28419497f9722a3daafe3b4186f6b6457e060405160405180910390a35050565b806106498161080c565b610688576040517f08c379a000000000000000000000000000000000000000000000000000000000815260040161067f90610d77565b60405180910390fd5b81606660006101000a81548173ffffffffffffffffffffffffffffffffffffffff021916908373ffffffffffffffffffffffffffffffffffffffff1602179055508173ffffffffffffffffffffffffffffffffffffffff167fb87f5a0bface22cde699143559fb99f990ae54eea236995fc54178af91af859f60405160405180910390a25050565b8061071a8161080c565b610759576040517f08c379a000000000000000000000000000000000000000000000000000000000815260040161075090610d77565b60405180910390fd5b81606560006101000a81548173ffffffffffffffffffffffffffffffffffffffff021916908373ffffffffffffffffffffffffffffffffffffffff1602179055508173ffffffffffffffffffffffffffffffffffffffff167f7a61e573722ff8b205c8962b59d37e7d30573f368965597a844a94872204ebd760405160405180910390a25050565b60008173ffffffffffffffffffffffffffffffffffffffff1660001b9050919050565b600033905090565b6000808273ffffffffffffffffffffffffffffffffffffffff163b119050919050565b600080fd5b600073ffffffffffffffffffffffffffffffffffffffff82169050919050565b600061085f82610834565b9050919050565b61086f81610854565b811461087a57600080fd5b50565b60008135905061088c81610866565b92915050565b6000602082840312156108a8576108a761082f565b5b60006108b68482850161087d565b91505092915050565b6000819050919050565b60006108e46108df6108da84610834565b6108bf565b610834565b9050919050565b60006108f6826108c9565b9050919050565b6000610908826108eb565b9050919050565b610918816108fd565b82525050565b6000602082019050610933600083018461090f565b92915050565b61094281610854565b82525050565b600060208201905061095d6000830184610939565b92915050565b600061096e826108eb565b9050919050565b61097e81610963565b82525050565b60006020820190506109996000830184610975565b92915050565b60006109aa826108eb565b9050919050565b6109ba8161099f565b82525050565b60006020820190506109d560008301846109b1565b92915050565b600063ffffffff82169050919050565b6109f4816109db565b81146109ff57600080fd5b50565b600081359050610a11816109eb565b92915050565b600080600060608486031215610a3057610a2f61082f565b5b6000610a3e86828701610a02565b9350506020610a4f8682870161087d565b9250506040610a608682870161087d565b9150509250925092565b600082825260208201905092915050565b7f4f776e61626c653a206e6577206f776e657220697320746865207a65726f206160008201527f6464726573730000000000000000000000000000000000000000000000000000602082015250565b6000610ad7602683610a6a565b9150610ae282610a7b565b604082019050919050565b60006020820190508181036000830152610b0681610aca565b9050919050565b60008160601b9050919050565b6000610b2582610b0d565b9050919050565b6000610b3782610b1a565b9050919050565b610b4f610b4a82610854565b610b2c565b82525050565b6000610b618284610b3e565b60148201915081905092915050565b610b79816109db565b82525050565b6000819050919050565b610b9281610b7f565b82525050565b600081519050919050565b600082825260208201905092915050565b60005b83811015610bd2578082015181840152602081019050610bb7565b60008484015250505050565b6000601f19601f8301169050919050565b6000610bfa82610b98565b610c048185610ba3565b9350610c14818560208601610bb4565b610c1d81610bde565b840191505092915050565b6000606082019050610c3d6000830186610b70565b610c4a6020830185610b89565b8181036040830152610c5c8184610bef565b9050949350505050565b610c6f81610b7f565b8114610c7a57600080fd5b50565b600081519050610c8c81610c66565b92915050565b600060208284031215610ca857610ca761082f565b5b6000610cb684828501610c7d565b91505092915050565b7f4f776e61626c653a2063616c6c6572206973206e6f7420746865206f776e6572600082015250565b6000610cf5602083610a6a565b9150610d0082610cbf565b602082019050919050565b60006020820190508181036000830152610d2481610ce8565b9050919050565b7f21636f6e74726163740000000000000000000000000000000000000000000000600082015250565b6000610d61600983610a6a565b9150610d6c82610d2b565b602082019050919050565b60006020820190508181036000830152610d9081610d54565b905091905056fea264697066735822122001e4b12a4c387d32638e33bb08592524407a9b26b6ca578a2f34dd38f4cbbd2864736f6c63430008120033","opcodes":"PUSH1 0x80 PUSH1 0x40 MSTORE CALLVALUE DUP1 ISZERO PUSH2 0x10 JUMPI PUSH1 0x0 DUP1 REVERT JUMPDEST POP PUSH2 0xDCD DUP1 PUSH2 0x20 PUSH1 0x0 CODECOPY PUSH1 0x0 RETURN INVALID PUSH1 0x80 PUSH1 0x40 MSTORE CALLVALUE DUP1 ISZERO PUSH2 0x10 JUMPI PUSH1 0x0 DUP1 REVERT JUMPDEST POP PUSH1 0x4 CALLDATASIZE LT PUSH2 0x9E JUMPI PUSH1 0x0 CALLDATALOAD PUSH1 0xE0 SHR DUP1 PUSH4 0xDE523CF3 GT PUSH2 0x66 JUMPI DUP1 PUSH4 0xDE523CF3 EQ PUSH2 0x123 JUMPI DUP1 PUSH4 0xF1BD6F0A EQ PUSH2 0x141 JUMPI DUP1 PUSH4 0xF2FDE38B EQ PUSH2 0x15D JUMPI DUP1 PUSH4 0xF3C61D6B EQ PUSH2 0x179 JUMPI DUP1 PUSH4 0xF9C65CB4 EQ PUSH2 0x195 JUMPI PUSH2 0x9E JUMP JUMPDEST DUP1 PUSH4 0xE72CC06 EQ PUSH2 0xA3 JUMPI DUP1 PUSH4 0x39BB4AD9 EQ PUSH2 0xBF JUMPI DUP1 PUSH4 0x715018A6 EQ PUSH2 0xDD JUMPI DUP1 PUSH4 0x8DA5CB5B EQ PUSH2 0xE7 JUMPI DUP1 PUSH4 0xD5438EAE EQ PUSH2 0x105 JUMPI JUMPDEST PUSH1 0x0 DUP1 REVERT JUMPDEST PUSH2 0xBD PUSH1 0x4 DUP1 CALLDATASIZE SUB DUP2 ADD SWAP1 PUSH2 0xB8 SWAP2 SWAP1 PUSH2 0x892 JUMP JUMPDEST PUSH2 0x1B1 JUMP JUMPDEST STOP JUMPDEST PUSH2 0xC7 PUSH2 0x1C5 JUMP JUMPDEST PUSH1 0x40 MLOAD PUSH2 0xD4 SWAP2 SWAP1 PUSH2 0x91E JUMP JUMPDEST PUSH1 0x40 MLOAD DUP1 SWAP2 SUB SWAP1 RETURN JUMPDEST PUSH2 0xE5 PUSH2 0x1EB JUMP JUMPDEST STOP JUMPDEST PUSH2 0xEF PUSH2 0x1FF JUMP JUMPDEST PUSH1 0x40 MLOAD PUSH2 0xFC SWAP2 SWAP1 PUSH2 0x948 JUMP JUMPDEST PUSH1 0x40 MLOAD DUP1 SWAP2 SUB SWAP1 RETURN JUMPDEST PUSH2 0x10D PUSH2 0x229 JUMP JUMPDEST PUSH1 0x40 MLOAD PUSH2 0x11A SWAP2 SWAP1 PUSH2 0x984 JUMP JUMPDEST PUSH1 0x40 MLOAD DUP1 SWAP2 SUB SWAP1 RETURN JUMPDEST PUSH2 0x12B PUSH2 0x24F JUMP JUMPDEST PUSH1 0x40 MLOAD PUSH2 0x138 SWAP2 SWAP1 PUSH2 0x9C0 JUMP JUMPDEST PUSH1 0x40 MLOAD DUP1 SWAP2 SUB SWAP1 RETURN JUMPDEST PUSH2 0x15B PUSH1 0x4 DUP1 CALLDATASIZE SUB DUP2 ADD SWAP1 PUSH2 0x156 SWAP2 SWAP1 PUSH2 0x892 JUMP JUMPDEST PUSH2 0x275 JUMP JUMPDEST STOP JUMPDEST PUSH2 0x177 PUSH1 0x4 DUP1 CALLDATASIZE SUB DUP2 ADD SWAP1 PUSH2 0x172 SWAP2 SWAP1 PUSH2 0x892 JUMP JUMPDEST PUSH2 0x289 JUMP JUMPDEST STOP JUMPDEST PUSH2 0x193 PUSH1 0x4 DUP1 CALLDATASIZE SUB DUP2 ADD SWAP1 PUSH2 0x18E SWAP2 SWAP1 PUSH2 0x892 JUMP JUMPDEST PUSH2 0x30C JUMP JUMPDEST STOP JUMPDEST PUSH2 0x1AF PUSH1 0x4 DUP1 CALLDATASIZE SUB DUP2 ADD SWAP1 PUSH2 0x1AA SWAP2 SWAP1 PUSH2 0xA17 JUMP JUMPDEST PUSH2 0x320 JUMP JUMPDEST STOP JUMPDEST PUSH2 0x1B9 PUSH2 0x3F5 JUMP JUMPDEST PUSH2 0x1C2 DUP2 PUSH2 0x473 JUMP JUMPDEST POP JUMP JUMPDEST PUSH1 0x66 PUSH1 0x0 SWAP1 SLOAD SWAP1 PUSH2 0x100 EXP SWAP1 DIV PUSH20 0xFFFFFFFFFFFFFFFFFFFFFFFFFFFFFFFFFFFFFFFF AND DUP2 JUMP JUMPDEST PUSH2 0x1F3 PUSH2 0x3F5 JUMP JUMPDEST PUSH2 0x1FD PUSH1 0x0 PUSH2 0x579 JUMP JUMPDEST JUMP JUMPDEST PUSH1 0x0 PUSH1 0x33 PUSH1 0x0 SWAP1 SLOAD SWAP1 PUSH2 0x100 EXP SWAP1 DIV PUSH20 0xFFFFFFFFFFFFFFFFFFFFFFFFFFFFFFFFFFFFFFFF AND SWAP1 POP SWAP1 JUMP JUMPDEST PUSH1 0x65 PUSH1 0x0 SWAP1 SLOAD SWAP1 PUSH2 0x100 EXP SWAP1 DIV PUSH20 0xFFFFFFFFFFFFFFFFFFFFFFFFFFFFFFFFFFFFFFFF AND DUP2 JUMP JUMPDEST PUSH1 0x67 PUSH1 0x0 SWAP1 SLOAD SWAP1 PUSH2 0x100 EXP SWAP1 DIV PUSH20 0xFFFFFFFFFFFFFFFFFFFFFFFFFFFFFFFFFFFFFFFF AND DUP2 JUMP JUMPDEST PUSH2 0x27D PUSH2 0x3F5 JUMP JUMPDEST PUSH2 0x286 DUP2 PUSH2 0x63F JUMP JUMPDEST POP JUMP JUMPDEST PUSH2 0x291 PUSH2 0x3F5 JUMP JUMPDEST PUSH1 0x0 PUSH20 0xFFFFFFFFFFFFFFFFFFFFFFFFFFFFFFFFFFFFFFFF AND DUP2 PUSH20 0xFFFFFFFFFFFFFFFFFFFFFFFFFFFFFFFFFFFFFFFF AND SUB PUSH2 0x300 JUMPI PUSH1 0x40 MLOAD PUSH32 0x8C379A000000000000000000000000000000000000000000000000000000000 DUP2 MSTORE PUSH1 0x4 ADD PUSH2 0x2F7 SWAP1 PUSH2 0xAED JUMP JUMPDEST PUSH1 0x40 MLOAD DUP1 SWAP2 SUB SWAP1 REVERT JUMPDEST PUSH2 0x309 DUP2 PUSH2 0x579 JUMP JUMPDEST POP JUMP JUMPDEST PUSH2 0x314 PUSH2 0x3F5 JUMP JUMPDEST PUSH2 0x31D DUP2 PUSH2 0x710 JUMP JUMPDEST POP JUMP JUMPDEST PUSH1 0x0 DUP2 PUSH1 0x40 MLOAD PUSH1 0x20 ADD PUSH2 0x333 SWAP2 SWAP1 PUSH2 0xB55 JUMP JUMPDEST PUSH1 0x40 MLOAD PUSH1 0x20 DUP2 DUP4 SUB SUB DUP2 MSTORE SWAP1 PUSH1 0x40 MSTORE SWAP1 POP PUSH1 0x65 PUSH1 0x0 SWAP1 SLOAD SWAP1 PUSH2 0x100 EXP SWAP1 DIV PUSH20 0xFFFFFFFFFFFFFFFFFFFFFFFFFFFFFFFFFFFFFFFF AND PUSH20 0xFFFFFFFFFFFFFFFFFFFFFFFFFFFFFFFFFFFFFFFF AND PUSH4 0xFA31DE01 DUP6 PUSH2 0x38C DUP7 PUSH2 0x7E1 JUMP JUMPDEST DUP5 PUSH1 0x40 MLOAD DUP5 PUSH4 0xFFFFFFFF AND PUSH1 0xE0 SHL DUP2 MSTORE PUSH1 0x4 ADD PUSH2 0x3AB SWAP4 SWAP3 SWAP2 SWAP1 PUSH2 0xC28 JUMP JUMPDEST PUSH1 0x20 PUSH1 0x40 MLOAD DUP1 DUP4 SUB DUP2 PUSH1 0x0 DUP8 GAS CALL ISZERO DUP1 ISZERO PUSH2 0x3CA JUMPI RETURNDATASIZE PUSH1 0x0 DUP1 RETURNDATACOPY RETURNDATASIZE PUSH1 0x0 REVERT JUMPDEST POP POP POP POP PUSH1 0x40 MLOAD RETURNDATASIZE PUSH1 0x1F NOT PUSH1 0x1F DUP3 ADD AND DUP3 ADD DUP1 PUSH1 0x40 MSTORE POP DUP2 ADD SWAP1 PUSH2 0x3EE SWAP2 SWAP1 PUSH2 0xC92 JUMP JUMPDEST POP POP POP POP POP JUMP JUMPDEST PUSH2 0x3FD PUSH2 0x804 JUMP JUMPDEST PUSH20 0xFFFFFFFFFFFFFFFFFFFFFFFFFFFFFFFFFFFFFFFF AND PUSH2 0x41B PUSH2 0x1FF JUMP JUMPDEST PUSH20 0xFFFFFFFFFFFFFFFFFFFFFFFFFFFFFFFFFFFFFFFF AND EQ PUSH2 0x471 JUMPI PUSH1 0x40 MLOAD PUSH32 0x8C379A000000000000000000000000000000000000000000000000000000000 DUP2 MSTORE PUSH1 0x4 ADD PUSH2 0x468 SWAP1 PUSH2 0xD0B JUMP JUMPDEST PUSH1 0x40 MLOAD DUP1 SWAP2 SUB SWAP1 REVERT JUMPDEST JUMP JUMPDEST PUSH1 0x0 PUSH20 0xFFFFFFFFFFFFFFFFFFFFFFFFFFFFFFFFFFFFFFFF AND DUP2 PUSH20 0xFFFFFFFFFFFFFFFFFFFFFFFFFFFFFFFFFFFFFFFF AND EQ DUP1 PUSH2 0x4B3 JUMPI POP PUSH2 0x4B2 DUP2 PUSH2 0x80C JUMP JUMPDEST JUMPDEST PUSH2 0x4F2 JUMPI PUSH1 0x40 MLOAD PUSH32 0x8C379A000000000000000000000000000000000000000000000000000000000 DUP2 MSTORE PUSH1 0x4 ADD PUSH2 0x4E9 SWAP1 PUSH2 0xD77 JUMP JUMPDEST PUSH1 0x40 MLOAD DUP1 SWAP2 SUB SWAP1 REVERT JUMPDEST DUP1 PUSH1 0x67 PUSH1 0x0 PUSH2 0x100 EXP DUP2 SLOAD DUP2 PUSH20 0xFFFFFFFFFFFFFFFFFFFFFFFFFFFFFFFFFFFFFFFF MUL NOT AND SWAP1 DUP4 PUSH20 0xFFFFFFFFFFFFFFFFFFFFFFFFFFFFFFFFFFFFFFFF AND MUL OR SWAP1 SSTORE POP DUP1 PUSH20 0xFFFFFFFFFFFFFFFFFFFFFFFFFFFFFFFFFFFFFFFF AND PUSH32 0xFEC811ED4E60AEBDAF7A79CAD8A97196BF56E35362F039705598226D30C9D248 PUSH1 0x40 MLOAD PUSH1 0x40 MLOAD DUP1 SWAP2 SUB SWAP1 LOG2 POP JUMP JUMPDEST PUSH1 0x0 PUSH1 0x33 PUSH1 0x0 SWAP1 SLOAD SWAP1 PUSH2 0x100 EXP SWAP1 DIV PUSH20 0xFFFFFFFFFFFFFFFFFFFFFFFFFFFFFFFFFFFFFFFF AND SWAP1 POP DUP2 PUSH1 0x33 PUSH1 0x0 PUSH2 0x100 EXP DUP2 SLOAD DUP2 PUSH20 0xFFFFFFFFFFFFFFFFFFFFFFFFFFFFFFFFFFFFFFFF MUL NOT AND SWAP1 DUP4 PUSH20 0xFFFFFFFFFFFFFFFFFFFFFFFFFFFFFFFFFFFFFFFF AND MUL OR SWAP1 SSTORE POP DUP2 PUSH20 0xFFFFFFFFFFFFFFFFFFFFFFFFFFFFFFFFFFFFFFFF AND DUP2 PUSH20 0xFFFFFFFFFFFFFFFFFFFFFFFFFFFFFFFFFFFFFFFF AND PUSH32 0x8BE0079C531659141344CD1FD0A4F28419497F9722A3DAAFE3B4186F6B6457E0 PUSH1 0x40 MLOAD PUSH1 0x40 MLOAD DUP1 SWAP2 SUB SWAP1 LOG3 POP POP JUMP JUMPDEST DUP1 PUSH2 0x649 DUP2 PUSH2 0x80C JUMP JUMPDEST PUSH2 0x688 JUMPI PUSH1 0x40 MLOAD PUSH32 0x8C379A000000000000000000000000000000000000000000000000000000000 DUP2 MSTORE PUSH1 0x4 ADD PUSH2 0x67F SWAP1 PUSH2 0xD77 JUMP JUMPDEST PUSH1 0x40 MLOAD DUP1 SWAP2 SUB SWAP1 REVERT JUMPDEST DUP2 PUSH1 0x66 PUSH1 0x0 PUSH2 0x100 EXP DUP2 SLOAD DUP2 PUSH20 0xFFFFFFFFFFFFFFFFFFFFFFFFFFFFFFFFFFFFFFFF MUL NOT AND SWAP1 DUP4 PUSH20 0xFFFFFFFFFFFFFFFFFFFFFFFFFFFFFFFFFFFFFFFF AND MUL OR SWAP1 SSTORE POP DUP2 PUSH20 0xFFFFFFFFFFFFFFFFFFFFFFFFFFFFFFFFFFFFFFFF AND PUSH32 0xB87F5A0BFACE22CDE699143559FB99F990AE54EEA236995FC54178AF91AF859F PUSH1 0x40 MLOAD PUSH1 0x40 MLOAD DUP1 SWAP2 SUB SWAP1 LOG2 POP POP JUMP JUMPDEST DUP1 PUSH2 0x71A DUP2 PUSH2 0x80C JUMP JUMPDEST PUSH2 0x759 JUMPI PUSH1 0x40 MLOAD PUSH32 0x8C379A000000000000000000000000000000000000000000000000000000000 DUP2 MSTORE PUSH1 0x4 ADD PUSH2 0x750 SWAP1 PUSH2 0xD77 JUMP JUMPDEST PUSH1 0x40 MLOAD DUP1 SWAP2 SUB SWAP1 REVERT JUMPDEST DUP2 PUSH1 0x65 PUSH1 0x0 PUSH2 0x100 EXP DUP2 SLOAD DUP2 PUSH20 0xFFFFFFFFFFFFFFFFFFFFFFFFFFFFFFFFFFFFFFFF MUL NOT AND SWAP1 DUP4 PUSH20 0xFFFFFFFFFFFFFFFFFFFFFFFFFFFFFFFFFFFFFFFF AND MUL OR SWAP1 SSTORE POP DUP2 PUSH20 0xFFFFFFFFFFFFFFFFFFFFFFFFFFFFFFFFFFFFFFFF AND PUSH32 0x7A61E573722FF8B205C8962B59D37E7D30573F368965597A844A94872204EBD7 PUSH1 0x40 MLOAD PUSH1 0x40 MLOAD DUP1 SWAP2 SUB SWAP1 LOG2 POP POP JUMP JUMPDEST PUSH1 0x0 DUP2 PUSH20 0xFFFFFFFFFFFFFFFFFFFFFFFFFFFFFFFFFFFFFFFF AND PUSH1 0x0 SHL SWAP1 POP SWAP2 SWAP1 POP JUMP JUMPDEST PUSH1 0x0 CALLER SWAP1 POP SWAP1 JUMP JUMPDEST PUSH1 0x0 DUP1 DUP3 PUSH20 0xFFFFFFFFFFFFFFFFFFFFFFFFFFFFFFFFFFFFFFFF AND EXTCODESIZE GT SWAP1 POP SWAP2 SWAP1 POP JUMP JUMPDEST PUSH1 0x0 DUP1 REVERT JUMPDEST PUSH1 0x0 PUSH20 0xFFFFFFFFFFFFFFFFFFFFFFFFFFFFFFFFFFFFFFFF DUP3 AND SWAP1 POP SWAP2 SWAP1 POP JUMP JUMPDEST PUSH1 0x0 PUSH2 0x85F DUP3 PUSH2 0x834 JUMP JUMPDEST SWAP1 POP SWAP2 SWAP1 POP JUMP JUMPDEST PUSH2 0x86F DUP2 PUSH2 0x854 JUMP JUMPDEST DUP2 EQ PUSH2 0x87A JUMPI PUSH1 0x0 DUP1 REVERT JUMPDEST POP JUMP JUMPDEST PUSH1 0x0 DUP2 CALLDATALOAD SWAP1 POP PUSH2 0x88C DUP2 PUSH2 0x866 JUMP JUMPDEST SWAP3 SWAP2 POP POP JUMP JUMPDEST PUSH1 0x0 PUSH1 0x20 DUP3 DUP5 SUB SLT ISZERO PUSH2 0x8A8 JUMPI PUSH2 0x8A7 PUSH2 0x82F JUMP JUMPDEST JUMPDEST PUSH1 0x0 PUSH2 0x8B6 DUP5 DUP3 DUP6 ADD PUSH2 0x87D JUMP JUMPDEST SWAP2 POP POP SWAP3 SWAP2 POP POP JUMP JUMPDEST PUSH1 0x0 DUP2 SWAP1 POP SWAP2 SWAP1 POP JUMP JUMPDEST PUSH1 0x0 PUSH2 0x8E4 PUSH2 0x8DF PUSH2 0x8DA DUP5 PUSH2 0x834 JUMP JUMPDEST PUSH2 0x8BF JUMP JUMPDEST PUSH2 0x834 JUMP JUMPDEST SWAP1 POP SWAP2 SWAP1 POP JUMP JUMPDEST PUSH1 0x0 PUSH2 0x8F6 DUP3 PUSH2 0x8C9 JUMP JUMPDEST SWAP1 POP SWAP2 SWAP1 POP JUMP JUMPDEST PUSH1 0x0 PUSH2 0x908 DUP3 PUSH2 0x8EB JUMP JUMPDEST SWAP1 POP SWAP2 SWAP1 POP JUMP JUMPDEST PUSH2 0x918 DUP2 PUSH2 0x8FD JUMP JUMPDEST DUP3 MSTORE POP POP JUMP JUMPDEST PUSH1 0x0 PUSH1 0x20 DUP3 ADD SWAP1 POP PUSH2 0x933 PUSH1 0x0 DUP4 ADD DUP5 PUSH2 0x90F JUMP JUMPDEST SWAP3 SWAP2 POP POP JUMP JUMPDEST PUSH2 0x942 DUP2 PUSH2 0x854 JUMP JUMPDEST DUP3 MSTORE POP POP JUMP JUMPDEST PUSH1 0x0 PUSH1 0x20 DUP3 ADD SWAP1 POP PUSH2 0x95D PUSH1 0x0 DUP4 ADD DUP5 PUSH2 0x939 JUMP JUMPDEST SWAP3 SWAP2 POP POP JUMP JUMPDEST PUSH1 0x0 PUSH2 0x96E DUP3 PUSH2 0x8EB JUMP JUMPDEST SWAP1 POP SWAP2 SWAP1 POP JUMP JUMPDEST PUSH2 0x97E DUP2 PUSH2 0x963 JUMP JUMPDEST DUP3 MSTORE POP POP JUMP JUMPDEST PUSH1 0x0 PUSH1 0x20 DUP3 ADD SWAP1 POP PUSH2 0x999 PUSH1 0x0 DUP4 ADD DUP5 PUSH2 0x975 JUMP JUMPDEST SWAP3 SWAP2 POP POP JUMP JUMPDEST PUSH1 0x0 PUSH2 0x9AA DUP3 PUSH2 0x8EB JUMP JUMPDEST SWAP1 POP SWAP2 SWAP1 POP JUMP JUMPDEST PUSH2 0x9BA DUP2 PUSH2 0x99F JUMP JUMPDEST DUP3 MSTORE POP POP JUMP JUMPDEST PUSH1 0x0 PUSH1 0x20 DUP3 ADD SWAP1 POP PUSH2 0x9D5 PUSH1 0x0 DUP4 ADD DUP5 PUSH2 0x9B1 JUMP JUMPDEST SWAP3 SWAP2 POP POP JUMP JUMPDEST PUSH1 0x0 PUSH4 0xFFFFFFFF DUP3 AND SWAP1 POP SWAP2 SWAP1 POP JUMP JUMPDEST PUSH2 0x9F4 DUP2 PUSH2 0x9DB JUMP JUMPDEST DUP2 EQ PUSH2 0x9FF JUMPI PUSH1 0x0 DUP1 REVERT JUMPDEST POP JUMP JUMPDEST PUSH1 0x0 DUP2 CALLDATALOAD SWAP1 POP PUSH2 0xA11 DUP2 PUSH2 0x9EB JUMP JUMPDEST SWAP3 SWAP2 POP POP JUMP JUMPDEST PUSH1 0x0 DUP1 PUSH1 0x0 PUSH1 0x60 DUP5 DUP7 SUB SLT ISZERO PUSH2 0xA30 JUMPI PUSH2 0xA2F PUSH2 0x82F JUMP JUMPDEST JUMPDEST PUSH1 0x0 PUSH2 0xA3E DUP7 DUP3 DUP8 ADD PUSH2 0xA02 JUMP JUMPDEST SWAP4 POP POP PUSH1 0x20 PUSH2 0xA4F DUP7 DUP3 DUP8 ADD PUSH2 0x87D JUMP JUMPDEST SWAP3 POP POP PUSH1 0x40 PUSH2 0xA60 DUP7 DUP3 DUP8 ADD PUSH2 0x87D JUMP JUMPDEST SWAP2 POP POP SWAP3 POP SWAP3 POP SWAP3 JUMP JUMPDEST PUSH1 0x0 DUP3 DUP3 MSTORE PUSH1 0x20 DUP3 ADD SWAP1 POP SWAP3 SWAP2 POP POP JUMP JUMPDEST PUSH32 0x4F776E61626C653A206E6577206F776E657220697320746865207A65726F2061 PUSH1 0x0 DUP3 ADD MSTORE PUSH32 0x6464726573730000000000000000000000000000000000000000000000000000 PUSH1 0x20 DUP3 ADD MSTORE POP JUMP JUMPDEST PUSH1 0x0 PUSH2 0xAD7 PUSH1 0x26 DUP4 PUSH2 0xA6A JUMP JUMPDEST SWAP2 POP PUSH2 0xAE2 DUP3 PUSH2 0xA7B JUMP JUMPDEST PUSH1 0x40 DUP3 ADD SWAP1 POP SWAP2 SWAP1 POP JUMP JUMPDEST PUSH1 0x0 PUSH1 0x20 DUP3 ADD SWAP1 POP DUP2 DUP2 SUB PUSH1 0x0 DUP4 ADD MSTORE PUSH2 0xB06 DUP2 PUSH2 0xACA JUMP JUMPDEST SWAP1 POP SWAP2 SWAP1 POP JUMP JUMPDEST PUSH1 0x0 DUP2 PUSH1 0x60 SHL SWAP1 POP SWAP2 SWAP1 POP JUMP JUMPDEST PUSH1 0x0 PUSH2 0xB25 DUP3 PUSH2 0xB0D JUMP JUMPDEST SWAP1 POP SWAP2 SWAP1 POP JUMP JUMPDEST PUSH1 0x0 PUSH2 0xB37 DUP3 PUSH2 0xB1A JUMP JUMPDEST SWAP1 POP SWAP2 SWAP1 POP JUMP JUMPDEST PUSH2 0xB4F PUSH2 0xB4A DUP3 PUSH2 0x854 JUMP JUMPDEST PUSH2 0xB2C JUMP JUMPDEST DUP3 MSTORE POP POP JUMP JUMPDEST PUSH1 0x0 PUSH2 0xB61 DUP3 DUP5 PUSH2 0xB3E JUMP JUMPDEST PUSH1 0x14 DUP3 ADD SWAP2 POP DUP2 SWAP1 POP SWAP3 SWAP2 POP POP JUMP JUMPDEST PUSH2 0xB79 DUP2 PUSH2 0x9DB JUMP JUMPDEST DUP3 MSTORE POP POP JUMP JUMPDEST PUSH1 0x0 DUP2 SWAP1 POP SWAP2 SWAP1 POP JUMP JUMPDEST PUSH2 0xB92 DUP2 PUSH2 0xB7F JUMP JUMPDEST DUP3 MSTORE POP POP JUMP JUMPDEST PUSH1 0x0 DUP2 MLOAD SWAP1 POP SWAP2 SWAP1 POP JUMP JUMPDEST PUSH1 0x0 DUP3 DUP3 MSTORE PUSH1 0x20 DUP3 ADD SWAP1 POP SWAP3 SWAP2 POP POP JUMP JUMPDEST PUSH1 0x0 JUMPDEST DUP4 DUP2 LT ISZERO PUSH2 0xBD2 JUMPI DUP1 DUP3 ADD MLOAD DUP2 DUP5 ADD MSTORE PUSH1 0x20 DUP2 ADD SWAP1 POP PUSH2 0xBB7 JUMP JUMPDEST PUSH1 0x0 DUP5 DUP5 ADD MSTORE POP POP POP POP JUMP JUMPDEST PUSH1 0x0 PUSH1 0x1F NOT PUSH1 0x1F DUP4 ADD AND SWAP1 POP SWAP2 SWAP1 POP JUMP JUMPDEST PUSH1 0x0 PUSH2 0xBFA DUP3 PUSH2 0xB98 JUMP JUMPDEST PUSH2 0xC04 DUP2 DUP6 PUSH2 0xBA3 JUMP JUMPDEST SWAP4 POP PUSH2 0xC14 DUP2 DUP6 PUSH1 0x20 DUP7 ADD PUSH2 0xBB4 JUMP JUMPDEST PUSH2 0xC1D DUP2 PUSH2 0xBDE JUMP JUMPDEST DUP5 ADD SWAP2 POP POP SWAP3 SWAP2 POP POP JUMP JUMPDEST PUSH1 0x0 PUSH1 0x60 DUP3 ADD SWAP1 POP PUSH2 0xC3D PUSH1 0x0 DUP4 ADD DUP7 PUSH2 0xB70 JUMP JUMPDEST PUSH2 0xC4A PUSH1 0x20 DUP4 ADD DUP6 PUSH2 0xB89 JUMP JUMPDEST DUP2 DUP2 SUB PUSH1 0x40 DUP4 ADD MSTORE PUSH2 0xC5C DUP2 DUP5 PUSH2 0xBEF JUMP JUMPDEST SWAP1 POP SWAP5 SWAP4 POP POP POP POP JUMP JUMPDEST PUSH2 0xC6F DUP2 PUSH2 0xB7F JUMP JUMPDEST DUP2 EQ PUSH2 0xC7A JUMPI PUSH1 0x0 DUP1 REVERT JUMPDEST POP JUMP JUMPDEST PUSH1 0x0 DUP2 MLOAD SWAP1 POP PUSH2 0xC8C DUP2 PUSH2 0xC66 JUMP JUMPDEST SWAP3 SWAP2 POP POP JUMP JUMPDEST PUSH1 0x0 PUSH1 0x20 DUP3 DUP5 SUB SLT ISZERO PUSH2 0xCA8 JUMPI PUSH2 0xCA7 PUSH2 0x82F JUMP JUMPDEST JUMPDEST PUSH1 0x0 PUSH2 0xCB6 DUP5 DUP3 DUP6 ADD PUSH2 0xC7D JUMP JUMPDEST SWAP2 POP POP SWAP3 SWAP2 POP POP JUMP JUMPDEST PUSH32 0x4F776E61626C653A2063616C6C6572206973206E6F7420746865206F776E6572 PUSH1 0x0 DUP3 ADD MSTORE POP JUMP JUMPDEST PUSH1 0x0 PUSH2 0xCF5 PUSH1 0x20 DUP4 PUSH2 0xA6A JUMP JUMPDEST SWAP2 POP PUSH2 0xD00 DUP3 PUSH2 0xCBF JUMP JUMPDEST PUSH1 0x20 DUP3 ADD SWAP1 POP SWAP2 SWAP1 POP JUMP JUMPDEST PUSH1 0x0 PUSH1 0x20 DUP3 ADD SWAP1 POP DUP2 DUP2 SUB PUSH1 0x0 DUP4 ADD MSTORE PUSH2 0xD24 DUP2 PUSH2 0xCE8 JUMP JUMPDEST SWAP1 POP SWAP2 SWAP1 POP JUMP JUMPDEST PUSH32 0x21636F6E74726163740000000000000000000000000000000000000000000000 PUSH1 0x0 DUP3 ADD MSTORE POP JUMP JUMPDEST PUSH1 0x0 PUSH2 0xD61 PUSH1 0x9 DUP4 PUSH2 0xA6A JUMP JUMPDEST SWAP2 POP PUSH2 0xD6C DUP3 PUSH2 0xD2B JUMP JUMPDEST PUSH1 0x20 DUP3 ADD SWAP1 POP SWAP2 SWAP1 POP JUMP JUMPDEST PUSH1 0x0 PUSH1 0x20 DUP3 ADD SWAP1 POP DUP2 DUP2 SUB PUSH1 0x0 DUP4 ADD MSTORE PUSH2 0xD90 DUP2 PUSH2 0xD54 JUMP JUMPDEST SWAP1 POP SWAP2 SWAP1 POP JUMP INVALID LOG2 PUSH5 0x6970667358 0x22 SLT KECCAK256 ADD 0xE4 0xB1 0x2A 0x4C CODESIZE PUSH30 0x32638E33BB08592524407A9B26B6CA578A2F34DD38F4CBBD2864736F6C63 NUMBER STOP ADDMOD SLT STOP CALLER "},"methodIdentifiers":{"interchainGasPaymaster()":"39bb4ad9","interchainSecurityModule()":"de523cf3","mailbox()":"d5438eae","owner()":"8da5cb5b","relayNGOMappingToMainContract(uint32,address,address)":"f9c65cb4","renounceOwnership()":"715018a6","setInterchainGasPaymaster(address)":"f1bd6f0a","setInterchainSecurityModule(address)":"0e72cc06","setMailbox(address)":"f3c61d6b","transferOwnership(address)":"f2fde38b"}}}}}