{"contracts/SubContract.sol":{"SubContract":{"abi":[{"anonymous":false,"inputs":[{"indexed":false,"internalType":"uint8","name":"version","type":"uint8"}],"name":"Initialized","type":"event"},{"anonymous":false,"inputs":[{"indexed":true,"internalType":"address","name":"interchainGasPaymaster","type":"address"}],"name":"InterchainGasPaymasterSet","type":"event"},{"anonymous":false,"inputs":[{"indexed":true,"internalType":"address","name":"module","type":"address"}],"name":"InterchainSecurityModuleSet","type":"event"},{"anonymous":false,"inputs":[{"indexed":true,"internalType":"address","name":"mailbox","type":"address"}],"name":"MailboxSet","type":"event"},{"anonymous":false,"inputs":[{"indexed":true,"internalType":"address","name":"previousOwner","type":"address"},{"indexed":true,"internalType":"address","name":"newOwner","type":"address"}],"name":"OwnershipTransferred","type":"event"},{"inputs":[],"name":"interchainGasPaymaster","outputs":[{"internalType":"contract IInterchainGasPaymaster","name":"","type":"address"}],"stateMutability":"view","type":"function"},{"inputs":[],"name":"interchainSecurityModule","outputs":[{"internalType":"contract IInterchainSecurityModule","name":"","type":"address"}],"stateMutability":"view","type":"function"},{"inputs":[{"internalType":"address","name":"","type":"address"}],"name":"listOfNGOs","outputs":[{"internalType":"string","name":"name","type":"string"}],"stateMutability":"view","type":"function"},{"inputs":[],"name":"mailbox","outputs":[{"internalType":"contract IMailbox","name":"","type":"address"}],"stateMutability":"view","type":"function"},{"inputs":[],"name":"owner","outputs":[{"internalType":"address","name":"","type":"address"}],"stateMutability":"view","type":"function"},{"inputs":[{"internalType":"uint32","name":"_destination","type":"uint32"},{"internalType":"address","name":"_recipient","type":"address"},{"internalType":"address","name":"_NGOAddress","type":"address"}],"name":"relayNGOMappingToMainContract","outputs":[],"stateMutability":"nonpayable","type":"function"},{"inputs":[],"name":"renounceOwnership","outputs":[],"stateMutability":"nonpayable","type":"function"},{"inputs":[{"internalType":"address","name":"_interchainGasPaymaster","type":"address"}],"name":"setInterchainGasPaymaster","outputs":[],"stateMutability":"nonpayable","type":"function"},{"inputs":[{"internalType":"address","name":"_module","type":"address"}],"name":"setInterchainSecurityModule","outputs":[],"stateMutability":"nonpayable","type":"function"},{"inputs":[{"internalType":"address","name":"_mailbox","type":"address"}],"name":"setMailbox","outputs":[],"stateMutability":"nonpayable","type":"function"},{"inputs":[{"internalType":"address","name":"newOwner","type":"address"}],"name":"transferOwnership","outputs":[],"stateMutability":"nonpayable","type":"function"}],"evm":{"bytecode":{"linkReferences":{},"object":"608060405234801561001057600080fd5b50610f74806100206000396000f3fe608060405234801561001057600080fd5b50600436106100a95760003560e01c8063d5438eae11610071578063d5438eae14610140578063de523cf31461015e578063f1bd6f0a1461017c578063f2fde38b14610198578063f3c61d6b146101b4578063f9c65cb4146101d0576100a9565b80630e72cc06146100ae57806339bb4ad9146100ca578063715018a6146100e85780638da5cb5b146100f25780638eb5b0d314610110575b600080fd5b6100c860048036038101906100c39190610973565b6101ec565b005b6100d2610200565b6040516100df91906109ff565b60405180910390f35b6100f0610226565b005b6100fa61023a565b6040516101079190610a29565b60405180910390f35b61012a60048036038101906101259190610973565b610264565b6040516101379190610ad4565b60405180910390f35b61014861030a565b6040516101559190610b17565b60405180910390f35b610166610330565b6040516101739190610b53565b60405180910390f35b61019660048036038101906101919190610973565b610356565b005b6101b260048036038101906101ad9190610973565b61036a565b005b6101ce60048036038101906101c99190610973565b6103ed565b005b6101ea60048036038101906101e59190610baa565b610401565b005b6101f46104d6565b6101fd81610554565b50565b606660009054906101000a900473ffffffffffffffffffffffffffffffffffffffff1681565b61022e6104d6565b610238600061065a565b565b6000603360009054906101000a900473ffffffffffffffffffffffffffffffffffffffff16905090565b609960205280600052604060002060009150905080600001805461028790610c2c565b80601f01602080910402602001604051908101604052809291908181526020018280546102b390610c2c565b80156103005780601f106102d557610100808354040283529160200191610300565b820191906000526020600020905b8154815290600101906020018083116102e357829003601f168201915b5050505050905081565b606560009054906101000a900473ffffffffffffffffffffffffffffffffffffffff1681565b606760009054906101000a900473ffffffffffffffffffffffffffffffffffffffff1681565b61035e6104d6565b61036781610720565b50565b6103726104d6565b600073ffffffffffffffffffffffffffffffffffffffff168173ffffffffffffffffffffffffffffffffffffffff16036103e1576040517f08c379a00000000000000000000000000000000000000000000000000000000081526004016103d890610ccf565b60405180910390fd5b6103ea8161065a565b50565b6103f56104d6565b6103fe816107f1565b50565b6000816040516020016104149190610d37565b6040516020818303038152906040529050606560009054906101000a900473ffffffffffffffffffffffffffffffffffffffff1673ffffffffffffffffffffffffffffffffffffffff1663fa31de018561046d866108c2565b846040518463ffffffff1660e01b815260040161048c93929190610dcf565b6020604051808303816000875af11580156104ab573d6000803e3d6000fd5b505050506040513d601f19601f820116820180604052508101906104cf9190610e39565b5050505050565b6104de6108e5565b73ffffffffffffffffffffffffffffffffffffffff166104fc61023a565b73ffffffffffffffffffffffffffffffffffffffff1614610552576040517f08c379a000000000000000000000000000000000000000000000000000000000815260040161054990610eb2565b60405180910390fd5b565b600073ffffffffffffffffffffffffffffffffffffffff168173ffffffffffffffffffffffffffffffffffffffff1614806105945750610593816108ed565b5b6105d3576040517f08c379a00000000000000000000000000000000000000000000000000000000081526004016105ca90610f1e565b60405180910390fd5b80606760006101000a81548173ffffffffffffffffffffffffffffffffffffffff021916908373ffffffffffffffffffffffffffffffffffffffff1602179055508073ffffffffffffffffffffffffffffffffffffffff167ffec811ed4e60aebdaf7a79cad8a97196bf56e35362f039705598226d30c9d24860405160405180910390a250565b6000603360009054906101000a900473ffffffffffffffffffffffffffffffffffffffff16905081603360006101000a81548173ffffffffffffffffffffffffffffffffffffffff021916908373ffffffffffffffffffffffffffffffffffffffff1602179055508173ffffffffffffffffffffffffffffffffffffffff168173ffffffffffffffffffffffffffffffffffffffff167f8be0079c531659141344cd1fd0a4f28419497f9722a3daafe3b4186f6b6457e060405160405180910390a35050565b8061072a816108ed565b610769576040517f08c379a000000000000000000000000000000000000000000000000000000000815260040161076090610f1e565b60405180910390fd5b81606660006101000a81548173ffffffffffffffffffffffffffffffffffffffff021916908373ffffffffffffffffffffffffffffffffffffffff1602179055508173ffffffffffffffffffffffffffffffffffffffff167fb87f5a0bface22cde699143559fb99f990ae54eea236995fc54178af91af859f60405160405180910390a25050565b806107fb816108ed565b61083a576040517f08c379a000000000000000000000000000000000000000000000000000000000815260040161083190610f1e565b60405180910390fd5b81606560006101000a81548173ffffffffffffffffffffffffffffffffffffffff021916908373ffffffffffffffffffffffffffffffffffffffff1602179055508173ffffffffffffffffffffffffffffffffffffffff167f7a61e573722ff8b205c8962b59d37e7d30573f368965597a844a94872204ebd760405160405180910390a25050565b60008173ffffffffffffffffffffffffffffffffffffffff1660001b9050919050565b600033905090565b6000808273ffffffffffffffffffffffffffffffffffffffff163b119050919050565b600080fd5b600073ffffffffffffffffffffffffffffffffffffffff82169050919050565b600061094082610915565b9050919050565b61095081610935565b811461095b57600080fd5b50565b60008135905061096d81610947565b92915050565b60006020828403121561098957610988610910565b5b60006109978482850161095e565b91505092915050565b6000819050919050565b60006109c56109c06109bb84610915565b6109a0565b610915565b9050919050565b60006109d7826109aa565b9050919050565b60006109e9826109cc565b9050919050565b6109f9816109de565b82525050565b6000602082019050610a1460008301846109f0565b92915050565b610a2381610935565b82525050565b6000602082019050610a3e6000830184610a1a565b92915050565b600081519050919050565b600082825260208201905092915050565b60005b83811015610a7e578082015181840152602081019050610a63565b60008484015250505050565b6000601f19601f8301169050919050565b6000610aa682610a44565b610ab08185610a4f565b9350610ac0818560208601610a60565b610ac981610a8a565b840191505092915050565b60006020820190508181036000830152610aee8184610a9b565b905092915050565b6000610b01826109cc565b9050919050565b610b1181610af6565b82525050565b6000602082019050610b2c6000830184610b08565b92915050565b6000610b3d826109cc565b9050919050565b610b4d81610b32565b82525050565b6000602082019050610b686000830184610b44565b92915050565b600063ffffffff82169050919050565b610b8781610b6e565b8114610b9257600080fd5b50565b600081359050610ba481610b7e565b92915050565b600080600060608486031215610bc357610bc2610910565b5b6000610bd186828701610b95565b9350506020610be28682870161095e565b9250506040610bf38682870161095e565b9150509250925092565b7f4e487b7100000000000000000000000000000000000000000000000000000000600052602260045260246000fd5b60006002820490506001821680610c4457607f821691505b602082108103610c5757610c56610bfd565b5b50919050565b7f4f776e61626c653a206e6577206f776e657220697320746865207a65726f206160008201527f6464726573730000000000000000000000000000000000000000000000000000602082015250565b6000610cb9602683610a4f565b9150610cc482610c5d565b604082019050919050565b60006020820190508181036000830152610ce881610cac565b9050919050565b60008160601b9050919050565b6000610d0782610cef565b9050919050565b6000610d1982610cfc565b9050919050565b610d31610d2c82610935565b610d0e565b82525050565b6000610d438284610d20565b60148201915081905092915050565b610d5b81610b6e565b82525050565b6000819050919050565b610d7481610d61565b82525050565b600081519050919050565b600082825260208201905092915050565b6000610da182610d7a565b610dab8185610d85565b9350610dbb818560208601610a60565b610dc481610a8a565b840191505092915050565b6000606082019050610de46000830186610d52565b610df16020830185610d6b565b8181036040830152610e038184610d96565b9050949350505050565b610e1681610d61565b8114610e2157600080fd5b50565b600081519050610e3381610e0d565b92915050565b600060208284031215610e4f57610e4e610910565b5b6000610e5d84828501610e24565b91505092915050565b7f4f776e61626c653a2063616c6c6572206973206e6f7420746865206f776e6572600082015250565b6000610e9c602083610a4f565b9150610ea782610e66565b602082019050919050565b60006020820190508181036000830152610ecb81610e8f565b9050919050565b7f21636f6e74726163740000000000000000000000000000000000000000000000600082015250565b6000610f08600983610a4f565b9150610f1382610ed2565b602082019050919050565b60006020820190508181036000830152610f3781610efb565b905091905056fea26469706673582212207876193ca055b2a9983bfaec4b15626907c7771d77741fb7fe8979aa7cc2395164736f6c63430008120033","opcodes":"PUSH1 0x80 PUSH1 0x40 MSTORE CALLVALUE DUP1 ISZERO PUSH2 0x10 JUMPI PUSH1 0x0 DUP1 REVERT JUMPDEST POP PUSH2 0xF74 DUP1 PUSH2 0x20 PUSH1 0x0 CODECOPY PUSH1 0x0 RETURN INVALID PUSH1 0x80 PUSH1 0x40 MSTORE CALLVALUE DUP1 ISZERO PUSH2 0x10 JUMPI PUSH1 0x0 DUP1 REVERT JUMPDEST POP PUSH1 0x4 CALLDATASIZE LT PUSH2 0xA9 JUMPI PUSH1 0x0 CALLDATALOAD PUSH1 0xE0 SHR DUP1 PUSH4 0xD5438EAE GT PUSH2 0x71 JUMPI DUP1 PUSH4 0xD5438EAE EQ PUSH2 0x140 JUMPI DUP1 PUSH4 0xDE523CF3 EQ PUSH2 0x15E JUMPI DUP1 PUSH4 0xF1BD6F0A EQ PUSH2 0x17C JUMPI DUP1 PUSH4 0xF2FDE38B EQ PUSH2 0x198 JUMPI DUP1 PUSH4 0xF3C61D6B EQ PUSH2 0x1B4 JUMPI DUP1 PUSH4 0xF9C65CB4 EQ PUSH2 0x1D0 JUMPI PUSH2 0xA9 JUMP JUMPDEST DUP1 PUSH4 0xE72CC06 EQ PUSH2 0xAE JUMPI DUP1 PUSH4 0x39BB4AD9 EQ PUSH2 0xCA JUMPI DUP1 PUSH4 0x715018A6 EQ PUSH2 0xE8 JUMPI DUP1 PUSH4 0x8DA5CB5B EQ PUSH2 0xF2 JUMPI DUP1 PUSH4 0x8EB5B0D3 EQ PUSH2 0x110 JUMPI JUMPDEST PUSH1 0x0 DUP1 REVERT JUMPDEST PUSH2 0xC8 PUSH1 0x4 DUP1 CALLDATASIZE SUB DUP2 ADD SWAP1 PUSH2 0xC3 SWAP2 SWAP1 PUSH2 0x973 JUMP JUMPDEST PUSH2 0x1EC JUMP JUMPDEST STOP JUMPDEST PUSH2 0xD2 PUSH2 0x200 JUMP JUMPDEST PUSH1 0x40 MLOAD PUSH2 0xDF SWAP2 SWAP1 PUSH2 0x9FF JUMP JUMPDEST PUSH1 0x40 MLOAD DUP1 SWAP2 SUB SWAP1 RETURN JUMPDEST PUSH2 0xF0 PUSH2 0x226 JUMP JUMPDEST STOP JUMPDEST PUSH2 0xFA PUSH2 0x23A JUMP JUMPDEST PUSH1 0x40 MLOAD PUSH2 0x107 SWAP2 SWAP1 PUSH2 0xA29 JUMP JUMPDEST PUSH1 0x40 MLOAD DUP1 SWAP2 SUB SWAP1 RETURN JUMPDEST PUSH2 0x12A PUSH1 0x4 DUP1 CALLDATASIZE SUB DUP2 ADD SWAP1 PUSH2 0x125 SWAP2 SWAP1 PUSH2 0x973 JUMP JUMPDEST PUSH2 0x264 JUMP JUMPDEST PUSH1 0x40 MLOAD PUSH2 0x137 SWAP2 SWAP1 PUSH2 0xAD4 JUMP JUMPDEST PUSH1 0x40 MLOAD DUP1 SWAP2 SUB SWAP1 RETURN JUMPDEST PUSH2 0x148 PUSH2 0x30A JUMP JUMPDEST PUSH1 0x40 MLOAD PUSH2 0x155 SWAP2 SWAP1 PUSH2 0xB17 JUMP JUMPDEST PUSH1 0x40 MLOAD DUP1 SWAP2 SUB SWAP1 RETURN JUMPDEST PUSH2 0x166 PUSH2 0x330 JUMP JUMPDEST PUSH1 0x40 MLOAD PUSH2 0x173 SWAP2 SWAP1 PUSH2 0xB53 JUMP JUMPDEST PUSH1 0x40 MLOAD DUP1 SWAP2 SUB SWAP1 RETURN JUMPDEST PUSH2 0x196 PUSH1 0x4 DUP1 CALLDATASIZE SUB DUP2 ADD SWAP1 PUSH2 0x191 SWAP2 SWAP1 PUSH2 0x973 JUMP JUMPDEST PUSH2 0x356 JUMP JUMPDEST STOP JUMPDEST PUSH2 0x1B2 PUSH1 0x4 DUP1 CALLDATASIZE SUB DUP2 ADD SWAP1 PUSH2 0x1AD SWAP2 SWAP1 PUSH2 0x973 JUMP JUMPDEST PUSH2 0x36A JUMP JUMPDEST STOP JUMPDEST PUSH2 0x1CE PUSH1 0x4 DUP1 CALLDATASIZE SUB DUP2 ADD SWAP1 PUSH2 0x1C9 SWAP2 SWAP1 PUSH2 0x973 JUMP JUMPDEST PUSH2 0x3ED JUMP JUMPDEST STOP JUMPDEST PUSH2 0x1EA PUSH1 0x4 DUP1 CALLDATASIZE SUB DUP2 ADD SWAP1 PUSH2 0x1E5 SWAP2 SWAP1 PUSH2 0xBAA JUMP JUMPDEST PUSH2 0x401 JUMP JUMPDEST STOP JUMPDEST PUSH2 0x1F4 PUSH2 0x4D6 JUMP JUMPDEST PUSH2 0x1FD DUP2 PUSH2 0x554 JUMP JUMPDEST POP JUMP JUMPDEST PUSH1 0x66 PUSH1 0x0 SWAP1 SLOAD SWAP1 PUSH2 0x100 EXP SWAP1 DIV PUSH20 0xFFFFFFFFFFFFFFFFFFFFFFFFFFFFFFFFFFFFFFFF AND DUP2 JUMP JUMPDEST PUSH2 0x22E PUSH2 0x4D6 JUMP JUMPDEST PUSH2 0x238 PUSH1 0x0 PUSH2 0x65A JUMP JUMPDEST JUMP JUMPDEST PUSH1 0x0 PUSH1 0x33 PUSH1 0x0 SWAP1 SLOAD SWAP1 PUSH2 0x100 EXP SWAP1 DIV PUSH20 0xFFFFFFFFFFFFFFFFFFFFFFFFFFFFFFFFFFFFFFFF AND SWAP1 POP SWAP1 JUMP JUMPDEST PUSH1 0x99 PUSH1 0x20 MSTORE DUP1 PUSH1 0x0 MSTORE PUSH1 0x40 PUSH1 0x0 KECCAK256 PUSH1 0x0 SWAP2 POP SWAP1 POP DUP1 PUSH1 0x0 ADD DUP1 SLOAD PUSH2 0x287 SWAP1 PUSH2 0xC2C JUMP JUMPDEST DUP1 PUSH1 0x1F ADD PUSH1 0x20 DUP1 SWAP2 DIV MUL PUSH1 0x20 ADD PUSH1 0x40 MLOAD SWAP1 DUP2 ADD PUSH1 0x40 MSTORE DUP1 SWAP3 SWAP2 SWAP1 DUP2 DUP2 MSTORE PUSH1 0x20 ADD DUP3 DUP1 SLOAD PUSH2 0x2B3 SWAP1 PUSH2 0xC2C JUMP JUMPDEST DUP1 ISZERO PUSH2 0x300 JUMPI DUP1 PUSH1 0x1F LT PUSH2 0x2D5 JUMPI PUSH2 0x100 DUP1 DUP4 SLOAD DIV MUL DUP4 MSTORE SWAP2 PUSH1 0x20 ADD SWAP2 PUSH2 0x300 JUMP JUMPDEST DUP3 ADD SWAP2 SWAP1 PUSH1 0x0 MSTORE PUSH1 0x20 PUSH1 0x0 KECCAK256 SWAP1 JUMPDEST DUP2 SLOAD DUP2 MSTORE SWAP1 PUSH1 0x1 ADD SWAP1 PUSH1 0x20 ADD DUP1 DUP4 GT PUSH2 0x2E3 JUMPI DUP3 SWAP1 SUB PUSH1 0x1F AND DUP3 ADD SWAP2 JUMPDEST POP POP POP POP POP SWAP1 POP DUP2 JUMP JUMPDEST PUSH1 0x65 PUSH1 0x0 SWAP1 SLOAD SWAP1 PUSH2 0x100 EXP SWAP1 DIV PUSH20 0xFFFFFFFFFFFFFFFFFFFFFFFFFFFFFFFFFFFFFFFF AND DUP2 JUMP JUMPDEST PUSH1 0x67 PUSH1 0x0 SWAP1 SLOAD SWAP1 PUSH2 0x100 EXP SWAP1 DIV PUSH20 0xFFFFFFFFFFFFFFFFFFFFFFFFFFFFFFFFFFFFFFFF AND DUP2 JUMP JUMPDEST PUSH2 0x35E PUSH2 0x4D6 JUMP JUMPDEST PUSH2 0x367 DUP2 PUSH2 0x720 JUMP JUMPDEST POP JUMP JUMPDEST PUSH2 0x372 PUSH2 0x4D6 JUMP JUMPDEST PUSH1 0x0 PUSH20 0xFFFFFFFFFFFFFFFFFFFFFFFFFFFFFFFFFFFFFFFF AND DUP2 PUSH20 0xFFFFFFFFFFFFFFFFFFFFFFFFFFFFFFFFFFFFFFFF AND SUB PUSH2 0x3E1 JUMPI PUSH1 0x40 MLOAD PUSH32 0x8C379A000000000000000000000000000000000000000000000000000000000 DUP2 MSTORE PUSH1 0x4 ADD PUSH2 0x3D8 SWAP1 PUSH2 0xCCF JUMP JUMPDEST PUSH1 0x40 MLOAD DUP1 SWAP2 SUB SWAP1 REVERT JUMPDEST PUSH2 0x3EA DUP2 PUSH2 0x65A JUMP JUMPDEST POP JUMP JUMPDEST PUSH2 0x3F5 PUSH2 0x4D6 JUMP JUMPDEST PUSH2 0x3FE DUP2 PUSH2 0x7F1 JUMP JUMPDEST POP JUMP JUMPDEST PUSH1 0x0 DUP2 PUSH1 0x40 MLOAD PUSH1 0x20 ADD PUSH2 0x414 SWAP2 SWAP1 PUSH2 0xD37 JUMP JUMPDEST PUSH1 0x40 MLOAD PUSH1 0x20 DUP2 DUP4 SUB SUB DUP2 MSTORE SWAP1 PUSH1 0x40 MSTORE SWAP1 POP PUSH1 0x65 PUSH1 0x0 SWAP1 SLOAD SWAP1 PUSH2 0x100 EXP SWAP1 DIV PUSH20 0xFFFFFFFFFFFFFFFFFFFFFFFFFFFFFFFFFFFFFFFF AND PUSH20 0xFFFFFFFFFFFFFFFFFFFFFFFFFFFFFFFFFFFFFFFF AND PUSH4 0xFA31DE01 DUP6 PUSH2 0x46D DUP7 PUSH2 0x8C2 JUMP JUMPDEST DUP5 PUSH1 0x40 MLOAD DUP5 PUSH4 0xFFFFFFFF AND PUSH1 0xE0 SHL DUP2 MSTORE PUSH1 0x4 ADD PUSH2 0x48C SWAP4 SWAP3 SWAP2 SWAP1 PUSH2 0xDCF JUMP JUMPDEST PUSH1 0x20 PUSH1 0x40 MLOAD DUP1 DUP4 SUB DUP2 PUSH1 0x0 DUP8 GAS CALL ISZERO DUP1 ISZERO PUSH2 0x4AB JUMPI RETURNDATASIZE PUSH1 0x0 DUP1 RETURNDATACOPY RETURNDATASIZE PUSH1 0x0 REVERT JUMPDEST POP POP POP POP PUSH1 0x40 MLOAD RETURNDATASIZE PUSH1 0x1F NOT PUSH1 0x1F DUP3 ADD AND DUP3 ADD DUP1 PUSH1 0x40 MSTORE POP DUP2 ADD SWAP1 PUSH2 0x4CF SWAP2 SWAP1 PUSH2 0xE39 JUMP JUMPDEST POP POP POP POP POP JUMP JUMPDEST PUSH2 0x4DE PUSH2 0x8E5 JUMP JUMPDEST PUSH20 0xFFFFFFFFFFFFFFFFFFFFFFFFFFFFFFFFFFFFFFFF AND PUSH2 0x4FC PUSH2 0x23A JUMP JUMPDEST PUSH20 0xFFFFFFFFFFFFFFFFFFFFFFFFFFFFFFFFFFFFFFFF AND EQ PUSH2 0x552 JUMPI PUSH1 0x40 MLOAD PUSH32 0x8C379A000000000000000000000000000000000000000000000000000000000 DUP2 MSTORE PUSH1 0x4 ADD PUSH2 0x549 SWAP1 PUSH2 0xEB2 JUMP JUMPDEST PUSH1 0x40 MLOAD DUP1 SWAP2 SUB SWAP1 REVERT JUMPDEST JUMP JUMPDEST PUSH1 0x0 PUSH20 0xFFFFFFFFFFFFFFFFFFFFFFFFFFFFFFFFFFFFFFFF AND DUP2 PUSH20 0xFFFFFFFFFFFFFFFFFFFFFFFFFFFFFFFFFFFFFFFF AND EQ DUP1 PUSH2 0x594 JUMPI POP PUSH2 0x593 DUP2 PUSH2 0x8ED JUMP JUMPDEST JUMPDEST PUSH2 0x5D3 JUMPI PUSH1 0x40 MLOAD PUSH32 0x8C379A000000000000000000000000000000000000000000000000000000000 DUP2 MSTORE PUSH1 0x4 ADD PUSH2 0x5CA SWAP1 PUSH2 0xF1E JUMP JUMPDEST PUSH1 0x40 MLOAD DUP1 SWAP2 SUB SWAP1 REVERT JUMPDEST DUP1 PUSH1 0x67 PUSH1 0x0 PUSH2 0x100 EXP DUP2 SLOAD DUP2 PUSH20 0xFFFFFFFFFFFFFFFFFFFFFFFFFFFFFFFFFFFFFFFF MUL NOT AND SWAP1 DUP4 PUSH20 0xFFFFFFFFFFFFFFFFFFFFFFFFFFFFFFFFFFFFFFFF AND MUL OR SWAP1 SSTORE POP DUP1 PUSH20 0xFFFFFFFFFFFFFFFFFFFFFFFFFFFFFFFFFFFFFFFF AND PUSH32 0xFEC811ED4E60AEBDAF7A79CAD8A97196BF56E35362F039705598226D30C9D248 PUSH1 0x40 MLOAD PUSH1 0x40 MLOAD DUP1 SWAP2 SUB SWAP1 LOG2 POP JUMP JUMPDEST PUSH1 0x0 PUSH1 0x33 PUSH1 0x0 SWAP1 SLOAD SWAP1 PUSH2 0x100 EXP SWAP1 DIV PUSH20 0xFFFFFFFFFFFFFFFFFFFFFFFFFFFFFFFFFFFFFFFF AND SWAP1 POP DUP2 PUSH1 0x33 PUSH1 0x0 PUSH2 0x100 EXP DUP2 SLOAD DUP2 PUSH20 0xFFFFFFFFFFFFFFFFFFFFFFFFFFFFFFFFFFFFFFFF MUL NOT AND SWAP1 DUP4 PUSH20 0xFFFFFFFFFFFFFFFFFFFFFFFFFFFFFFFFFFFFFFFF AND MUL OR SWAP1 SSTORE POP DUP2 PUSH20 0xFFFFFFFFFFFFFFFFFFFFFFFFFFFFFFFFFFFFFFFF AND DUP2 PUSH20 0xFFFFFFFFFFFFFFFFFFFFFFFFFFFFFFFFFFFFFFFF AND PUSH32 0x8BE0079C531659141344CD1FD0A4F28419497F9722A3DAAFE3B4186F6B6457E0 PUSH1 0x40 MLOAD PUSH1 0x40 MLOAD DUP1 SWAP2 SUB SWAP1 LOG3 POP POP JUMP JUMPDEST DUP1 PUSH2 0x72A DUP2 PUSH2 0x8ED JUMP JUMPDEST PUSH2 0x769 JUMPI PUSH1 0x40 MLOAD PUSH32 0x8C379A000000000000000000000000000000000000000000000000000000000 DUP2 MSTORE PUSH1 0x4 ADD PUSH2 0x760 SWAP1 PUSH2 0xF1E JUMP JUMPDEST PUSH1 0x40 MLOAD DUP1 SWAP2 SUB SWAP1 REVERT JUMPDEST DUP2 PUSH1 0x66 PUSH1 0x0 PUSH2 0x100 EXP DUP2 SLOAD DUP2 PUSH20 0xFFFFFFFFFFFFFFFFFFFFFFFFFFFFFFFFFFFFFFFF MUL NOT AND SWAP1 DUP4 PUSH20 0xFFFFFFFFFFFFFFFFFFFFFFFFFFFFFFFFFFFFFFFF AND MUL OR SWAP1 SSTORE POP DUP2 PUSH20 0xFFFFFFFFFFFFFFFFFFFFFFFFFFFFFFFFFFFFFFFF AND PUSH32 0xB87F5A0BFACE22CDE699143559FB99F990AE54EEA236995FC54178AF91AF859F PUSH1 0x40 MLOAD PUSH1 0x40 MLOAD DUP1 SWAP2 SUB SWAP1 LOG2 POP POP JUMP JUMPDEST DUP1 PUSH2 0x7FB DUP2 PUSH2 0x8ED JUMP JUMPDEST PUSH2 0x83A JUMPI PUSH1 0x40 MLOAD PUSH32 0x8C379A000000000000000000000000000000000000000000000000000000000 DUP2 MSTORE PUSH1 0x4 ADD PUSH2 0x831 SWAP1 PUSH2 0xF1E JUMP JUMPDEST PUSH1 0x40 MLOAD DUP1 SWAP2 SUB SWAP1 REVERT JUMPDEST DUP2 PUSH1 0x65 PUSH1 0x0 PUSH2 0x100 EXP DUP2 SLOAD DUP2 PUSH20 0xFFFFFFFFFFFFFFFFFFFFFFFFFFFFFFFFFFFFFFFF MUL NOT AND SWAP1 DUP4 PUSH20 0xFFFFFFFFFFFFFFFFFFFFFFFFFFFFFFFFFFFFFFFF AND MUL OR SWAP1 SSTORE POP DUP2 PUSH20 0xFFFFFFFFFFFFFFFFFFFFFFFFFFFFFFFFFFFFFFFF AND PUSH32 0x7A61E573722FF8B205C8962B59D37E7D30573F368965597A844A94872204EBD7 PUSH1 0x40 MLOAD PUSH1 0x40 MLOAD DUP1 SWAP2 SUB SWAP1 LOG2 POP POP JUMP JUMPDEST PUSH1 0x0 DUP2 PUSH20 0xFFFFFFFFFFFFFFFFFFFFFFFFFFFFFFFFFFFFFFFF AND PUSH1 0x0 SHL SWAP1 POP SWAP2 SWAP1 POP JUMP JUMPDEST PUSH1 0x0 CALLER SWAP1 POP SWAP1 JUMP JUMPDEST PUSH1 0x0 DUP1 DUP3 PUSH20 0xFFFFFFFFFFFFFFFFFFFFFFFFFFFFFFFFFFFFFFFF AND EXTCODESIZE GT SWAP1 POP SWAP2 SWAP1 POP JUMP JUMPDEST PUSH1 0x0 DUP1 REVERT JUMPDEST PUSH1 0x0 PUSH20 0xFFFFFFFFFFFFFFFFFFFFFFFFFFFFFFFFFFFFFFFF DUP3 AND SWAP1 POP SWAP2 SWAP1 POP JUMP JUMPDEST PUSH1 0x0 PUSH2 0x940 DUP3 PUSH2 0x915 JUMP JUMPDEST SWAP1 POP SWAP2 SWAP1 POP JUMP JUMPDEST PUSH2 0x950 DUP2 PUSH2 0x935 JUMP JUMPDEST DUP2 EQ PUSH2 0x95B JUMPI PUSH1 0x0 DUP1 REVERT JUMPDEST POP JUMP JUMPDEST PUSH1 0x0 DUP2 CALLDATALOAD SWAP1 POP PUSH2 0x96D DUP2 PUSH2 0x947 JUMP JUMPDEST SWAP3 SWAP2 POP POP JUMP JUMPDEST PUSH1 0x0 PUSH1 0x20 DUP3 DUP5 SUB SLT ISZERO PUSH2 0x989 JUMPI PUSH2 0x988 PUSH2 0x910 JUMP JUMPDEST JUMPDEST PUSH1 0x0 PUSH2 0x997 DUP5 DUP3 DUP6 ADD PUSH2 0x95E JUMP JUMPDEST SWAP2 POP POP SWAP3 SWAP2 POP POP JUMP JUMPDEST PUSH1 0x0 DUP2 SWAP1 POP SWAP2 SWAP1 POP JUMP JUMPDEST PUSH1 0x0 PUSH2 0x9C5 PUSH2 0x9C0 PUSH2 0x9BB DUP5 PUSH2 0x915 JUMP JUMPDEST PUSH2 0x9A0 JUMP JUMPDEST PUSH2 0x915 JUMP JUMPDEST SWAP1 POP SWAP2 SWAP1 POP JUMP JUMPDEST PUSH1 0x0 PUSH2 0x9D7 DUP3 PUSH2 0x9AA JUMP JUMPDEST SWAP1 POP SWAP2 SWAP1 POP JUMP JUMPDEST PUSH1 0x0 PUSH2 0x9E9 DUP3 PUSH2 0x9CC JUMP JUMPDEST SWAP1 POP SWAP2 SWAP1 POP JUMP JUMPDEST PUSH2 0x9F9 DUP2 PUSH2 0x9DE JUMP JUMPDEST DUP3 MSTORE POP POP JUMP JUMPDEST PUSH1 0x0 PUSH1 0x20 DUP3 ADD SWAP1 POP PUSH2 0xA14 PUSH1 0x0 DUP4 ADD DUP5 PUSH2 0x9F0 JUMP JUMPDEST SWAP3 SWAP2 POP POP JUMP JUMPDEST PUSH2 0xA23 DUP2 PUSH2 0x935 JUMP JUMPDEST DUP3 MSTORE POP POP JUMP JUMPDEST PUSH1 0x0 PUSH1 0x20 DUP3 ADD SWAP1 POP PUSH2 0xA3E PUSH1 0x0 DUP4 ADD DUP5 PUSH2 0xA1A JUMP JUMPDEST SWAP3 SWAP2 POP POP JUMP JUMPDEST PUSH1 0x0 DUP2 MLOAD SWAP1 POP SWAP2 SWAP1 POP JUMP JUMPDEST PUSH1 0x0 DUP3 DUP3 MSTORE PUSH1 0x20 DUP3 ADD SWAP1 POP SWAP3 SWAP2 POP POP JUMP JUMPDEST PUSH1 0x0 JUMPDEST DUP4 DUP2 LT ISZERO PUSH2 0xA7E JUMPI DUP1 DUP3 ADD MLOAD DUP2 DUP5 ADD MSTORE PUSH1 0x20 DUP2 ADD SWAP1 POP PUSH2 0xA63 JUMP JUMPDEST PUSH1 0x0 DUP5 DUP5 ADD MSTORE POP POP POP POP JUMP JUMPDEST PUSH1 0x0 PUSH1 0x1F NOT PUSH1 0x1F DUP4 ADD AND SWAP1 POP SWAP2 SWAP1 POP JUMP JUMPDEST PUSH1 0x0 PUSH2 0xAA6 DUP3 PUSH2 0xA44 JUMP JUMPDEST PUSH2 0xAB0 DUP2 DUP6 PUSH2 0xA4F JUMP JUMPDEST SWAP4 POP PUSH2 0xAC0 DUP2 DUP6 PUSH1 0x20 DUP7 ADD PUSH2 0xA60 JUMP JUMPDEST PUSH2 0xAC9 DUP2 PUSH2 0xA8A JUMP JUMPDEST DUP5 ADD SWAP2 POP POP SWAP3 SWAP2 POP POP JUMP JUMPDEST PUSH1 0x0 PUSH1 0x20 DUP3 ADD SWAP1 POP DUP2 DUP2 SUB PUSH1 0x0 DUP4 ADD MSTORE PUSH2 0xAEE DUP2 DUP5 PUSH2 0xA9B JUMP JUMPDEST SWAP1 POP SWAP3 SWAP2 POP POP JUMP JUMPDEST PUSH1 0x0 PUSH2 0xB01 DUP3 PUSH2 0x9CC JUMP JUMPDEST SWAP1 POP SWAP2 SWAP1 POP JUMP JUMPDEST PUSH2 0xB11 DUP2 PUSH2 0xAF6 JUMP JUMPDEST DUP3 MSTORE POP POP JUMP JUMPDEST PUSH1 0x0 PUSH1 0x20 DUP3 ADD SWAP1 POP PUSH2 0xB2C PUSH1 0x0 DUP4 ADD DUP5 PUSH2 0xB08 JUMP JUMPDEST SWAP3 SWAP2 POP POP JUMP JUMPDEST PUSH1 0x0 PUSH2 0xB3D DUP3 PUSH2 0x9CC JUMP JUMPDEST SWAP1 POP SWAP2 SWAP1 POP JUMP JUMPDEST PUSH2 0xB4D DUP2 PUSH2 0xB32 JUMP JUMPDEST DUP3 MSTORE POP POP JUMP JUMPDEST PUSH1 0x0 PUSH1 0x20 DUP3 ADD SWAP1 POP PUSH2 0xB68 PUSH1 0x0 DUP4 ADD DUP5 PUSH2 0xB44 JUMP JUMPDEST SWAP3 SWAP2 POP POP JUMP JUMPDEST PUSH1 0x0 PUSH4 0xFFFFFFFF DUP3 AND SWAP1 POP SWAP2 SWAP1 POP JUMP JUMPDEST PUSH2 0xB87 DUP2 PUSH2 0xB6E JUMP JUMPDEST DUP2 EQ PUSH2 0xB92 JUMPI PUSH1 0x0 DUP1 REVERT JUMPDEST POP JUMP JUMPDEST PUSH1 0x0 DUP2 CALLDATALOAD SWAP1 POP PUSH2 0xBA4 DUP2 PUSH2 0xB7E JUMP JUMPDEST SWAP3 SWAP2 POP POP JUMP JUMPDEST PUSH1 0x0 DUP1 PUSH1 0x0 PUSH1 0x60 DUP5 DUP7 SUB SLT ISZERO PUSH2 0xBC3 JUMPI PUSH2 0xBC2 PUSH2 0x910 JUMP JUMPDEST JUMPDEST PUSH1 0x0 PUSH2 0xBD1 DUP7 DUP3 DUP8 ADD PUSH2 0xB95 JUMP JUMPDEST SWAP4 POP POP PUSH1 0x20 PUSH2 0xBE2 DUP7 DUP3 DUP8 ADD PUSH2 0x95E JUMP JUMPDEST SWAP3 POP POP PUSH1 0x40 PUSH2 0xBF3 DUP7 DUP3 DUP8 ADD PUSH2 0x95E JUMP JUMPDEST SWAP2 POP POP SWAP3 POP SWAP3 POP SWAP3 JUMP JUMPDEST PUSH32 0x4E487B7100000000000000000000000000000000000000000000000000000000 PUSH1 0x0 MSTORE PUSH1 0x22 PUSH1 0x4 MSTORE PUSH1 0x24 PUSH1 0x0 REVERT JUMPDEST PUSH1 0x0 PUSH1 0x2 DUP3 DIV SWAP1 POP PUSH1 0x1 DUP3 AND DUP1 PUSH2 0xC44 JUMPI PUSH1 0x7F DUP3 AND SWAP2 POP JUMPDEST PUSH1 0x20 DUP3 LT DUP2 SUB PUSH2 0xC57 JUMPI PUSH2 0xC56 PUSH2 0xBFD JUMP JUMPDEST JUMPDEST POP SWAP2 SWAP1 POP JUMP JUMPDEST PUSH32 0x4F776E61626C653A206E6577206F776E657220697320746865207A65726F2061 PUSH1 0x0 DUP3 ADD MSTORE PUSH32 0x6464726573730000000000000000000000000000000000000000000000000000 PUSH1 0x20 DUP3 ADD MSTORE POP JUMP JUMPDEST PUSH1 0x0 PUSH2 0xCB9 PUSH1 0x26 DUP4 PUSH2 0xA4F JUMP JUMPDEST SWAP2 POP PUSH2 0xCC4 DUP3 PUSH2 0xC5D JUMP JUMPDEST PUSH1 0x40 DUP3 ADD SWAP1 POP SWAP2 SWAP1 POP JUMP JUMPDEST PUSH1 0x0 PUSH1 0x20 DUP3 ADD SWAP1 POP DUP2 DUP2 SUB PUSH1 0x0 DUP4 ADD MSTORE PUSH2 0xCE8 DUP2 PUSH2 0xCAC JUMP JUMPDEST SWAP1 POP SWAP2 SWAP1 POP JUMP JUMPDEST PUSH1 0x0 DUP2 PUSH1 0x60 SHL SWAP1 POP SWAP2 SWAP1 POP JUMP JUMPDEST PUSH1 0x0 PUSH2 0xD07 DUP3 PUSH2 0xCEF JUMP JUMPDEST SWAP1 POP SWAP2 SWAP1 POP JUMP JUMPDEST PUSH1 0x0 PUSH2 0xD19 DUP3 PUSH2 0xCFC JUMP JUMPDEST SWAP1 POP SWAP2 SWAP1 POP JUMP JUMPDEST PUSH2 0xD31 PUSH2 0xD2C DUP3 PUSH2 0x935 JUMP JUMPDEST PUSH2 0xD0E JUMP JUMPDEST DUP3 MSTORE POP POP JUMP JUMPDEST PUSH1 0x0 PUSH2 0xD43 DUP3 DUP5 PUSH2 0xD20 JUMP JUMPDEST PUSH1 0x14 DUP3 ADD SWAP2 POP DUP2 SWAP1 POP SWAP3 SWAP2 POP POP JUMP JUMPDEST PUSH2 0xD5B DUP2 PUSH2 0xB6E JUMP JUMPDEST DUP3 MSTORE POP POP JUMP JUMPDEST PUSH1 0x0 DUP2 SWAP1 POP SWAP2 SWAP1 POP JUMP JUMPDEST PUSH2 0xD74 DUP2 PUSH2 0xD61 JUMP JUMPDEST DUP3 MSTORE POP POP JUMP JUMPDEST PUSH1 0x0 DUP2 MLOAD SWAP1 POP SWAP2 SWAP1 POP JUMP JUMPDEST PUSH1 0x0 DUP3 DUP3 MSTORE PUSH1 0x20 DUP3 ADD SWAP1 POP SWAP3 SWAP2 POP POP JUMP JUMPDEST PUSH1 0x0 PUSH2 0xDA1 DUP3 PUSH2 0xD7A JUMP JUMPDEST PUSH2 0xDAB DUP2 DUP6 PUSH2 0xD85 JUMP JUMPDEST SWAP4 POP PUSH2 0xDBB DUP2 DUP6 PUSH1 0x20 DUP7 ADD PUSH2 0xA60 JUMP JUMPDEST PUSH2 0xDC4 DUP2 PUSH2 0xA8A JUMP JUMPDEST DUP5 ADD SWAP2 POP POP SWAP3 SWAP2 POP POP JUMP JUMPDEST PUSH1 0x0 PUSH1 0x60 DUP3 ADD SWAP1 POP PUSH2 0xDE4 PUSH1 0x0 DUP4 ADD DUP7 PUSH2 0xD52 JUMP JUMPDEST PUSH2 0xDF1 PUSH1 0x20 DUP4 ADD DUP6 PUSH2 0xD6B JUMP JUMPDEST DUP2 DUP2 SUB PUSH1 0x40 DUP4 ADD MSTORE PUSH2 0xE03 DUP2 DUP5 PUSH2 0xD96 JUMP JUMPDEST SWAP1 POP SWAP5 SWAP4 POP POP POP POP JUMP JUMPDEST PUSH2 0xE16 DUP2 PUSH2 0xD61 JUMP JUMPDEST DUP2 EQ PUSH2 0xE21 JUMPI PUSH1 0x0 DUP1 REVERT JUMPDEST POP JUMP JUMPDEST PUSH1 0x0 DUP2 MLOAD SWAP1 POP PUSH2 0xE33 DUP2 PUSH2 0xE0D JUMP JUMPDEST SWAP3 SWAP2 POP POP JUMP JUMPDEST PUSH1 0x0 PUSH1 0x20 DUP3 DUP5 SUB SLT ISZERO PUSH2 0xE4F JUMPI PUSH2 0xE4E PUSH2 0x910 JUMP JUMPDEST JUMPDEST PUSH1 0x0 PUSH2 0xE5D DUP5 DUP3 DUP6 ADD PUSH2 0xE24 JUMP JUMPDEST SWAP2 POP POP SWAP3 SWAP2 POP POP JUMP JUMPDEST PUSH32 0x4F776E61626C653A2063616C6C6572206973206E6F7420746865206F776E6572 PUSH1 0x0 DUP3 ADD MSTORE POP JUMP JUMPDEST PUSH1 0x0 PUSH2 0xE9C PUSH1 0x20 DUP4 PUSH2 0xA4F JUMP JUMPDEST SWAP2 POP PUSH2 0xEA7 DUP3 PUSH2 0xE66 JUMP JUMPDEST PUSH1 0x20 DUP3 ADD SWAP1 POP SWAP2 SWAP1 POP JUMP JUMPDEST PUSH1 0x0 PUSH1 0x20 DUP3 ADD SWAP1 POP DUP2 DUP2 SUB PUSH1 0x0 DUP4 ADD MSTORE PUSH2 0xECB DUP2 PUSH2 0xE8F JUMP JUMPDEST SWAP1 POP SWAP2 SWAP1 POP JUMP JUMPDEST PUSH32 0x21636F6E74726163740000000000000000000000000000000000000000000000 PUSH1 0x0 DUP3 ADD MSTORE POP JUMP JUMPDEST PUSH1 0x0 PUSH2 0xF08 PUSH1 0x9 DUP4 PUSH2 0xA4F JUMP JUMPDEST SWAP2 POP PUSH2 0xF13 DUP3 PUSH2 0xED2 JUMP JUMPDEST PUSH1 0x20 DUP3 ADD SWAP1 POP SWAP2 SWAP1 POP JUMP JUMPDEST PUSH1 0x0 PUSH1 0x20 DUP3 ADD SWAP1 POP DUP2 DUP2 SUB PUSH1 0x0 DUP4 ADD MSTORE PUSH2 0xF37 DUP2 PUSH2 0xEFB JUMP JUMPDEST SWAP1 POP SWAP2 SWAP1 POP JUMP INVALID LOG2 PUSH5 0x6970667358 0x22 SLT KECCAK256 PUSH25 0x76193CA055B2A9983BFAEC4B15626907C7771D77741FB7FE89 PUSH26 0xAA7CC2395164736F6C6343000812003300000000000000000000 "},"methodIdentifiers":{"interchainGasPaymaster()":"39bb4ad9","interchainSecurityModule()":"de523cf3","listOfNGOs(address)":"8eb5b0d3","mailbox()":"d5438eae","owner()":"8da5cb5b","relayNGOMappingToMainContract(uint32,address,address)":"f9c65cb4","renounceOwnership()":"715018a6","setInterchainGasPaymaster(address)":"f1bd6f0a","setInterchainSecurityModule(address)":"0e72cc06","setMailbox(address)":"f3c61d6b","transferOwnership(address)":"f2fde38b"}}}}}