{"contracts/NetworkMapper.sol":{"NetworkMapper":{"abi":[{"inputs":[{"internalType":"address[]","name":"_contractAddresses","type":"address[]"},{"internalType":"uint32[]","name":"_chainIDArray","type":"uint32[]"}],"stateMutability":"nonpayable","type":"constructor"},{"anonymous":false,"inputs":[{"indexed":false,"internalType":"uint8","name":"version","type":"uint8"}],"name":"Initialized","type":"event"},{"anonymous":false,"inputs":[{"indexed":true,"internalType":"address","name":"interchainGasPaymaster","type":"address"}],"name":"InterchainGasPaymasterSet","type":"event"},{"anonymous":false,"inputs":[{"indexed":true,"internalType":"address","name":"module","type":"address"}],"name":"InterchainSecurityModuleSet","type":"event"},{"anonymous":false,"inputs":[{"indexed":true,"internalType":"address","name":"mailbox","type":"address"}],"name":"MailboxSet","type":"event"},{"anonymous":false,"inputs":[{"indexed":true,"internalType":"address","name":"previousOwner","type":"address"},{"indexed":true,"internalType":"address","name":"newOwner","type":"address"}],"name":"OwnershipTransferred","type":"event"},{"anonymous":false,"inputs":[{"indexed":false,"internalType":"uint32","name":"_origin","type":"uint32"},{"indexed":false,"internalType":"bytes32","name":"_sender","type":"bytes32"},{"indexed":false,"internalType":"string","name":"_message","type":"string"}],"name":"subContractAddressReceived","type":"event"},{"inputs":[{"internalType":"string","name":"","type":"string"}],"name":"NGONetworkMapping","outputs":[{"internalType":"string","name":"","type":"string"}],"stateMutability":"view","type":"function"},{"inputs":[{"internalType":"string","name":"_networkName","type":"string"},{"internalType":"address","name":"_contractAddress","type":"address"}],"name":"changeAddressOfContract","outputs":[],"stateMutability":"nonpayable","type":"function"},{"inputs":[{"internalType":"string","name":"_networkName","type":"string"},{"internalType":"uint32","name":"_chainID","type":"uint32"}],"name":"changeNetworkNameForChainID","outputs":[],"stateMutability":"nonpayable","type":"function"},{"inputs":[{"internalType":"string","name":"","type":"string"}],"name":"contractAddresses","outputs":[{"internalType":"address","name":"","type":"address"}],"stateMutability":"view","type":"function"},{"inputs":[{"internalType":"uint32","name":"","type":"uint32"}],"name":"domainIdentifiers","outputs":[{"internalType":"string","name":"","type":"string"}],"stateMutability":"view","type":"function"},{"inputs":[{"internalType":"uint32","name":"_origin","type":"uint32"},{"internalType":"bytes32","name":"_sender","type":"bytes32"},{"internalType":"bytes","name":"_message","type":"bytes"}],"name":"handle","outputs":[],"stateMutability":"nonpayable","type":"function"},{"inputs":[],"name":"interchainGasPaymaster","outputs":[{"internalType":"contract IInterchainGasPaymaster","name":"","type":"address"}],"stateMutability":"view","type":"function"},{"inputs":[],"name":"interchainSecurityModule","outputs":[{"internalType":"contract IInterchainSecurityModule","name":"","type":"address"}],"stateMutability":"view","type":"function"},{"inputs":[],"name":"mailbox","outputs":[{"internalType":"contract IMailbox","name":"","type":"address"}],"stateMutability":"view","type":"function"},{"inputs":[],"name":"owner","outputs":[{"internalType":"address","name":"","type":"address"}],"stateMutability":"view","type":"function"},{"inputs":[],"name":"renounceOwnership","outputs":[],"stateMutability":"nonpayable","type":"function"},{"inputs":[{"internalType":"address","name":"_interchainGasPaymaster","type":"address"}],"name":"setInterchainGasPaymaster","outputs":[],"stateMutability":"nonpayable","type":"function"},{"inputs":[{"internalType":"address","name":"_module","type":"address"}],"name":"setInterchainSecurityModule","outputs":[],"stateMutability":"nonpayable","type":"function"},{"inputs":[{"internalType":"address","name":"_mailbox","type":"address"}],"name":"setMailbox","outputs":[],"stateMutability":"nonpayable","type":"function"},{"inputs":[{"internalType":"address","name":"newOwner","type":"address"}],"name":"transferOwnership","outputs":[],"stateMutability":"nonpayable","type":"function"}],"evm":{"bytecode":{"linkReferences":{},"object":"60806040523480156200001157600080fd5b506040516200259c3803806200259c833981810160405281019062000037919062000738565b816000815181106200004e576200004d620007bd565b5b60200260200101516098604051620000669062000847565b908152602001604051809103902060006101000a81548173ffffffffffffffffffffffffffffffffffffffff021916908373ffffffffffffffffffffffffffffffffffffffff1602179055506040518060400160405280601281526020017f66696c65636f696e4879706572737061636500000000000000000000000000008152506099600083600081518110620001035762000102620007bd565b5b602002602001015163ffffffff1663ffffffff168152602001908152602001600020908162000133919062000aa9565b50816001815181106200014b576200014a620007bd565b5b60200260200101516098604051620001639062000be0565b908152602001604051809103902060006101000a81548173ffffffffffffffffffffffffffffffffffffffff021916908373ffffffffffffffffffffffffffffffffffffffff1602179055506040518060400160405280600681526020017f676e6f736973000000000000000000000000000000000000000000000000000081525060996000836001815181106200020057620001ff620007bd565b5b602002602001015163ffffffff1663ffffffff168152602001908152602001600020908162000230919062000aa9565b5081600281518110620002485762000247620007bd565b5b60200260200101516098604051620002609062000c47565b908152602001604051809103902060006101000a81548173ffffffffffffffffffffffffffffffffffffffff021916908373ffffffffffffffffffffffffffffffffffffffff1602179055506040518060400160405280600681526020017f7363726f6c6c00000000000000000000000000000000000000000000000000008152506099600083600281518110620002fd57620002fc620007bd565b5b602002602001015163ffffffff1663ffffffff16815260200190815260200160002090816200032d919062000aa9565b5081600381518110620003455762000344620007bd565b5b602002602001015160986040516200035d9062000cae565b908152602001604051809103902060006101000a81548173ffffffffffffffffffffffffffffffffffffffff021916908373ffffffffffffffffffffffffffffffffffffffff1602179055506040518060400160405280600881526020017f6f7074696d69736d0000000000000000000000000000000000000000000000008152506099600083600381518110620003fa57620003f9620007bd565b5b602002602001015163ffffffff1663ffffffff16815260200190815260200160002090816200042a919062000aa9565b50505062000cc5565b6000604051905090565b600080fd5b600080fd5b600080fd5b6000601f19601f8301169050919050565b7f4e487b7100000000000000000000000000000000000000000000000000000000600052604160045260246000fd5b62000497826200044c565b810181811067ffffffffffffffff82111715620004b957620004b86200045d565b5b80604052505050565b6000620004ce62000433565b9050620004dc82826200048c565b919050565b600067ffffffffffffffff821115620004ff57620004fe6200045d565b5b602082029050602081019050919050565b600080fd5b600073ffffffffffffffffffffffffffffffffffffffff82169050919050565b6000620005428262000515565b9050919050565b620005548162000535565b81146200056057600080fd5b50565b600081519050620005748162000549565b92915050565b6000620005916200058b84620004e1565b620004c2565b90508083825260208201905060208402830185811115620005b757620005b662000510565b5b835b81811015620005e45780620005cf888262000563565b845260208401935050602081019050620005b9565b5050509392505050565b600082601f83011262000606576200060562000447565b5b8151620006188482602086016200057a565b91505092915050565b600067ffffffffffffffff8211156200063f576200063e6200045d565b5b602082029050602081019050919050565b600063ffffffff82169050919050565b6200066b8162000650565b81146200067757600080fd5b50565b6000815190506200068b8162000660565b92915050565b6000620006a8620006a28462000621565b620004c2565b90508083825260208201905060208402830185811115620006ce57620006cd62000510565b5b835b81811015620006fb5780620006e688826200067a565b845260208401935050602081019050620006d0565b5050509392505050565b600082601f8301126200071d576200071c62000447565b5b81516200072f84826020860162000691565b91505092915050565b600080604083850312156200075257620007516200043d565b5b600083015167ffffffffffffffff81111562000773576200077262000442565b5b6200078185828601620005ee565b925050602083015167ffffffffffffffff811115620007a557620007a462000442565b5b620007b38582860162000705565b9150509250929050565b7f4e487b7100000000000000000000000000000000000000000000000000000000600052603260045260246000fd5b600081905092915050565b7f66696c65636f696e487970657273706163650000000000000000000000000000600082015250565b60006200082f601283620007ec565b91506200083c82620007f7565b601282019050919050565b6000620008548262000820565b9150819050919050565b600081519050919050565b7f4e487b7100000000000000000000000000000000000000000000000000000000600052602260045260246000fd5b60006002820490506001821680620008b157607f821691505b602082108103620008c757620008c662000869565b5b50919050565b60008190508160005260206000209050919050565b60006020601f8301049050919050565b600082821b905092915050565b600060088302620009317fffffffffffffffffffffffffffffffffffffffffffffffffffffffffffffffff82620008f2565b6200093d8683620008f2565b95508019841693508086168417925050509392505050565b6000819050919050565b6000819050919050565b60006200098a620009846200097e8462000955565b6200095f565b62000955565b9050919050565b6000819050919050565b620009a68362000969565b620009be620009b58262000991565b848454620008ff565b825550505050565b600090565b620009d5620009c6565b620009e28184846200099b565b505050565b5b8181101562000a0a57620009fe600082620009cb565b600181019050620009e8565b5050565b601f82111562000a595762000a2381620008cd565b62000a2e84620008e2565b8101602085101562000a3e578190505b62000a5662000a4d85620008e2565b830182620009e7565b50505b505050565b600082821c905092915050565b600062000a7e6000198460080262000a5e565b1980831691505092915050565b600062000a99838362000a6b565b9150826002028217905092915050565b62000ab4826200085e565b67ffffffffffffffff81111562000ad05762000acf6200045d565b5b62000adc825462000898565b62000ae982828562000a0e565b600060209050601f83116001811462000b21576000841562000b0c578287015190505b62000b18858262000a8b565b86555062000b88565b601f19841662000b3186620008cd565b60005b8281101562000b5b5784890151825560018201915060208501945060208101905062000b34565b8683101562000b7b578489015162000b77601f89168262000a6b565b8355505b6001600288020188555050505b505050505050565b7f676e6f7369730000000000000000000000000000000000000000000000000000600082015250565b600062000bc8600683620007ec565b915062000bd58262000b90565b600682019050919050565b600062000bed8262000bb9565b9150819050919050565b7f7363726f6c6c0000000000000000000000000000000000000000000000000000600082015250565b600062000c2f600683620007ec565b915062000c3c8262000bf7565b600682019050919050565b600062000c548262000c20565b9150819050919050565b7f6f7074696d69736d000000000000000000000000000000000000000000000000600082015250565b600062000c96600883620007ec565b915062000ca38262000c5e565b600882019050919050565b600062000cbb8262000c87565b9150819050919050565b6118c78062000cd56000396000f3fe608060405234801561001057600080fd5b50600436106100f55760003560e01c8063c5a0cc3011610097578063ee67cc2a11610066578063ee67cc2a1461024c578063f1bd6f0a1461027c578063f2fde38b14610298578063f3c61d6b146102b4576100f5565b8063c5a0cc30146101d8578063c753a9c9146101f4578063d5438eae14610210578063de523cf31461022e576100f5565b80633f063469116100d35780633f0634691461016457806356d5d47514610194578063715018a6146101b05780638da5cb5b146101ba576100f5565b80630e72cc06146100fa5780632cf7bc471461011657806339bb4ad914610146575b600080fd5b610114600480360381019061010f9190610c3b565b6102d0565b005b610130600480360381019061012b9190610dae565b6102e4565b60405161013d9190610e76565b60405180910390f35b61014e61039a565b60405161015b9190610ef7565b60405180910390f35b61017e60048036038101906101799190610f4e565b6103c0565b60405161018b9190610e76565b60405180910390f35b6101ae60048036038101906101a99190611052565b610460565b005b6101b8610588565b005b6101c261059c565b6040516101cf91906110d0565b60405180910390f35b6101f260048036038101906101ed91906110eb565b6105c6565b005b61020e60048036038101906102099190611147565b61062f565b005b610218610668565b60405161022591906111c4565b60405180910390f35b61023661068e565b6040516102439190611200565b60405180910390f35b61026660048036038101906102619190610dae565b6106b4565b60405161027391906110d0565b60405180910390f35b61029660048036038101906102919190610c3b565b6106fd565b005b6102b260048036038101906102ad9190610c3b565b610711565b005b6102ce60048036038101906102c99190610c3b565b610794565b005b6102d86107a8565b6102e181610826565b50565b609a8180516020810182018051848252602083016020850120818352809550505050505060009150905080546103199061124a565b80601f01602080910402602001604051908101604052809291908181526020018280546103459061124a565b80156103925780601f1061036757610100808354040283529160200191610392565b820191906000526020600020905b81548152906001019060200180831161037557829003601f168201915b505050505081565b606660009054906101000a900473ffffffffffffffffffffffffffffffffffffffff1681565b609960205280600052604060002060009150905080546103df9061124a565b80601f016020809104026020016040519081016040528092919081815260200182805461040b9061124a565b80156104585780601f1061042d57610100808354040283529160200191610458565b820191906000526020600020905b81548152906001019060200180831161043b57829003601f168201915b505050505081565b606560009054906101000a900473ffffffffffffffffffffffffffffffffffffffff1673ffffffffffffffffffffffffffffffffffffffff163373ffffffffffffffffffffffffffffffffffffffff16146104f0576040517f08c379a00000000000000000000000000000000000000000000000000000000081526004016104e7906112c7565b60405180910390fd5b60006104fb8261092c565b9050609960008563ffffffff1663ffffffff168152602001908152602001600020609a8260405161052c9190611323565b908152602001604051809103902090816105469190611511565b507f6fd153f8513020a7c868fe1cad8971a11c07eed025f7c124837493f7383dc06284848360405161057a93929190611617565b60405180910390a150505050565b6105906107a8565b61059a6000610936565b565b6000603360009054906101000a900473ffffffffffffffffffffffffffffffffffffffff16905090565b6105ce6107a8565b806098836040516105df9190611323565b908152602001604051809103902060006101000a81548173ffffffffffffffffffffffffffffffffffffffff021916908373ffffffffffffffffffffffffffffffffffffffff1602179055505050565b6106376107a8565b81609960008363ffffffff1663ffffffff16815260200190815260200160002090816106639190611655565b505050565b606560009054906101000a900473ffffffffffffffffffffffffffffffffffffffff1681565b606760009054906101000a900473ffffffffffffffffffffffffffffffffffffffff1681565b6098818051602081018201805184825260208301602085012081835280955050505050506000915054906101000a900473ffffffffffffffffffffffffffffffffffffffff1681565b6107056107a8565b61070e816109fc565b50565b6107196107a8565b600073ffffffffffffffffffffffffffffffffffffffff168173ffffffffffffffffffffffffffffffffffffffff1603610788576040517f08c379a000000000000000000000000000000000000000000000000000000000815260040161077f90611799565b60405180910390fd5b61079181610936565b50565b61079c6107a8565b6107a581610acd565b50565b6107b0610b9e565b73ffffffffffffffffffffffffffffffffffffffff166107ce61059c565b73ffffffffffffffffffffffffffffffffffffffff1614610824576040517f08c379a000000000000000000000000000000000000000000000000000000000815260040161081b90611805565b60405180910390fd5b565b600073ffffffffffffffffffffffffffffffffffffffff168173ffffffffffffffffffffffffffffffffffffffff161480610866575061086581610ba6565b5b6108a5576040517f08c379a000000000000000000000000000000000000000000000000000000000815260040161089c90611871565b60405180910390fd5b80606760006101000a81548173ffffffffffffffffffffffffffffffffffffffff021916908373ffffffffffffffffffffffffffffffffffffffff1602179055508073ffffffffffffffffffffffffffffffffffffffff167ffec811ed4e60aebdaf7a79cad8a97196bf56e35362f039705598226d30c9d24860405160405180910390a250565b6060819050919050565b6000603360009054906101000a900473ffffffffffffffffffffffffffffffffffffffff16905081603360006101000a81548173ffffffffffffffffffffffffffffffffffffffff021916908373ffffffffffffffffffffffffffffffffffffffff1602179055508173ffffffffffffffffffffffffffffffffffffffff168173ffffffffffffffffffffffffffffffffffffffff167f8be0079c531659141344cd1fd0a4f28419497f9722a3daafe3b4186f6b6457e060405160405180910390a35050565b80610a0681610ba6565b610a45576040517f08c379a0000000000000000000000000000000000000000000000000000000008152600401610a3c90611871565b60405180910390fd5b81606660006101000a81548173ffffffffffffffffffffffffffffffffffffffff021916908373ffffffffffffffffffffffffffffffffffffffff1602179055508173ffffffffffffffffffffffffffffffffffffffff167fb87f5a0bface22cde699143559fb99f990ae54eea236995fc54178af91af859f60405160405180910390a25050565b80610ad781610ba6565b610b16576040517f08c379a0000000000000000000000000000000000000000000000000000000008152600401610b0d90611871565b60405180910390fd5b81606560006101000a81548173ffffffffffffffffffffffffffffffffffffffff021916908373ffffffffffffffffffffffffffffffffffffffff1602179055508173ffffffffffffffffffffffffffffffffffffffff167f7a61e573722ff8b205c8962b59d37e7d30573f368965597a844a94872204ebd760405160405180910390a25050565b600033905090565b6000808273ffffffffffffffffffffffffffffffffffffffff163b119050919050565b6000604051905090565b600080fd5b600080fd5b600073ffffffffffffffffffffffffffffffffffffffff82169050919050565b6000610c0882610bdd565b9050919050565b610c1881610bfd565b8114610c2357600080fd5b50565b600081359050610c3581610c0f565b92915050565b600060208284031215610c5157610c50610bd3565b5b6000610c5f84828501610c26565b91505092915050565b600080fd5b600080fd5b6000601f19601f8301169050919050565b7f4e487b7100000000000000000000000000000000000000000000000000000000600052604160045260246000fd5b610cbb82610c72565b810181811067ffffffffffffffff82111715610cda57610cd9610c83565b5b80604052505050565b6000610ced610bc9565b9050610cf98282610cb2565b919050565b600067ffffffffffffffff821115610d1957610d18610c83565b5b610d2282610c72565b9050602081019050919050565b82818337600083830152505050565b6000610d51610d4c84610cfe565b610ce3565b905082815260208101848484011115610d6d57610d6c610c6d565b5b610d78848285610d2f565b509392505050565b600082601f830112610d9557610d94610c68565b5b8135610da5848260208601610d3e565b91505092915050565b600060208284031215610dc457610dc3610bd3565b5b600082013567ffffffffffffffff811115610de257610de1610bd8565b5b610dee84828501610d80565b91505092915050565b600081519050919050565b600082825260208201905092915050565b60005b83811015610e31578082015181840152602081019050610e16565b60008484015250505050565b6000610e4882610df7565b610e528185610e02565b9350610e62818560208601610e13565b610e6b81610c72565b840191505092915050565b60006020820190508181036000830152610e908184610e3d565b905092915050565b6000819050919050565b6000610ebd610eb8610eb384610bdd565b610e98565b610bdd565b9050919050565b6000610ecf82610ea2565b9050919050565b6000610ee182610ec4565b9050919050565b610ef181610ed6565b82525050565b6000602082019050610f0c6000830184610ee8565b92915050565b600063ffffffff82169050919050565b610f2b81610f12565b8114610f3657600080fd5b50565b600081359050610f4881610f22565b92915050565b600060208284031215610f6457610f63610bd3565b5b6000610f7284828501610f39565b91505092915050565b6000819050919050565b610f8e81610f7b565b8114610f9957600080fd5b50565b600081359050610fab81610f85565b92915050565b600067ffffffffffffffff821115610fcc57610fcb610c83565b5b610fd582610c72565b9050602081019050919050565b6000610ff5610ff084610fb1565b610ce3565b90508281526020810184848401111561101157611010610c6d565b5b61101c848285610d2f565b509392505050565b600082601f83011261103957611038610c68565b5b8135611049848260208601610fe2565b91505092915050565b60008060006060848603121561106b5761106a610bd3565b5b600061107986828701610f39565b935050602061108a86828701610f9c565b925050604084013567ffffffffffffffff8111156110ab576110aa610bd8565b5b6110b786828701611024565b9150509250925092565b6110ca81610bfd565b82525050565b60006020820190506110e560008301846110c1565b92915050565b6000806040838503121561110257611101610bd3565b5b600083013567ffffffffffffffff8111156111205761111f610bd8565b5b61112c85828601610d80565b925050602061113d85828601610c26565b9150509250929050565b6000806040838503121561115e5761115d610bd3565b5b600083013567ffffffffffffffff81111561117c5761117b610bd8565b5b61118885828601610d80565b925050602061119985828601610f39565b9150509250929050565b60006111ae82610ec4565b9050919050565b6111be816111a3565b82525050565b60006020820190506111d960008301846111b5565b92915050565b60006111ea82610ec4565b9050919050565b6111fa816111df565b82525050565b600060208201905061121560008301846111f1565b92915050565b7f4e487b7100000000000000000000000000000000000000000000000000000000600052602260045260246000fd5b6000600282049050600182168061126257607f821691505b6020821081036112755761127461121b565b5b50919050565b7f216d61696c626f78000000000000000000000000000000000000000000000000600082015250565b60006112b1600883610e02565b91506112bc8261127b565b602082019050919050565b600060208201905081810360008301526112e0816112a4565b9050919050565b600081905092915050565b60006112fd82610df7565b61130781856112e7565b9350611317818560208601610e13565b80840191505092915050565b600061132f82846112f2565b915081905092915050565b6000815490506113498161124a565b9050919050565b60008190508160005260206000209050919050565b60008190508160005260206000209050919050565b60006020601f8301049050919050565b600082821b905092915050565b6000600883026113c77fffffffffffffffffffffffffffffffffffffffffffffffffffffffffffffffff8261138a565b6113d1868361138a565b95508019841693508086168417925050509392505050565b6000819050919050565b600061140e611409611404846113e9565b610e98565b6113e9565b9050919050565b6000819050919050565b611428836113f3565b61143c61143482611415565b848454611397565b825550505050565b600090565b611451611444565b61145c81848461141f565b505050565b5b8181101561148057611475600082611449565b600181019050611462565b5050565b601f8211156114c55761149681611350565b61149f8461137a565b810160208510156114ae578190505b6114c26114ba8561137a565b830182611461565b50505b505050565b600082821c905092915050565b60006114e8600019846008026114ca565b1980831691505092915050565b600061150183836114d7565b9150826002028217905092915050565b81810361151f5750506115f7565b6115288261133a565b67ffffffffffffffff81111561154157611540610c83565b5b61154b825461124a565b611556828285611484565b6000601f8311600181146115855760008415611573578287015490505b61157d85826114f5565b8655506115f0565b601f19841661159387611365565b965061159e86611350565b60005b828110156115c6578489015482556001820191506001850194506020810190506115a1565b868310156115e357848901546115df601f8916826114d7565b8355505b6001600288020188555050505b5050505050505b565b61160281610f12565b82525050565b61161181610f7b565b82525050565b600060608201905061162c60008301866115f9565b6116396020830185611608565b818103604083015261164b8184610e3d565b9050949350505050565b61165e82610df7565b67ffffffffffffffff81111561167757611676610c83565b5b611681825461124a565b61168c828285611484565b600060209050601f8311600181146116bf57600084156116ad578287015190505b6116b785826114f5565b86555061171f565b601f1984166116cd86611350565b60005b828110156116f5578489015182556001820191506020850194506020810190506116d0565b86831015611712578489015161170e601f8916826114d7565b8355505b6001600288020188555050505b505050505050565b7f4f776e61626c653a206e6577206f776e657220697320746865207a65726f206160008201527f6464726573730000000000000000000000000000000000000000000000000000602082015250565b6000611783602683610e02565b915061178e82611727565b604082019050919050565b600060208201905081810360008301526117b281611776565b9050919050565b7f4f776e61626c653a2063616c6c6572206973206e6f7420746865206f776e6572600082015250565b60006117ef602083610e02565b91506117fa826117b9565b602082019050919050565b6000602082019050818103600083015261181e816117e2565b9050919050565b7f21636f6e74726163740000000000000000000000000000000000000000000000600082015250565b600061185b600983610e02565b915061186682611825565b602082019050919050565b6000602082019050818103600083015261188a8161184e565b905091905056fea264697066735822122085c94017391dd2666f1896cf2d7fa73e92822c306fbebf2d2734987d8b6bbc3a64736f6c63430008120033","opcodes":"PUSH1 0x80 PUSH1 0x40 MSTORE CALLVALUE DUP1 ISZERO PUSH3 0x11 JUMPI PUSH1 0x0 DUP1 REVERT JUMPDEST POP PUSH1 0x40 MLOAD PUSH3 0x259C CODESIZE SUB DUP1 PUSH3 0x259C DUP4 CODECOPY DUP2 DUP2 ADD PUSH1 0x40 MSTORE DUP2 ADD SWAP1 PUSH3 0x37 SWAP2 SWAP1 PUSH3 0x738 JUMP JUMPDEST DUP2 PUSH1 0x0 DUP2 MLOAD DUP2 LT PUSH3 0x4E JUMPI PUSH3 0x4D PUSH3 0x7BD JUMP JUMPDEST JUMPDEST PUSH1 0x20 MUL PUSH1 0x20 ADD ADD MLOAD PUSH1 0x98 PUSH1 0x40 MLOAD PUSH3 0x66 SWAP1 PUSH3 0x847 JUMP JUMPDEST SWAP1 DUP2 MSTORE PUSH1 0x20 ADD PUSH1 0x40 MLOAD DUP1 SWAP2 SUB SWAP1 KECCAK256 PUSH1 0x0 PUSH2 0x100 EXP DUP2 SLOAD DUP2 PUSH20 0xFFFFFFFFFFFFFFFFFFFFFFFFFFFFFFFFFFFFFFFF MUL NOT AND SWAP1 DUP4 PUSH20 0xFFFFFFFFFFFFFFFFFFFFFFFFFFFFFFFFFFFFFFFF AND MUL OR SWAP1 SSTORE POP PUSH1 0x40 MLOAD DUP1 PUSH1 0x40 ADD PUSH1 0x40 MSTORE DUP1 PUSH1 0x12 DUP2 MSTORE PUSH1 0x20 ADD PUSH32 0x66696C65636F696E487970657273706163650000000000000000000000000000 DUP2 MSTORE POP PUSH1 0x99 PUSH1 0x0 DUP4 PUSH1 0x0 DUP2 MLOAD DUP2 LT PUSH3 0x103 JUMPI PUSH3 0x102 PUSH3 0x7BD JUMP JUMPDEST JUMPDEST PUSH1 0x20 MUL PUSH1 0x20 ADD ADD MLOAD PUSH4 0xFFFFFFFF AND PUSH4 0xFFFFFFFF AND DUP2 MSTORE PUSH1 0x20 ADD SWAP1 DUP2 MSTORE PUSH1 0x20 ADD PUSH1 0x0 KECCAK256 SWAP1 DUP2 PUSH3 0x133 SWAP2 SWAP1 PUSH3 0xAA9 JUMP JUMPDEST POP DUP2 PUSH1 0x1 DUP2 MLOAD DUP2 LT PUSH3 0x14B JUMPI PUSH3 0x14A PUSH3 0x7BD JUMP JUMPDEST JUMPDEST PUSH1 0x20 MUL PUSH1 0x20 ADD ADD MLOAD PUSH1 0x98 PUSH1 0x40 MLOAD PUSH3 0x163 SWAP1 PUSH3 0xBE0 JUMP JUMPDEST SWAP1 DUP2 MSTORE PUSH1 0x20 ADD PUSH1 0x40 MLOAD DUP1 SWAP2 SUB SWAP1 KECCAK256 PUSH1 0x0 PUSH2 0x100 EXP DUP2 SLOAD DUP2 PUSH20 0xFFFFFFFFFFFFFFFFFFFFFFFFFFFFFFFFFFFFFFFF MUL NOT AND SWAP1 DUP4 PUSH20 0xFFFFFFFFFFFFFFFFFFFFFFFFFFFFFFFFFFFFFFFF AND MUL OR SWAP1 SSTORE POP PUSH1 0x40 MLOAD DUP1 PUSH1 0x40 ADD PUSH1 0x40 MSTORE DUP1 PUSH1 0x6 DUP2 MSTORE PUSH1 0x20 ADD PUSH32 0x676E6F7369730000000000000000000000000000000000000000000000000000 DUP2 MSTORE POP PUSH1 0x99 PUSH1 0x0 DUP4 PUSH1 0x1 DUP2 MLOAD DUP2 LT PUSH3 0x200 JUMPI PUSH3 0x1FF PUSH3 0x7BD JUMP JUMPDEST JUMPDEST PUSH1 0x20 MUL PUSH1 0x20 ADD ADD MLOAD PUSH4 0xFFFFFFFF AND PUSH4 0xFFFFFFFF AND DUP2 MSTORE PUSH1 0x20 ADD SWAP1 DUP2 MSTORE PUSH1 0x20 ADD PUSH1 0x0 KECCAK256 SWAP1 DUP2 PUSH3 0x230 SWAP2 SWAP1 PUSH3 0xAA9 JUMP JUMPDEST POP DUP2 PUSH1 0x2 DUP2 MLOAD DUP2 LT PUSH3 0x248 JUMPI PUSH3 0x247 PUSH3 0x7BD JUMP JUMPDEST JUMPDEST PUSH1 0x20 MUL PUSH1 0x20 ADD ADD MLOAD PUSH1 0x98 PUSH1 0x40 MLOAD PUSH3 0x260 SWAP1 PUSH3 0xC47 JUMP JUMPDEST SWAP1 DUP2 MSTORE PUSH1 0x20 ADD PUSH1 0x40 MLOAD DUP1 SWAP2 SUB SWAP1 KECCAK256 PUSH1 0x0 PUSH2 0x100 EXP DUP2 SLOAD DUP2 PUSH20 0xFFFFFFFFFFFFFFFFFFFFFFFFFFFFFFFFFFFFFFFF MUL NOT AND SWAP1 DUP4 PUSH20 0xFFFFFFFFFFFFFFFFFFFFFFFFFFFFFFFFFFFFFFFF AND MUL OR SWAP1 SSTORE POP PUSH1 0x40 MLOAD DUP1 PUSH1 0x40 ADD PUSH1 0x40 MSTORE DUP1 PUSH1 0x6 DUP2 MSTORE PUSH1 0x20 ADD PUSH32 0x7363726F6C6C0000000000000000000000000000000000000000000000000000 DUP2 MSTORE POP PUSH1 0x99 PUSH1 0x0 DUP4 PUSH1 0x2 DUP2 MLOAD DUP2 LT PUSH3 0x2FD JUMPI PUSH3 0x2FC PUSH3 0x7BD JUMP JUMPDEST JUMPDEST PUSH1 0x20 MUL PUSH1 0x20 ADD ADD MLOAD PUSH4 0xFFFFFFFF AND PUSH4 0xFFFFFFFF AND DUP2 MSTORE PUSH1 0x20 ADD SWAP1 DUP2 MSTORE PUSH1 0x20 ADD PUSH1 0x0 KECCAK256 SWAP1 DUP2 PUSH3 0x32D SWAP2 SWAP1 PUSH3 0xAA9 JUMP JUMPDEST POP DUP2 PUSH1 0x3 DUP2 MLOAD DUP2 LT PUSH3 0x345 JUMPI PUSH3 0x344 PUSH3 0x7BD JUMP JUMPDEST JUMPDEST PUSH1 0x20 MUL PUSH1 0x20 ADD ADD MLOAD PUSH1 0x98 PUSH1 0x40 MLOAD PUSH3 0x35D SWAP1 PUSH3 0xCAE JUMP JUMPDEST SWAP1 DUP2 MSTORE PUSH1 0x20 ADD PUSH1 0x40 MLOAD DUP1 SWAP2 SUB SWAP1 KECCAK256 PUSH1 0x0 PUSH2 0x100 EXP DUP2 SLOAD DUP2 PUSH20 0xFFFFFFFFFFFFFFFFFFFFFFFFFFFFFFFFFFFFFFFF MUL NOT AND SWAP1 DUP4 PUSH20 0xFFFFFFFFFFFFFFFFFFFFFFFFFFFFFFFFFFFFFFFF AND MUL OR SWAP1 SSTORE POP PUSH1 0x40 MLOAD DUP1 PUSH1 0x40 ADD PUSH1 0x40 MSTORE DUP1 PUSH1 0x8 DUP2 MSTORE PUSH1 0x20 ADD PUSH32 0x6F7074696D69736D000000000000000000000000000000000000000000000000 DUP2 MSTORE POP PUSH1 0x99 PUSH1 0x0 DUP4 PUSH1 0x3 DUP2 MLOAD DUP2 LT PUSH3 0x3FA JUMPI PUSH3 0x3F9 PUSH3 0x7BD JUMP JUMPDEST JUMPDEST PUSH1 0x20 MUL PUSH1 0x20 ADD ADD MLOAD PUSH4 0xFFFFFFFF AND PUSH4 0xFFFFFFFF AND DUP2 MSTORE PUSH1 0x20 ADD SWAP1 DUP2 MSTORE PUSH1 0x20 ADD PUSH1 0x0 KECCAK256 SWAP1 DUP2 PUSH3 0x42A SWAP2 SWAP1 PUSH3 0xAA9 JUMP JUMPDEST POP POP POP PUSH3 0xCC5 JUMP JUMPDEST PUSH1 0x0 PUSH1 0x40 MLOAD SWAP1 POP SWAP1 JUMP JUMPDEST PUSH1 0x0 DUP1 REVERT JUMPDEST PUSH1 0x0 DUP1 REVERT JUMPDEST PUSH1 0x0 DUP1 REVERT JUMPDEST PUSH1 0x0 PUSH1 0x1F NOT PUSH1 0x1F DUP4 ADD AND SWAP1 POP SWAP2 SWAP1 POP JUMP JUMPDEST PUSH32 0x4E487B7100000000000000000000000000000000000000000000000000000000 PUSH1 0x0 MSTORE PUSH1 0x41 PUSH1 0x4 MSTORE PUSH1 0x24 PUSH1 0x0 REVERT JUMPDEST PUSH3 0x497 DUP3 PUSH3 0x44C JUMP JUMPDEST DUP2 ADD DUP2 DUP2 LT PUSH8 0xFFFFFFFFFFFFFFFF DUP3 GT OR ISZERO PUSH3 0x4B9 JUMPI PUSH3 0x4B8 PUSH3 0x45D JUMP JUMPDEST JUMPDEST DUP1 PUSH1 0x40 MSTORE POP POP POP JUMP JUMPDEST PUSH1 0x0 PUSH3 0x4CE PUSH3 0x433 JUMP JUMPDEST SWAP1 POP PUSH3 0x4DC DUP3 DUP3 PUSH3 0x48C JUMP JUMPDEST SWAP2 SWAP1 POP JUMP JUMPDEST PUSH1 0x0 PUSH8 0xFFFFFFFFFFFFFFFF DUP3 GT ISZERO PUSH3 0x4FF JUMPI PUSH3 0x4FE PUSH3 0x45D JUMP JUMPDEST JUMPDEST PUSH1 0x20 DUP3 MUL SWAP1 POP PUSH1 0x20 DUP2 ADD SWAP1 POP SWAP2 SWAP1 POP JUMP JUMPDEST PUSH1 0x0 DUP1 REVERT JUMPDEST PUSH1 0x0 PUSH20 0xFFFFFFFFFFFFFFFFFFFFFFFFFFFFFFFFFFFFFFFF DUP3 AND SWAP1 POP SWAP2 SWAP1 POP JUMP JUMPDEST PUSH1 0x0 PUSH3 0x542 DUP3 PUSH3 0x515 JUMP JUMPDEST SWAP1 POP SWAP2 SWAP1 POP JUMP JUMPDEST PUSH3 0x554 DUP2 PUSH3 0x535 JUMP JUMPDEST DUP2 EQ PUSH3 0x560 JUMPI PUSH1 0x0 DUP1 REVERT JUMPDEST POP JUMP JUMPDEST PUSH1 0x0 DUP2 MLOAD SWAP1 POP PUSH3 0x574 DUP2 PUSH3 0x549 JUMP JUMPDEST SWAP3 SWAP2 POP POP JUMP JUMPDEST PUSH1 0x0 PUSH3 0x591 PUSH3 0x58B DUP5 PUSH3 0x4E1 JUMP JUMPDEST PUSH3 0x4C2 JUMP JUMPDEST SWAP1 POP DUP1 DUP4 DUP3 MSTORE PUSH1 0x20 DUP3 ADD SWAP1 POP PUSH1 0x20 DUP5 MUL DUP4 ADD DUP6 DUP2 GT ISZERO PUSH3 0x5B7 JUMPI PUSH3 0x5B6 PUSH3 0x510 JUMP JUMPDEST JUMPDEST DUP4 JUMPDEST DUP2 DUP2 LT ISZERO PUSH3 0x5E4 JUMPI DUP1 PUSH3 0x5CF DUP9 DUP3 PUSH3 0x563 JUMP JUMPDEST DUP5 MSTORE PUSH1 0x20 DUP5 ADD SWAP4 POP POP PUSH1 0x20 DUP2 ADD SWAP1 POP PUSH3 0x5B9 JUMP JUMPDEST POP POP POP SWAP4 SWAP3 POP POP POP JUMP JUMPDEST PUSH1 0x0 DUP3 PUSH1 0x1F DUP4 ADD SLT PUSH3 0x606 JUMPI PUSH3 0x605 PUSH3 0x447 JUMP JUMPDEST JUMPDEST DUP2 MLOAD PUSH3 0x618 DUP5 DUP3 PUSH1 0x20 DUP7 ADD PUSH3 0x57A JUMP JUMPDEST SWAP2 POP POP SWAP3 SWAP2 POP POP JUMP JUMPDEST PUSH1 0x0 PUSH8 0xFFFFFFFFFFFFFFFF DUP3 GT ISZERO PUSH3 0x63F JUMPI PUSH3 0x63E PUSH3 0x45D JUMP JUMPDEST JUMPDEST PUSH1 0x20 DUP3 MUL SWAP1 POP PUSH1 0x20 DUP2 ADD SWAP1 POP SWAP2 SWAP1 POP JUMP JUMPDEST PUSH1 0x0 PUSH4 0xFFFFFFFF DUP3 AND SWAP1 POP SWAP2 SWAP1 POP JUMP JUMPDEST PUSH3 0x66B DUP2 PUSH3 0x650 JUMP JUMPDEST DUP2 EQ PUSH3 0x677 JUMPI PUSH1 0x0 DUP1 REVERT JUMPDEST POP JUMP JUMPDEST PUSH1 0x0 DUP2 MLOAD SWAP1 POP PUSH3 0x68B DUP2 PUSH3 0x660 JUMP JUMPDEST SWAP3 SWAP2 POP POP JUMP JUMPDEST PUSH1 0x0 PUSH3 0x6A8 PUSH3 0x6A2 DUP5 PUSH3 0x621 JUMP JUMPDEST PUSH3 0x4C2 JUMP JUMPDEST SWAP1 POP DUP1 DUP4 DUP3 MSTORE PUSH1 0x20 DUP3 ADD SWAP1 POP PUSH1 0x20 DUP5 MUL DUP4 ADD DUP6 DUP2 GT ISZERO PUSH3 0x6CE JUMPI PUSH3 0x6CD PUSH3 0x510 JUMP JUMPDEST JUMPDEST DUP4 JUMPDEST DUP2 DUP2 LT ISZERO PUSH3 0x6FB JUMPI DUP1 PUSH3 0x6E6 DUP9 DUP3 PUSH3 0x67A JUMP JUMPDEST DUP5 MSTORE PUSH1 0x20 DUP5 ADD SWAP4 POP POP PUSH1 0x20 DUP2 ADD SWAP1 POP PUSH3 0x6D0 JUMP JUMPDEST POP POP POP SWAP4 SWAP3 POP POP POP JUMP JUMPDEST PUSH1 0x0 DUP3 PUSH1 0x1F DUP4 ADD SLT PUSH3 0x71D JUMPI PUSH3 0x71C PUSH3 0x447 JUMP JUMPDEST JUMPDEST DUP2 MLOAD PUSH3 0x72F DUP5 DUP3 PUSH1 0x20 DUP7 ADD PUSH3 0x691 JUMP JUMPDEST SWAP2 POP POP SWAP3 SWAP2 POP POP JUMP JUMPDEST PUSH1 0x0 DUP1 PUSH1 0x40 DUP4 DUP6 SUB SLT ISZERO PUSH3 0x752 JUMPI PUSH3 0x751 PUSH3 0x43D JUMP JUMPDEST JUMPDEST PUSH1 0x0 DUP4 ADD MLOAD PUSH8 0xFFFFFFFFFFFFFFFF DUP2 GT ISZERO PUSH3 0x773 JUMPI PUSH3 0x772 PUSH3 0x442 JUMP JUMPDEST JUMPDEST PUSH3 0x781 DUP6 DUP3 DUP7 ADD PUSH3 0x5EE JUMP JUMPDEST SWAP3 POP POP PUSH1 0x20 DUP4 ADD MLOAD PUSH8 0xFFFFFFFFFFFFFFFF DUP2 GT ISZERO PUSH3 0x7A5 JUMPI PUSH3 0x7A4 PUSH3 0x442 JUMP JUMPDEST JUMPDEST PUSH3 0x7B3 DUP6 DUP3 DUP7 ADD PUSH3 0x705 JUMP JUMPDEST SWAP2 POP POP SWAP3 POP SWAP3 SWAP1 POP JUMP JUMPDEST PUSH32 0x4E487B7100000000000000000000000000000000000000000000000000000000 PUSH1 0x0 MSTORE PUSH1 0x32 PUSH1 0x4 MSTORE PUSH1 0x24 PUSH1 0x0 REVERT JUMPDEST PUSH1 0x0 DUP2 SWAP1 POP SWAP3 SWAP2 POP POP JUMP JUMPDEST PUSH32 0x66696C65636F696E487970657273706163650000000000000000000000000000 PUSH1 0x0 DUP3 ADD MSTORE POP JUMP JUMPDEST PUSH1 0x0 PUSH3 0x82F PUSH1 0x12 DUP4 PUSH3 0x7EC JUMP JUMPDEST SWAP2 POP PUSH3 0x83C DUP3 PUSH3 0x7F7 JUMP JUMPDEST PUSH1 0x12 DUP3 ADD SWAP1 POP SWAP2 SWAP1 POP JUMP JUMPDEST PUSH1 0x0 PUSH3 0x854 DUP3 PUSH3 0x820 JUMP JUMPDEST SWAP2 POP DUP2 SWAP1 POP SWAP2 SWAP1 POP JUMP JUMPDEST PUSH1 0x0 DUP2 MLOAD SWAP1 POP SWAP2 SWAP1 POP JUMP JUMPDEST PUSH32 0x4E487B7100000000000000000000000000000000000000000000000000000000 PUSH1 0x0 MSTORE PUSH1 0x22 PUSH1 0x4 MSTORE PUSH1 0x24 PUSH1 0x0 REVERT JUMPDEST PUSH1 0x0 PUSH1 0x2 DUP3 DIV SWAP1 POP PUSH1 0x1 DUP3 AND DUP1 PUSH3 0x8B1 JUMPI PUSH1 0x7F DUP3 AND SWAP2 POP JUMPDEST PUSH1 0x20 DUP3 LT DUP2 SUB PUSH3 0x8C7 JUMPI PUSH3 0x8C6 PUSH3 0x869 JUMP JUMPDEST JUMPDEST POP SWAP2 SWAP1 POP JUMP JUMPDEST PUSH1 0x0 DUP2 SWAP1 POP DUP2 PUSH1 0x0 MSTORE PUSH1 0x20 PUSH1 0x0 KECCAK256 SWAP1 POP SWAP2 SWAP1 POP JUMP JUMPDEST PUSH1 0x0 PUSH1 0x20 PUSH1 0x1F DUP4 ADD DIV SWAP1 POP SWAP2 SWAP1 POP JUMP JUMPDEST PUSH1 0x0 DUP3 DUP3 SHL SWAP1 POP SWAP3 SWAP2 POP POP JUMP JUMPDEST PUSH1 0x0 PUSH1 0x8 DUP4 MUL PUSH3 0x931 PUSH32 0xFFFFFFFFFFFFFFFFFFFFFFFFFFFFFFFFFFFFFFFFFFFFFFFFFFFFFFFFFFFFFFFF DUP3 PUSH3 0x8F2 JUMP JUMPDEST PUSH3 0x93D DUP7 DUP4 PUSH3 0x8F2 JUMP JUMPDEST SWAP6 POP DUP1 NOT DUP5 AND SWAP4 POP DUP1 DUP7 AND DUP5 OR SWAP3 POP POP POP SWAP4 SWAP3 POP POP POP JUMP JUMPDEST PUSH1 0x0 DUP2 SWAP1 POP SWAP2 SWAP1 POP JUMP JUMPDEST PUSH1 0x0 DUP2 SWAP1 POP SWAP2 SWAP1 POP JUMP JUMPDEST PUSH1 0x0 PUSH3 0x98A PUSH3 0x984 PUSH3 0x97E DUP5 PUSH3 0x955 JUMP JUMPDEST PUSH3 0x95F JUMP JUMPDEST PUSH3 0x955 JUMP JUMPDEST SWAP1 POP SWAP2 SWAP1 POP JUMP JUMPDEST PUSH1 0x0 DUP2 SWAP1 POP SWAP2 SWAP1 POP JUMP JUMPDEST PUSH3 0x9A6 DUP4 PUSH3 0x969 JUMP JUMPDEST PUSH3 0x9BE PUSH3 0x9B5 DUP3 PUSH3 0x991 JUMP JUMPDEST DUP5 DUP5 SLOAD PUSH3 0x8FF JUMP JUMPDEST DUP3 SSTORE POP POP POP POP JUMP JUMPDEST PUSH1 0x0 SWAP1 JUMP JUMPDEST PUSH3 0x9D5 PUSH3 0x9C6 JUMP JUMPDEST PUSH3 0x9E2 DUP2 DUP5 DUP5 PUSH3 0x99B JUMP JUMPDEST POP POP POP JUMP JUMPDEST JUMPDEST DUP2 DUP2 LT ISZERO PUSH3 0xA0A JUMPI PUSH3 0x9FE PUSH1 0x0 DUP3 PUSH3 0x9CB JUMP JUMPDEST PUSH1 0x1 DUP2 ADD SWAP1 POP PUSH3 0x9E8 JUMP JUMPDEST POP POP JUMP JUMPDEST PUSH1 0x1F DUP3 GT ISZERO PUSH3 0xA59 JUMPI PUSH3 0xA23 DUP2 PUSH3 0x8CD JUMP JUMPDEST PUSH3 0xA2E DUP5 PUSH3 0x8E2 JUMP JUMPDEST DUP2 ADD PUSH1 0x20 DUP6 LT ISZERO PUSH3 0xA3E JUMPI DUP2 SWAP1 POP JUMPDEST PUSH3 0xA56 PUSH3 0xA4D DUP6 PUSH3 0x8E2 JUMP JUMPDEST DUP4 ADD DUP3 PUSH3 0x9E7 JUMP JUMPDEST POP POP JUMPDEST POP POP POP JUMP JUMPDEST PUSH1 0x0 DUP3 DUP3 SHR SWAP1 POP SWAP3 SWAP2 POP POP JUMP JUMPDEST PUSH1 0x0 PUSH3 0xA7E PUSH1 0x0 NOT DUP5 PUSH1 0x8 MUL PUSH3 0xA5E JUMP JUMPDEST NOT DUP1 DUP4 AND SWAP2 POP POP SWAP3 SWAP2 POP POP JUMP JUMPDEST PUSH1 0x0 PUSH3 0xA99 DUP4 DUP4 PUSH3 0xA6B JUMP JUMPDEST SWAP2 POP DUP3 PUSH1 0x2 MUL DUP3 OR SWAP1 POP SWAP3 SWAP2 POP POP JUMP JUMPDEST PUSH3 0xAB4 DUP3 PUSH3 0x85E JUMP JUMPDEST PUSH8 0xFFFFFFFFFFFFFFFF DUP2 GT ISZERO PUSH3 0xAD0 JUMPI PUSH3 0xACF PUSH3 0x45D JUMP JUMPDEST JUMPDEST PUSH3 0xADC DUP3 SLOAD PUSH3 0x898 JUMP JUMPDEST PUSH3 0xAE9 DUP3 DUP3 DUP6 PUSH3 0xA0E JUMP JUMPDEST PUSH1 0x0 PUSH1 0x20 SWAP1 POP PUSH1 0x1F DUP4 GT PUSH1 0x1 DUP2 EQ PUSH3 0xB21 JUMPI PUSH1 0x0 DUP5 ISZERO PUSH3 0xB0C JUMPI DUP3 DUP8 ADD MLOAD SWAP1 POP JUMPDEST PUSH3 0xB18 DUP6 DUP3 PUSH3 0xA8B JUMP JUMPDEST DUP7 SSTORE POP PUSH3 0xB88 JUMP JUMPDEST PUSH1 0x1F NOT DUP5 AND PUSH3 0xB31 DUP7 PUSH3 0x8CD JUMP JUMPDEST PUSH1 0x0 JUMPDEST DUP3 DUP2 LT ISZERO PUSH3 0xB5B JUMPI DUP5 DUP10 ADD MLOAD DUP3 SSTORE PUSH1 0x1 DUP3 ADD SWAP2 POP PUSH1 0x20 DUP6 ADD SWAP5 POP PUSH1 0x20 DUP2 ADD SWAP1 POP PUSH3 0xB34 JUMP JUMPDEST DUP7 DUP4 LT ISZERO PUSH3 0xB7B JUMPI DUP5 DUP10 ADD MLOAD PUSH3 0xB77 PUSH1 0x1F DUP10 AND DUP3 PUSH3 0xA6B JUMP JUMPDEST DUP4 SSTORE POP JUMPDEST PUSH1 0x1 PUSH1 0x2 DUP9 MUL ADD DUP9 SSTORE POP POP POP JUMPDEST POP POP POP POP POP POP JUMP JUMPDEST PUSH32 0x676E6F7369730000000000000000000000000000000000000000000000000000 PUSH1 0x0 DUP3 ADD MSTORE POP JUMP JUMPDEST PUSH1 0x0 PUSH3 0xBC8 PUSH1 0x6 DUP4 PUSH3 0x7EC JUMP JUMPDEST SWAP2 POP PUSH3 0xBD5 DUP3 PUSH3 0xB90 JUMP JUMPDEST PUSH1 0x6 DUP3 ADD SWAP1 POP SWAP2 SWAP1 POP JUMP JUMPDEST PUSH1 0x0 PUSH3 0xBED DUP3 PUSH3 0xBB9 JUMP JUMPDEST SWAP2 POP DUP2 SWAP1 POP SWAP2 SWAP1 POP JUMP JUMPDEST PUSH32 0x7363726F6C6C0000000000000000000000000000000000000000000000000000 PUSH1 0x0 DUP3 ADD MSTORE POP JUMP JUMPDEST PUSH1 0x0 PUSH3 0xC2F PUSH1 0x6 DUP4 PUSH3 0x7EC JUMP JUMPDEST SWAP2 POP PUSH3 0xC3C DUP3 PUSH3 0xBF7 JUMP JUMPDEST PUSH1 0x6 DUP3 ADD SWAP1 POP SWAP2 SWAP1 POP JUMP JUMPDEST PUSH1 0x0 PUSH3 0xC54 DUP3 PUSH3 0xC20 JUMP JUMPDEST SWAP2 POP DUP2 SWAP1 POP SWAP2 SWAP1 POP JUMP JUMPDEST PUSH32 0x6F7074696D69736D000000000000000000000000000000000000000000000000 PUSH1 0x0 DUP3 ADD MSTORE POP JUMP JUMPDEST PUSH1 0x0 PUSH3 0xC96 PUSH1 0x8 DUP4 PUSH3 0x7EC JUMP JUMPDEST SWAP2 POP PUSH3 0xCA3 DUP3 PUSH3 0xC5E JUMP JUMPDEST PUSH1 0x8 DUP3 ADD SWAP1 POP SWAP2 SWAP1 POP JUMP JUMPDEST PUSH1 0x0 PUSH3 0xCBB DUP3 PUSH3 0xC87 JUMP JUMPDEST SWAP2 POP DUP2 SWAP1 POP SWAP2 SWAP1 POP JUMP JUMPDEST PUSH2 0x18C7 DUP1 PUSH3 0xCD5 PUSH1 0x0 CODECOPY PUSH1 0x0 RETURN INVALID PUSH1 0x80 PUSH1 0x40 MSTORE CALLVALUE DUP1 ISZERO PUSH2 0x10 JUMPI PUSH1 0x0 DUP1 REVERT JUMPDEST POP PUSH1 0x4 CALLDATASIZE LT PUSH2 0xF5 JUMPI PUSH1 0x0 CALLDATALOAD PUSH1 0xE0 SHR DUP1 PUSH4 0xC5A0CC30 GT PUSH2 0x97 JUMPI DUP1 PUSH4 0xEE67CC2A GT PUSH2 0x66 JUMPI DUP1 PUSH4 0xEE67CC2A EQ PUSH2 0x24C JUMPI DUP1 PUSH4 0xF1BD6F0A EQ PUSH2 0x27C JUMPI DUP1 PUSH4 0xF2FDE38B EQ PUSH2 0x298 JUMPI DUP1 PUSH4 0xF3C61D6B EQ PUSH2 0x2B4 JUMPI PUSH2 0xF5 JUMP JUMPDEST DUP1 PUSH4 0xC5A0CC30 EQ PUSH2 0x1D8 JUMPI DUP1 PUSH4 0xC753A9C9 EQ PUSH2 0x1F4 JUMPI DUP1 PUSH4 0xD5438EAE EQ PUSH2 0x210 JUMPI DUP1 PUSH4 0xDE523CF3 EQ PUSH2 0x22E JUMPI PUSH2 0xF5 JUMP JUMPDEST DUP1 PUSH4 0x3F063469 GT PUSH2 0xD3 JUMPI DUP1 PUSH4 0x3F063469 EQ PUSH2 0x164 JUMPI DUP1 PUSH4 0x56D5D475 EQ PUSH2 0x194 JUMPI DUP1 PUSH4 0x715018A6 EQ PUSH2 0x1B0 JUMPI DUP1 PUSH4 0x8DA5CB5B EQ PUSH2 0x1BA JUMPI PUSH2 0xF5 JUMP JUMPDEST DUP1 PUSH4 0xE72CC06 EQ PUSH2 0xFA JUMPI DUP1 PUSH4 0x2CF7BC47 EQ PUSH2 0x116 JUMPI DUP1 PUSH4 0x39BB4AD9 EQ PUSH2 0x146 JUMPI JUMPDEST PUSH1 0x0 DUP1 REVERT JUMPDEST PUSH2 0x114 PUSH1 0x4 DUP1 CALLDATASIZE SUB DUP2 ADD SWAP1 PUSH2 0x10F SWAP2 SWAP1 PUSH2 0xC3B JUMP JUMPDEST PUSH2 0x2D0 JUMP JUMPDEST STOP JUMPDEST PUSH2 0x130 PUSH1 0x4 DUP1 CALLDATASIZE SUB DUP2 ADD SWAP1 PUSH2 0x12B SWAP2 SWAP1 PUSH2 0xDAE JUMP JUMPDEST PUSH2 0x2E4 JUMP JUMPDEST PUSH1 0x40 MLOAD PUSH2 0x13D SWAP2 SWAP1 PUSH2 0xE76 JUMP JUMPDEST PUSH1 0x40 MLOAD DUP1 SWAP2 SUB SWAP1 RETURN JUMPDEST PUSH2 0x14E PUSH2 0x39A JUMP JUMPDEST PUSH1 0x40 MLOAD PUSH2 0x15B SWAP2 SWAP1 PUSH2 0xEF7 JUMP JUMPDEST PUSH1 0x40 MLOAD DUP1 SWAP2 SUB SWAP1 RETURN JUMPDEST PUSH2 0x17E PUSH1 0x4 DUP1 CALLDATASIZE SUB DUP2 ADD SWAP1 PUSH2 0x179 SWAP2 SWAP1 PUSH2 0xF4E JUMP JUMPDEST PUSH2 0x3C0 JUMP JUMPDEST PUSH1 0x40 MLOAD PUSH2 0x18B SWAP2 SWAP1 PUSH2 0xE76 JUMP JUMPDEST PUSH1 0x40 MLOAD DUP1 SWAP2 SUB SWAP1 RETURN JUMPDEST PUSH2 0x1AE PUSH1 0x4 DUP1 CALLDATASIZE SUB DUP2 ADD SWAP1 PUSH2 0x1A9 SWAP2 SWAP1 PUSH2 0x1052 JUMP JUMPDEST PUSH2 0x460 JUMP JUMPDEST STOP JUMPDEST PUSH2 0x1B8 PUSH2 0x588 JUMP JUMPDEST STOP JUMPDEST PUSH2 0x1C2 PUSH2 0x59C JUMP JUMPDEST PUSH1 0x40 MLOAD PUSH2 0x1CF SWAP2 SWAP1 PUSH2 0x10D0 JUMP JUMPDEST PUSH1 0x40 MLOAD DUP1 SWAP2 SUB SWAP1 RETURN JUMPDEST PUSH2 0x1F2 PUSH1 0x4 DUP1 CALLDATASIZE SUB DUP2 ADD SWAP1 PUSH2 0x1ED SWAP2 SWAP1 PUSH2 0x10EB JUMP JUMPDEST PUSH2 0x5C6 JUMP JUMPDEST STOP JUMPDEST PUSH2 0x20E PUSH1 0x4 DUP1 CALLDATASIZE SUB DUP2 ADD SWAP1 PUSH2 0x209 SWAP2 SWAP1 PUSH2 0x1147 JUMP JUMPDEST PUSH2 0x62F JUMP JUMPDEST STOP JUMPDEST PUSH2 0x218 PUSH2 0x668 JUMP JUMPDEST PUSH1 0x40 MLOAD PUSH2 0x225 SWAP2 SWAP1 PUSH2 0x11C4 JUMP JUMPDEST PUSH1 0x40 MLOAD DUP1 SWAP2 SUB SWAP1 RETURN JUMPDEST PUSH2 0x236 PUSH2 0x68E JUMP JUMPDEST PUSH1 0x40 MLOAD PUSH2 0x243 SWAP2 SWAP1 PUSH2 0x1200 JUMP JUMPDEST PUSH1 0x40 MLOAD DUP1 SWAP2 SUB SWAP1 RETURN JUMPDEST PUSH2 0x266 PUSH1 0x4 DUP1 CALLDATASIZE SUB DUP2 ADD SWAP1 PUSH2 0x261 SWAP2 SWAP1 PUSH2 0xDAE JUMP JUMPDEST PUSH2 0x6B4 JUMP JUMPDEST PUSH1 0x40 MLOAD PUSH2 0x273 SWAP2 SWAP1 PUSH2 0x10D0 JUMP JUMPDEST PUSH1 0x40 MLOAD DUP1 SWAP2 SUB SWAP1 RETURN JUMPDEST PUSH2 0x296 PUSH1 0x4 DUP1 CALLDATASIZE SUB DUP2 ADD SWAP1 PUSH2 0x291 SWAP2 SWAP1 PUSH2 0xC3B JUMP JUMPDEST PUSH2 0x6FD JUMP JUMPDEST STOP JUMPDEST PUSH2 0x2B2 PUSH1 0x4 DUP1 CALLDATASIZE SUB DUP2 ADD SWAP1 PUSH2 0x2AD SWAP2 SWAP1 PUSH2 0xC3B JUMP JUMPDEST PUSH2 0x711 JUMP JUMPDEST STOP JUMPDEST PUSH2 0x2CE PUSH1 0x4 DUP1 CALLDATASIZE SUB DUP2 ADD SWAP1 PUSH2 0x2C9 SWAP2 SWAP1 PUSH2 0xC3B JUMP JUMPDEST PUSH2 0x794 JUMP JUMPDEST STOP JUMPDEST PUSH2 0x2D8 PUSH2 0x7A8 JUMP JUMPDEST PUSH2 0x2E1 DUP2 PUSH2 0x826 JUMP JUMPDEST POP JUMP JUMPDEST PUSH1 0x9A DUP2 DUP1 MLOAD PUSH1 0x20 DUP2 ADD DUP3 ADD DUP1 MLOAD DUP5 DUP3 MSTORE PUSH1 0x20 DUP4 ADD PUSH1 0x20 DUP6 ADD KECCAK256 DUP2 DUP4 MSTORE DUP1 SWAP6 POP POP POP POP POP POP PUSH1 0x0 SWAP2 POP SWAP1 POP DUP1 SLOAD PUSH2 0x319 SWAP1 PUSH2 0x124A JUMP JUMPDEST DUP1 PUSH1 0x1F ADD PUSH1 0x20 DUP1 SWAP2 DIV MUL PUSH1 0x20 ADD PUSH1 0x40 MLOAD SWAP1 DUP2 ADD PUSH1 0x40 MSTORE DUP1 SWAP3 SWAP2 SWAP1 DUP2 DUP2 MSTORE PUSH1 0x20 ADD DUP3 DUP1 SLOAD PUSH2 0x345 SWAP1 PUSH2 0x124A JUMP JUMPDEST DUP1 ISZERO PUSH2 0x392 JUMPI DUP1 PUSH1 0x1F LT PUSH2 0x367 JUMPI PUSH2 0x100 DUP1 DUP4 SLOAD DIV MUL DUP4 MSTORE SWAP2 PUSH1 0x20 ADD SWAP2 PUSH2 0x392 JUMP JUMPDEST DUP3 ADD SWAP2 SWAP1 PUSH1 0x0 MSTORE PUSH1 0x20 PUSH1 0x0 KECCAK256 SWAP1 JUMPDEST DUP2 SLOAD DUP2 MSTORE SWAP1 PUSH1 0x1 ADD SWAP1 PUSH1 0x20 ADD DUP1 DUP4 GT PUSH2 0x375 JUMPI DUP3 SWAP1 SUB PUSH1 0x1F AND DUP3 ADD SWAP2 JUMPDEST POP POP POP POP POP DUP2 JUMP JUMPDEST PUSH1 0x66 PUSH1 0x0 SWAP1 SLOAD SWAP1 PUSH2 0x100 EXP SWAP1 DIV PUSH20 0xFFFFFFFFFFFFFFFFFFFFFFFFFFFFFFFFFFFFFFFF AND DUP2 JUMP JUMPDEST PUSH1 0x99 PUSH1 0x20 MSTORE DUP1 PUSH1 0x0 MSTORE PUSH1 0x40 PUSH1 0x0 KECCAK256 PUSH1 0x0 SWAP2 POP SWAP1 POP DUP1 SLOAD PUSH2 0x3DF SWAP1 PUSH2 0x124A JUMP JUMPDEST DUP1 PUSH1 0x1F ADD PUSH1 0x20 DUP1 SWAP2 DIV MUL PUSH1 0x20 ADD PUSH1 0x40 MLOAD SWAP1 DUP2 ADD PUSH1 0x40 MSTORE DUP1 SWAP3 SWAP2 SWAP1 DUP2 DUP2 MSTORE PUSH1 0x20 ADD DUP3 DUP1 SLOAD PUSH2 0x40B SWAP1 PUSH2 0x124A JUMP JUMPDEST DUP1 ISZERO PUSH2 0x458 JUMPI DUP1 PUSH1 0x1F LT PUSH2 0x42D JUMPI PUSH2 0x100 DUP1 DUP4 SLOAD DIV MUL DUP4 MSTORE SWAP2 PUSH1 0x20 ADD SWAP2 PUSH2 0x458 JUMP JUMPDEST DUP3 ADD SWAP2 SWAP1 PUSH1 0x0 MSTORE PUSH1 0x20 PUSH1 0x0 KECCAK256 SWAP1 JUMPDEST DUP2 SLOAD DUP2 MSTORE SWAP1 PUSH1 0x1 ADD SWAP1 PUSH1 0x20 ADD DUP1 DUP4 GT PUSH2 0x43B JUMPI DUP3 SWAP1 SUB PUSH1 0x1F AND DUP3 ADD SWAP2 JUMPDEST POP POP POP POP POP DUP2 JUMP JUMPDEST PUSH1 0x65 PUSH1 0x0 SWAP1 SLOAD SWAP1 PUSH2 0x100 EXP SWAP1 DIV PUSH20 0xFFFFFFFFFFFFFFFFFFFFFFFFFFFFFFFFFFFFFFFF AND PUSH20 0xFFFFFFFFFFFFFFFFFFFFFFFFFFFFFFFFFFFFFFFF AND CALLER PUSH20 0xFFFFFFFFFFFFFFFFFFFFFFFFFFFFFFFFFFFFFFFF AND EQ PUSH2 0x4F0 JUMPI PUSH1 0x40 MLOAD PUSH32 0x8C379A000000000000000000000000000000000000000000000000000000000 DUP2 MSTORE PUSH1 0x4 ADD PUSH2 0x4E7 SWAP1 PUSH2 0x12C7 JUMP JUMPDEST PUSH1 0x40 MLOAD DUP1 SWAP2 SUB SWAP1 REVERT JUMPDEST PUSH1 0x0 PUSH2 0x4FB DUP3 PUSH2 0x92C JUMP JUMPDEST SWAP1 POP PUSH1 0x99 PUSH1 0x0 DUP6 PUSH4 0xFFFFFFFF AND PUSH4 0xFFFFFFFF AND DUP2 MSTORE PUSH1 0x20 ADD SWAP1 DUP2 MSTORE PUSH1 0x20 ADD PUSH1 0x0 KECCAK256 PUSH1 0x9A DUP3 PUSH1 0x40 MLOAD PUSH2 0x52C SWAP2 SWAP1 PUSH2 0x1323 JUMP JUMPDEST SWAP1 DUP2 MSTORE PUSH1 0x20 ADD PUSH1 0x40 MLOAD DUP1 SWAP2 SUB SWAP1 KECCAK256 SWAP1 DUP2 PUSH2 0x546 SWAP2 SWAP1 PUSH2 0x1511 JUMP JUMPDEST POP PUSH32 0x6FD153F8513020A7C868FE1CAD8971A11C07EED025F7C124837493F7383DC062 DUP5 DUP5 DUP4 PUSH1 0x40 MLOAD PUSH2 0x57A SWAP4 SWAP3 SWAP2 SWAP1 PUSH2 0x1617 JUMP JUMPDEST PUSH1 0x40 MLOAD DUP1 SWAP2 SUB SWAP1 LOG1 POP POP POP POP JUMP JUMPDEST PUSH2 0x590 PUSH2 0x7A8 JUMP JUMPDEST PUSH2 0x59A PUSH1 0x0 PUSH2 0x936 JUMP JUMPDEST JUMP JUMPDEST PUSH1 0x0 PUSH1 0x33 PUSH1 0x0 SWAP1 SLOAD SWAP1 PUSH2 0x100 EXP SWAP1 DIV PUSH20 0xFFFFFFFFFFFFFFFFFFFFFFFFFFFFFFFFFFFFFFFF AND SWAP1 POP SWAP1 JUMP JUMPDEST PUSH2 0x5CE PUSH2 0x7A8 JUMP JUMPDEST DUP1 PUSH1 0x98 DUP4 PUSH1 0x40 MLOAD PUSH2 0x5DF SWAP2 SWAP1 PUSH2 0x1323 JUMP JUMPDEST SWAP1 DUP2 MSTORE PUSH1 0x20 ADD PUSH1 0x40 MLOAD DUP1 SWAP2 SUB SWAP1 KECCAK256 PUSH1 0x0 PUSH2 0x100 EXP DUP2 SLOAD DUP2 PUSH20 0xFFFFFFFFFFFFFFFFFFFFFFFFFFFFFFFFFFFFFFFF MUL NOT AND SWAP1 DUP4 PUSH20 0xFFFFFFFFFFFFFFFFFFFFFFFFFFFFFFFFFFFFFFFF AND MUL OR SWAP1 SSTORE POP POP POP JUMP JUMPDEST PUSH2 0x637 PUSH2 0x7A8 JUMP JUMPDEST DUP2 PUSH1 0x99 PUSH1 0x0 DUP4 PUSH4 0xFFFFFFFF AND PUSH4 0xFFFFFFFF AND DUP2 MSTORE PUSH1 0x20 ADD SWAP1 DUP2 MSTORE PUSH1 0x20 ADD PUSH1 0x0 KECCAK256 SWAP1 DUP2 PUSH2 0x663 SWAP2 SWAP1 PUSH2 0x1655 JUMP JUMPDEST POP POP POP JUMP JUMPDEST PUSH1 0x65 PUSH1 0x0 SWAP1 SLOAD SWAP1 PUSH2 0x100 EXP SWAP1 DIV PUSH20 0xFFFFFFFFFFFFFFFFFFFFFFFFFFFFFFFFFFFFFFFF AND DUP2 JUMP JUMPDEST PUSH1 0x67 PUSH1 0x0 SWAP1 SLOAD SWAP1 PUSH2 0x100 EXP SWAP1 DIV PUSH20 0xFFFFFFFFFFFFFFFFFFFFFFFFFFFFFFFFFFFFFFFF AND DUP2 JUMP JUMPDEST PUSH1 0x98 DUP2 DUP1 MLOAD PUSH1 0x20 DUP2 ADD DUP3 ADD DUP1 MLOAD DUP5 DUP3 MSTORE PUSH1 0x20 DUP4 ADD PUSH1 0x20 DUP6 ADD KECCAK256 DUP2 DUP4 MSTORE DUP1 SWAP6 POP POP POP POP POP POP PUSH1 0x0 SWAP2 POP SLOAD SWAP1 PUSH2 0x100 EXP SWAP1 DIV PUSH20 0xFFFFFFFFFFFFFFFFFFFFFFFFFFFFFFFFFFFFFFFF AND DUP2 JUMP JUMPDEST PUSH2 0x705 PUSH2 0x7A8 JUMP JUMPDEST PUSH2 0x70E DUP2 PUSH2 0x9FC JUMP JUMPDEST POP JUMP JUMPDEST PUSH2 0x719 PUSH2 0x7A8 JUMP JUMPDEST PUSH1 0x0 PUSH20 0xFFFFFFFFFFFFFFFFFFFFFFFFFFFFFFFFFFFFFFFF AND DUP2 PUSH20 0xFFFFFFFFFFFFFFFFFFFFFFFFFFFFFFFFFFFFFFFF AND SUB PUSH2 0x788 JUMPI PUSH1 0x40 MLOAD PUSH32 0x8C379A000000000000000000000000000000000000000000000000000000000 DUP2 MSTORE PUSH1 0x4 ADD PUSH2 0x77F SWAP1 PUSH2 0x1799 JUMP JUMPDEST PUSH1 0x40 MLOAD DUP1 SWAP2 SUB SWAP1 REVERT JUMPDEST PUSH2 0x791 DUP2 PUSH2 0x936 JUMP JUMPDEST POP JUMP JUMPDEST PUSH2 0x79C PUSH2 0x7A8 JUMP JUMPDEST PUSH2 0x7A5 DUP2 PUSH2 0xACD JUMP JUMPDEST POP JUMP JUMPDEST PUSH2 0x7B0 PUSH2 0xB9E JUMP JUMPDEST PUSH20 0xFFFFFFFFFFFFFFFFFFFFFFFFFFFFFFFFFFFFFFFF AND PUSH2 0x7CE PUSH2 0x59C JUMP JUMPDEST PUSH20 0xFFFFFFFFFFFFFFFFFFFFFFFFFFFFFFFFFFFFFFFF AND EQ PUSH2 0x824 JUMPI PUSH1 0x40 MLOAD PUSH32 0x8C379A000000000000000000000000000000000000000000000000000000000 DUP2 MSTORE PUSH1 0x4 ADD PUSH2 0x81B SWAP1 PUSH2 0x1805 JUMP JUMPDEST PUSH1 0x40 MLOAD DUP1 SWAP2 SUB SWAP1 REVERT JUMPDEST JUMP JUMPDEST PUSH1 0x0 PUSH20 0xFFFFFFFFFFFFFFFFFFFFFFFFFFFFFFFFFFFFFFFF AND DUP2 PUSH20 0xFFFFFFFFFFFFFFFFFFFFFFFFFFFFFFFFFFFFFFFF AND EQ DUP1 PUSH2 0x866 JUMPI POP PUSH2 0x865 DUP2 PUSH2 0xBA6 JUMP JUMPDEST JUMPDEST PUSH2 0x8A5 JUMPI PUSH1 0x40 MLOAD PUSH32 0x8C379A000000000000000000000000000000000000000000000000000000000 DUP2 MSTORE PUSH1 0x4 ADD PUSH2 0x89C SWAP1 PUSH2 0x1871 JUMP JUMPDEST PUSH1 0x40 MLOAD DUP1 SWAP2 SUB SWAP1 REVERT JUMPDEST DUP1 PUSH1 0x67 PUSH1 0x0 PUSH2 0x100 EXP DUP2 SLOAD DUP2 PUSH20 0xFFFFFFFFFFFFFFFFFFFFFFFFFFFFFFFFFFFFFFFF MUL NOT AND SWAP1 DUP4 PUSH20 0xFFFFFFFFFFFFFFFFFFFFFFFFFFFFFFFFFFFFFFFF AND MUL OR SWAP1 SSTORE POP DUP1 PUSH20 0xFFFFFFFFFFFFFFFFFFFFFFFFFFFFFFFFFFFFFFFF AND PUSH32 0xFEC811ED4E60AEBDAF7A79CAD8A97196BF56E35362F039705598226D30C9D248 PUSH1 0x40 MLOAD PUSH1 0x40 MLOAD DUP1 SWAP2 SUB SWAP1 LOG2 POP JUMP JUMPDEST PUSH1 0x60 DUP2 SWAP1 POP SWAP2 SWAP1 POP JUMP JUMPDEST PUSH1 0x0 PUSH1 0x33 PUSH1 0x0 SWAP1 SLOAD SWAP1 PUSH2 0x100 EXP SWAP1 DIV PUSH20 0xFFFFFFFFFFFFFFFFFFFFFFFFFFFFFFFFFFFFFFFF AND SWAP1 POP DUP2 PUSH1 0x33 PUSH1 0x0 PUSH2 0x100 EXP DUP2 SLOAD DUP2 PUSH20 0xFFFFFFFFFFFFFFFFFFFFFFFFFFFFFFFFFFFFFFFF MUL NOT AND SWAP1 DUP4 PUSH20 0xFFFFFFFFFFFFFFFFFFFFFFFFFFFFFFFFFFFFFFFF AND MUL OR SWAP1 SSTORE POP DUP2 PUSH20 0xFFFFFFFFFFFFFFFFFFFFFFFFFFFFFFFFFFFFFFFF AND DUP2 PUSH20 0xFFFFFFFFFFFFFFFFFFFFFFFFFFFFFFFFFFFFFFFF AND PUSH32 0x8BE0079C531659141344CD1FD0A4F28419497F9722A3DAAFE3B4186F6B6457E0 PUSH1 0x40 MLOAD PUSH1 0x40 MLOAD DUP1 SWAP2 SUB SWAP1 LOG3 POP POP JUMP JUMPDEST DUP1 PUSH2 0xA06 DUP2 PUSH2 0xBA6 JUMP JUMPDEST PUSH2 0xA45 JUMPI PUSH1 0x40 MLOAD PUSH32 0x8C379A000000000000000000000000000000000000000000000000000000000 DUP2 MSTORE PUSH1 0x4 ADD PUSH2 0xA3C SWAP1 PUSH2 0x1871 JUMP JUMPDEST PUSH1 0x40 MLOAD DUP1 SWAP2 SUB SWAP1 REVERT JUMPDEST DUP2 PUSH1 0x66 PUSH1 0x0 PUSH2 0x100 EXP DUP2 SLOAD DUP2 PUSH20 0xFFFFFFFFFFFFFFFFFFFFFFFFFFFFFFFFFFFFFFFF MUL NOT AND SWAP1 DUP4 PUSH20 0xFFFFFFFFFFFFFFFFFFFFFFFFFFFFFFFFFFFFFFFF AND MUL OR SWAP1 SSTORE POP DUP2 PUSH20 0xFFFFFFFFFFFFFFFFFFFFFFFFFFFFFFFFFFFFFFFF AND PUSH32 0xB87F5A0BFACE22CDE699143559FB99F990AE54EEA236995FC54178AF91AF859F PUSH1 0x40 MLOAD PUSH1 0x40 MLOAD DUP1 SWAP2 SUB SWAP1 LOG2 POP POP JUMP JUMPDEST DUP1 PUSH2 0xAD7 DUP2 PUSH2 0xBA6 JUMP JUMPDEST PUSH2 0xB16 JUMPI PUSH1 0x40 MLOAD PUSH32 0x8C379A000000000000000000000000000000000000000000000000000000000 DUP2 MSTORE PUSH1 0x4 ADD PUSH2 0xB0D SWAP1 PUSH2 0x1871 JUMP JUMPDEST PUSH1 0x40 MLOAD DUP1 SWAP2 SUB SWAP1 REVERT JUMPDEST DUP2 PUSH1 0x65 PUSH1 0x0 PUSH2 0x100 EXP DUP2 SLOAD DUP2 PUSH20 0xFFFFFFFFFFFFFFFFFFFFFFFFFFFFFFFFFFFFFFFF MUL NOT AND SWAP1 DUP4 PUSH20 0xFFFFFFFFFFFFFFFFFFFFFFFFFFFFFFFFFFFFFFFF AND MUL OR SWAP1 SSTORE POP DUP2 PUSH20 0xFFFFFFFFFFFFFFFFFFFFFFFFFFFFFFFFFFFFFFFF AND PUSH32 0x7A61E573722FF8B205C8962B59D37E7D30573F368965597A844A94872204EBD7 PUSH1 0x40 MLOAD PUSH1 0x40 MLOAD DUP1 SWAP2 SUB SWAP1 LOG2 POP POP JUMP JUMPDEST PUSH1 0x0 CALLER SWAP1 POP SWAP1 JUMP JUMPDEST PUSH1 0x0 DUP1 DUP3 PUSH20 0xFFFFFFFFFFFFFFFFFFFFFFFFFFFFFFFFFFFFFFFF AND EXTCODESIZE GT SWAP1 POP SWAP2 SWAP1 POP JUMP JUMPDEST PUSH1 0x0 PUSH1 0x40 MLOAD SWAP1 POP SWAP1 JUMP JUMPDEST PUSH1 0x0 DUP1 REVERT JUMPDEST PUSH1 0x0 DUP1 REVERT JUMPDEST PUSH1 0x0 PUSH20 0xFFFFFFFFFFFFFFFFFFFFFFFFFFFFFFFFFFFFFFFF DUP3 AND SWAP1 POP SWAP2 SWAP1 POP JUMP JUMPDEST PUSH1 0x0 PUSH2 0xC08 DUP3 PUSH2 0xBDD JUMP JUMPDEST SWAP1 POP SWAP2 SWAP1 POP JUMP JUMPDEST PUSH2 0xC18 DUP2 PUSH2 0xBFD JUMP JUMPDEST DUP2 EQ PUSH2 0xC23 JUMPI PUSH1 0x0 DUP1 REVERT JUMPDEST POP JUMP JUMPDEST PUSH1 0x0 DUP2 CALLDATALOAD SWAP1 POP PUSH2 0xC35 DUP2 PUSH2 0xC0F JUMP JUMPDEST SWAP3 SWAP2 POP POP JUMP JUMPDEST PUSH1 0x0 PUSH1 0x20 DUP3 DUP5 SUB SLT ISZERO PUSH2 0xC51 JUMPI PUSH2 0xC50 PUSH2 0xBD3 JUMP JUMPDEST JUMPDEST PUSH1 0x0 PUSH2 0xC5F DUP5 DUP3 DUP6 ADD PUSH2 0xC26 JUMP JUMPDEST SWAP2 POP POP SWAP3 SWAP2 POP POP JUMP JUMPDEST PUSH1 0x0 DUP1 REVERT JUMPDEST PUSH1 0x0 DUP1 REVERT JUMPDEST PUSH1 0x0 PUSH1 0x1F NOT PUSH1 0x1F DUP4 ADD AND SWAP1 POP SWAP2 SWAP1 POP JUMP JUMPDEST PUSH32 0x4E487B7100000000000000000000000000000000000000000000000000000000 PUSH1 0x0 MSTORE PUSH1 0x41 PUSH1 0x4 MSTORE PUSH1 0x24 PUSH1 0x0 REVERT JUMPDEST PUSH2 0xCBB DUP3 PUSH2 0xC72 JUMP JUMPDEST DUP2 ADD DUP2 DUP2 LT PUSH8 0xFFFFFFFFFFFFFFFF DUP3 GT OR ISZERO PUSH2 0xCDA JUMPI PUSH2 0xCD9 PUSH2 0xC83 JUMP JUMPDEST JUMPDEST DUP1 PUSH1 0x40 MSTORE POP POP POP JUMP JUMPDEST PUSH1 0x0 PUSH2 0xCED PUSH2 0xBC9 JUMP JUMPDEST SWAP1 POP PUSH2 0xCF9 DUP3 DUP3 PUSH2 0xCB2 JUMP JUMPDEST SWAP2 SWAP1 POP JUMP JUMPDEST PUSH1 0x0 PUSH8 0xFFFFFFFFFFFFFFFF DUP3 GT ISZERO PUSH2 0xD19 JUMPI PUSH2 0xD18 PUSH2 0xC83 JUMP JUMPDEST JUMPDEST PUSH2 0xD22 DUP3 PUSH2 0xC72 JUMP JUMPDEST SWAP1 POP PUSH1 0x20 DUP2 ADD SWAP1 POP SWAP2 SWAP1 POP JUMP JUMPDEST DUP3 DUP2 DUP4 CALLDATACOPY PUSH1 0x0 DUP4 DUP4 ADD MSTORE POP POP POP JUMP JUMPDEST PUSH1 0x0 PUSH2 0xD51 PUSH2 0xD4C DUP5 PUSH2 0xCFE JUMP JUMPDEST PUSH2 0xCE3 JUMP JUMPDEST SWAP1 POP DUP3 DUP2 MSTORE PUSH1 0x20 DUP2 ADD DUP5 DUP5 DUP5 ADD GT ISZERO PUSH2 0xD6D JUMPI PUSH2 0xD6C PUSH2 0xC6D JUMP JUMPDEST JUMPDEST PUSH2 0xD78 DUP5 DUP3 DUP6 PUSH2 0xD2F JUMP JUMPDEST POP SWAP4 SWAP3 POP POP POP JUMP JUMPDEST PUSH1 0x0 DUP3 PUSH1 0x1F DUP4 ADD SLT PUSH2 0xD95 JUMPI PUSH2 0xD94 PUSH2 0xC68 JUMP JUMPDEST JUMPDEST DUP2 CALLDATALOAD PUSH2 0xDA5 DUP5 DUP3 PUSH1 0x20 DUP7 ADD PUSH2 0xD3E JUMP JUMPDEST SWAP2 POP POP SWAP3 SWAP2 POP POP JUMP JUMPDEST PUSH1 0x0 PUSH1 0x20 DUP3 DUP5 SUB SLT ISZERO PUSH2 0xDC4 JUMPI PUSH2 0xDC3 PUSH2 0xBD3 JUMP JUMPDEST JUMPDEST PUSH1 0x0 DUP3 ADD CALLDATALOAD PUSH8 0xFFFFFFFFFFFFFFFF DUP2 GT ISZERO PUSH2 0xDE2 JUMPI PUSH2 0xDE1 PUSH2 0xBD8 JUMP JUMPDEST JUMPDEST PUSH2 0xDEE DUP5 DUP3 DUP6 ADD PUSH2 0xD80 JUMP JUMPDEST SWAP2 POP POP SWAP3 SWAP2 POP POP JUMP JUMPDEST PUSH1 0x0 DUP2 MLOAD SWAP1 POP SWAP2 SWAP1 POP JUMP JUMPDEST PUSH1 0x0 DUP3 DUP3 MSTORE PUSH1 0x20 DUP3 ADD SWAP1 POP SWAP3 SWAP2 POP POP JUMP JUMPDEST PUSH1 0x0 JUMPDEST DUP4 DUP2 LT ISZERO PUSH2 0xE31 JUMPI DUP1 DUP3 ADD MLOAD DUP2 DUP5 ADD MSTORE PUSH1 0x20 DUP2 ADD SWAP1 POP PUSH2 0xE16 JUMP JUMPDEST PUSH1 0x0 DUP5 DUP5 ADD MSTORE POP POP POP POP JUMP JUMPDEST PUSH1 0x0 PUSH2 0xE48 DUP3 PUSH2 0xDF7 JUMP JUMPDEST PUSH2 0xE52 DUP2 DUP6 PUSH2 0xE02 JUMP JUMPDEST SWAP4 POP PUSH2 0xE62 DUP2 DUP6 PUSH1 0x20 DUP7 ADD PUSH2 0xE13 JUMP JUMPDEST PUSH2 0xE6B DUP2 PUSH2 0xC72 JUMP JUMPDEST DUP5 ADD SWAP2 POP POP SWAP3 SWAP2 POP POP JUMP JUMPDEST PUSH1 0x0 PUSH1 0x20 DUP3 ADD SWAP1 POP DUP2 DUP2 SUB PUSH1 0x0 DUP4 ADD MSTORE PUSH2 0xE90 DUP2 DUP5 PUSH2 0xE3D JUMP JUMPDEST SWAP1 POP SWAP3 SWAP2 POP POP JUMP JUMPDEST PUSH1 0x0 DUP2 SWAP1 POP SWAP2 SWAP1 POP JUMP JUMPDEST PUSH1 0x0 PUSH2 0xEBD PUSH2 0xEB8 PUSH2 0xEB3 DUP5 PUSH2 0xBDD JUMP JUMPDEST PUSH2 0xE98 JUMP JUMPDEST PUSH2 0xBDD JUMP JUMPDEST SWAP1 POP SWAP2 SWAP1 POP JUMP JUMPDEST PUSH1 0x0 PUSH2 0xECF DUP3 PUSH2 0xEA2 JUMP JUMPDEST SWAP1 POP SWAP2 SWAP1 POP JUMP JUMPDEST PUSH1 0x0 PUSH2 0xEE1 DUP3 PUSH2 0xEC4 JUMP JUMPDEST SWAP1 POP SWAP2 SWAP1 POP JUMP JUMPDEST PUSH2 0xEF1 DUP2 PUSH2 0xED6 JUMP JUMPDEST DUP3 MSTORE POP POP JUMP JUMPDEST PUSH1 0x0 PUSH1 0x20 DUP3 ADD SWAP1 POP PUSH2 0xF0C PUSH1 0x0 DUP4 ADD DUP5 PUSH2 0xEE8 JUMP JUMPDEST SWAP3 SWAP2 POP POP JUMP JUMPDEST PUSH1 0x0 PUSH4 0xFFFFFFFF DUP3 AND SWAP1 POP SWAP2 SWAP1 POP JUMP JUMPDEST PUSH2 0xF2B DUP2 PUSH2 0xF12 JUMP JUMPDEST DUP2 EQ PUSH2 0xF36 JUMPI PUSH1 0x0 DUP1 REVERT JUMPDEST POP JUMP JUMPDEST PUSH1 0x0 DUP2 CALLDATALOAD SWAP1 POP PUSH2 0xF48 DUP2 PUSH2 0xF22 JUMP JUMPDEST SWAP3 SWAP2 POP POP JUMP JUMPDEST PUSH1 0x0 PUSH1 0x20 DUP3 DUP5 SUB SLT ISZERO PUSH2 0xF64 JUMPI PUSH2 0xF63 PUSH2 0xBD3 JUMP JUMPDEST JUMPDEST PUSH1 0x0 PUSH2 0xF72 DUP5 DUP3 DUP6 ADD PUSH2 0xF39 JUMP JUMPDEST SWAP2 POP POP SWAP3 SWAP2 POP POP JUMP JUMPDEST PUSH1 0x0 DUP2 SWAP1 POP SWAP2 SWAP1 POP JUMP JUMPDEST PUSH2 0xF8E DUP2 PUSH2 0xF7B JUMP JUMPDEST DUP2 EQ PUSH2 0xF99 JUMPI PUSH1 0x0 DUP1 REVERT JUMPDEST POP JUMP JUMPDEST PUSH1 0x0 DUP2 CALLDATALOAD SWAP1 POP PUSH2 0xFAB DUP2 PUSH2 0xF85 JUMP JUMPDEST SWAP3 SWAP2 POP POP JUMP JUMPDEST PUSH1 0x0 PUSH8 0xFFFFFFFFFFFFFFFF DUP3 GT ISZERO PUSH2 0xFCC JUMPI PUSH2 0xFCB PUSH2 0xC83 JUMP JUMPDEST JUMPDEST PUSH2 0xFD5 DUP3 PUSH2 0xC72 JUMP JUMPDEST SWAP1 POP PUSH1 0x20 DUP2 ADD SWAP1 POP SWAP2 SWAP1 POP JUMP JUMPDEST PUSH1 0x0 PUSH2 0xFF5 PUSH2 0xFF0 DUP5 PUSH2 0xFB1 JUMP JUMPDEST PUSH2 0xCE3 JUMP JUMPDEST SWAP1 POP DUP3 DUP2 MSTORE PUSH1 0x20 DUP2 ADD DUP5 DUP5 DUP5 ADD GT ISZERO PUSH2 0x1011 JUMPI PUSH2 0x1010 PUSH2 0xC6D JUMP JUMPDEST JUMPDEST PUSH2 0x101C DUP5 DUP3 DUP6 PUSH2 0xD2F JUMP JUMPDEST POP SWAP4 SWAP3 POP POP POP JUMP JUMPDEST PUSH1 0x0 DUP3 PUSH1 0x1F DUP4 ADD SLT PUSH2 0x1039 JUMPI PUSH2 0x1038 PUSH2 0xC68 JUMP JUMPDEST JUMPDEST DUP2 CALLDATALOAD PUSH2 0x1049 DUP5 DUP3 PUSH1 0x20 DUP7 ADD PUSH2 0xFE2 JUMP JUMPDEST SWAP2 POP POP SWAP3 SWAP2 POP POP JUMP JUMPDEST PUSH1 0x0 DUP1 PUSH1 0x0 PUSH1 0x60 DUP5 DUP7 SUB SLT ISZERO PUSH2 0x106B JUMPI PUSH2 0x106A PUSH2 0xBD3 JUMP JUMPDEST JUMPDEST PUSH1 0x0 PUSH2 0x1079 DUP7 DUP3 DUP8 ADD PUSH2 0xF39 JUMP JUMPDEST SWAP4 POP POP PUSH1 0x20 PUSH2 0x108A DUP7 DUP3 DUP8 ADD PUSH2 0xF9C JUMP JUMPDEST SWAP3 POP POP PUSH1 0x40 DUP5 ADD CALLDATALOAD PUSH8 0xFFFFFFFFFFFFFFFF DUP2 GT ISZERO PUSH2 0x10AB JUMPI PUSH2 0x10AA PUSH2 0xBD8 JUMP JUMPDEST JUMPDEST PUSH2 0x10B7 DUP7 DUP3 DUP8 ADD PUSH2 0x1024 JUMP JUMPDEST SWAP2 POP POP SWAP3 POP SWAP3 POP SWAP3 JUMP JUMPDEST PUSH2 0x10CA DUP2 PUSH2 0xBFD JUMP JUMPDEST DUP3 MSTORE POP POP JUMP JUMPDEST PUSH1 0x0 PUSH1 0x20 DUP3 ADD SWAP1 POP PUSH2 0x10E5 PUSH1 0x0 DUP4 ADD DUP5 PUSH2 0x10C1 JUMP JUMPDEST SWAP3 SWAP2 POP POP JUMP JUMPDEST PUSH1 0x0 DUP1 PUSH1 0x40 DUP4 DUP6 SUB SLT ISZERO PUSH2 0x1102 JUMPI PUSH2 0x1101 PUSH2 0xBD3 JUMP JUMPDEST JUMPDEST PUSH1 0x0 DUP4 ADD CALLDATALOAD PUSH8 0xFFFFFFFFFFFFFFFF DUP2 GT ISZERO PUSH2 0x1120 JUMPI PUSH2 0x111F PUSH2 0xBD8 JUMP JUMPDEST JUMPDEST PUSH2 0x112C DUP6 DUP3 DUP7 ADD PUSH2 0xD80 JUMP JUMPDEST SWAP3 POP POP PUSH1 0x20 PUSH2 0x113D DUP6 DUP3 DUP7 ADD PUSH2 0xC26 JUMP JUMPDEST SWAP2 POP POP SWAP3 POP SWAP3 SWAP1 POP JUMP JUMPDEST PUSH1 0x0 DUP1 PUSH1 0x40 DUP4 DUP6 SUB SLT ISZERO PUSH2 0x115E JUMPI PUSH2 0x115D PUSH2 0xBD3 JUMP JUMPDEST JUMPDEST PUSH1 0x0 DUP4 ADD CALLDATALOAD PUSH8 0xFFFFFFFFFFFFFFFF DUP2 GT ISZERO PUSH2 0x117C JUMPI PUSH2 0x117B PUSH2 0xBD8 JUMP JUMPDEST JUMPDEST PUSH2 0x1188 DUP6 DUP3 DUP7 ADD PUSH2 0xD80 JUMP JUMPDEST SWAP3 POP POP PUSH1 0x20 PUSH2 0x1199 DUP6 DUP3 DUP7 ADD PUSH2 0xF39 JUMP JUMPDEST SWAP2 POP POP SWAP3 POP SWAP3 SWAP1 POP JUMP JUMPDEST PUSH1 0x0 PUSH2 0x11AE DUP3 PUSH2 0xEC4 JUMP JUMPDEST SWAP1 POP SWAP2 SWAP1 POP JUMP JUMPDEST PUSH2 0x11BE DUP2 PUSH2 0x11A3 JUMP JUMPDEST DUP3 MSTORE POP POP JUMP JUMPDEST PUSH1 0x0 PUSH1 0x20 DUP3 ADD SWAP1 POP PUSH2 0x11D9 PUSH1 0x0 DUP4 ADD DUP5 PUSH2 0x11B5 JUMP JUMPDEST SWAP3 SWAP2 POP POP JUMP JUMPDEST PUSH1 0x0 PUSH2 0x11EA DUP3 PUSH2 0xEC4 JUMP JUMPDEST SWAP1 POP SWAP2 SWAP1 POP JUMP JUMPDEST PUSH2 0x11FA DUP2 PUSH2 0x11DF JUMP JUMPDEST DUP3 MSTORE POP POP JUMP JUMPDEST PUSH1 0x0 PUSH1 0x20 DUP3 ADD SWAP1 POP PUSH2 0x1215 PUSH1 0x0 DUP4 ADD DUP5 PUSH2 0x11F1 JUMP JUMPDEST SWAP3 SWAP2 POP POP JUMP JUMPDEST PUSH32 0x4E487B7100000000000000000000000000000000000000000000000000000000 PUSH1 0x0 MSTORE PUSH1 0x22 PUSH1 0x4 MSTORE PUSH1 0x24 PUSH1 0x0 REVERT JUMPDEST PUSH1 0x0 PUSH1 0x2 DUP3 DIV SWAP1 POP PUSH1 0x1 DUP3 AND DUP1 PUSH2 0x1262 JUMPI PUSH1 0x7F DUP3 AND SWAP2 POP JUMPDEST PUSH1 0x20 DUP3 LT DUP2 SUB PUSH2 0x1275 JUMPI PUSH2 0x1274 PUSH2 0x121B JUMP JUMPDEST JUMPDEST POP SWAP2 SWAP1 POP JUMP JUMPDEST PUSH32 0x216D61696C626F78000000000000000000000000000000000000000000000000 PUSH1 0x0 DUP3 ADD MSTORE POP JUMP JUMPDEST PUSH1 0x0 PUSH2 0x12B1 PUSH1 0x8 DUP4 PUSH2 0xE02 JUMP JUMPDEST SWAP2 POP PUSH2 0x12BC DUP3 PUSH2 0x127B JUMP JUMPDEST PUSH1 0x20 DUP3 ADD SWAP1 POP SWAP2 SWAP1 POP JUMP JUMPDEST PUSH1 0x0 PUSH1 0x20 DUP3 ADD SWAP1 POP DUP2 DUP2 SUB PUSH1 0x0 DUP4 ADD MSTORE PUSH2 0x12E0 DUP2 PUSH2 0x12A4 JUMP JUMPDEST SWAP1 POP SWAP2 SWAP1 POP JUMP JUMPDEST PUSH1 0x0 DUP2 SWAP1 POP SWAP3 SWAP2 POP POP JUMP JUMPDEST PUSH1 0x0 PUSH2 0x12FD DUP3 PUSH2 0xDF7 JUMP JUMPDEST PUSH2 0x1307 DUP2 DUP6 PUSH2 0x12E7 JUMP JUMPDEST SWAP4 POP PUSH2 0x1317 DUP2 DUP6 PUSH1 0x20 DUP7 ADD PUSH2 0xE13 JUMP JUMPDEST DUP1 DUP5 ADD SWAP2 POP POP SWAP3 SWAP2 POP POP JUMP JUMPDEST PUSH1 0x0 PUSH2 0x132F DUP3 DUP5 PUSH2 0x12F2 JUMP JUMPDEST SWAP2 POP DUP2 SWAP1 POP SWAP3 SWAP2 POP POP JUMP JUMPDEST PUSH1 0x0 DUP2 SLOAD SWAP1 POP PUSH2 0x1349 DUP2 PUSH2 0x124A JUMP JUMPDEST SWAP1 POP SWAP2 SWAP1 POP JUMP JUMPDEST PUSH1 0x0 DUP2 SWAP1 POP DUP2 PUSH1 0x0 MSTORE PUSH1 0x20 PUSH1 0x0 KECCAK256 SWAP1 POP SWAP2 SWAP1 POP JUMP JUMPDEST PUSH1 0x0 DUP2 SWAP1 POP DUP2 PUSH1 0x0 MSTORE PUSH1 0x20 PUSH1 0x0 KECCAK256 SWAP1 POP SWAP2 SWAP1 POP JUMP JUMPDEST PUSH1 0x0 PUSH1 0x20 PUSH1 0x1F DUP4 ADD DIV SWAP1 POP SWAP2 SWAP1 POP JUMP JUMPDEST PUSH1 0x0 DUP3 DUP3 SHL SWAP1 POP SWAP3 SWAP2 POP POP JUMP JUMPDEST PUSH1 0x0 PUSH1 0x8 DUP4 MUL PUSH2 0x13C7 PUSH32 0xFFFFFFFFFFFFFFFFFFFFFFFFFFFFFFFFFFFFFFFFFFFFFFFFFFFFFFFFFFFFFFFF DUP3 PUSH2 0x138A JUMP JUMPDEST PUSH2 0x13D1 DUP7 DUP4 PUSH2 0x138A JUMP JUMPDEST SWAP6 POP DUP1 NOT DUP5 AND SWAP4 POP DUP1 DUP7 AND DUP5 OR SWAP3 POP POP POP SWAP4 SWAP3 POP POP POP JUMP JUMPDEST PUSH1 0x0 DUP2 SWAP1 POP SWAP2 SWAP1 POP JUMP JUMPDEST PUSH1 0x0 PUSH2 0x140E PUSH2 0x1409 PUSH2 0x1404 DUP5 PUSH2 0x13E9 JUMP JUMPDEST PUSH2 0xE98 JUMP JUMPDEST PUSH2 0x13E9 JUMP JUMPDEST SWAP1 POP SWAP2 SWAP1 POP JUMP JUMPDEST PUSH1 0x0 DUP2 SWAP1 POP SWAP2 SWAP1 POP JUMP JUMPDEST PUSH2 0x1428 DUP4 PUSH2 0x13F3 JUMP JUMPDEST PUSH2 0x143C PUSH2 0x1434 DUP3 PUSH2 0x1415 JUMP JUMPDEST DUP5 DUP5 SLOAD PUSH2 0x1397 JUMP JUMPDEST DUP3 SSTORE POP POP POP POP JUMP JUMPDEST PUSH1 0x0 SWAP1 JUMP JUMPDEST PUSH2 0x1451 PUSH2 0x1444 JUMP JUMPDEST PUSH2 0x145C DUP2 DUP5 DUP5 PUSH2 0x141F JUMP JUMPDEST POP POP POP JUMP JUMPDEST JUMPDEST DUP2 DUP2 LT ISZERO PUSH2 0x1480 JUMPI PUSH2 0x1475 PUSH1 0x0 DUP3 PUSH2 0x1449 JUMP JUMPDEST PUSH1 0x1 DUP2 ADD SWAP1 POP PUSH2 0x1462 JUMP JUMPDEST POP POP JUMP JUMPDEST PUSH1 0x1F DUP3 GT ISZERO PUSH2 0x14C5 JUMPI PUSH2 0x1496 DUP2 PUSH2 0x1350 JUMP JUMPDEST PUSH2 0x149F DUP5 PUSH2 0x137A JUMP JUMPDEST DUP2 ADD PUSH1 0x20 DUP6 LT ISZERO PUSH2 0x14AE JUMPI DUP2 SWAP1 POP JUMPDEST PUSH2 0x14C2 PUSH2 0x14BA DUP6 PUSH2 0x137A JUMP JUMPDEST DUP4 ADD DUP3 PUSH2 0x1461 JUMP JUMPDEST POP POP JUMPDEST POP POP POP JUMP JUMPDEST PUSH1 0x0 DUP3 DUP3 SHR SWAP1 POP SWAP3 SWAP2 POP POP JUMP JUMPDEST PUSH1 0x0 PUSH2 0x14E8 PUSH1 0x0 NOT DUP5 PUSH1 0x8 MUL PUSH2 0x14CA JUMP JUMPDEST NOT DUP1 DUP4 AND SWAP2 POP POP SWAP3 SWAP2 POP POP JUMP JUMPDEST PUSH1 0x0 PUSH2 0x1501 DUP4 DUP4 PUSH2 0x14D7 JUMP JUMPDEST SWAP2 POP DUP3 PUSH1 0x2 MUL DUP3 OR SWAP1 POP SWAP3 SWAP2 POP POP JUMP JUMPDEST DUP2 DUP2 SUB PUSH2 0x151F JUMPI POP POP PUSH2 0x15F7 JUMP JUMPDEST PUSH2 0x1528 DUP3 PUSH2 0x133A JUMP JUMPDEST PUSH8 0xFFFFFFFFFFFFFFFF DUP2 GT ISZERO PUSH2 0x1541 JUMPI PUSH2 0x1540 PUSH2 0xC83 JUMP JUMPDEST JUMPDEST PUSH2 0x154B DUP3 SLOAD PUSH2 0x124A JUMP JUMPDEST PUSH2 0x1556 DUP3 DUP3 DUP6 PUSH2 0x1484 JUMP JUMPDEST PUSH1 0x0 PUSH1 0x1F DUP4 GT PUSH1 0x1 DUP2 EQ PUSH2 0x1585 JUMPI PUSH1 0x0 DUP5 ISZERO PUSH2 0x1573 JUMPI DUP3 DUP8 ADD SLOAD SWAP1 POP JUMPDEST PUSH2 0x157D DUP6 DUP3 PUSH2 0x14F5 JUMP JUMPDEST DUP7 SSTORE POP PUSH2 0x15F0 JUMP JUMPDEST PUSH1 0x1F NOT DUP5 AND PUSH2 0x1593 DUP8 PUSH2 0x1365 JUMP JUMPDEST SWAP7 POP PUSH2 0x159E DUP7 PUSH2 0x1350 JUMP JUMPDEST PUSH1 0x0 JUMPDEST DUP3 DUP2 LT ISZERO PUSH2 0x15C6 JUMPI DUP5 DUP10 ADD SLOAD DUP3 SSTORE PUSH1 0x1 DUP3 ADD SWAP2 POP PUSH1 0x1 DUP6 ADD SWAP5 POP PUSH1 0x20 DUP2 ADD SWAP1 POP PUSH2 0x15A1 JUMP JUMPDEST DUP7 DUP4 LT ISZERO PUSH2 0x15E3 JUMPI DUP5 DUP10 ADD SLOAD PUSH2 0x15DF PUSH1 0x1F DUP10 AND DUP3 PUSH2 0x14D7 JUMP JUMPDEST DUP4 SSTORE POP JUMPDEST PUSH1 0x1 PUSH1 0x2 DUP9 MUL ADD DUP9 SSTORE POP POP POP JUMPDEST POP POP POP POP POP POP JUMPDEST JUMP JUMPDEST PUSH2 0x1602 DUP2 PUSH2 0xF12 JUMP JUMPDEST DUP3 MSTORE POP POP JUMP JUMPDEST PUSH2 0x1611 DUP2 PUSH2 0xF7B JUMP JUMPDEST DUP3 MSTORE POP POP JUMP JUMPDEST PUSH1 0x0 PUSH1 0x60 DUP3 ADD SWAP1 POP PUSH2 0x162C PUSH1 0x0 DUP4 ADD DUP7 PUSH2 0x15F9 JUMP JUMPDEST PUSH2 0x1639 PUSH1 0x20 DUP4 ADD DUP6 PUSH2 0x1608 JUMP JUMPDEST DUP2 DUP2 SUB PUSH1 0x40 DUP4 ADD MSTORE PUSH2 0x164B DUP2 DUP5 PUSH2 0xE3D JUMP JUMPDEST SWAP1 POP SWAP5 SWAP4 POP POP POP POP JUMP JUMPDEST PUSH2 0x165E DUP3 PUSH2 0xDF7 JUMP JUMPDEST PUSH8 0xFFFFFFFFFFFFFFFF DUP2 GT ISZERO PUSH2 0x1677 JUMPI PUSH2 0x1676 PUSH2 0xC83 JUMP JUMPDEST JUMPDEST PUSH2 0x1681 DUP3 SLOAD PUSH2 0x124A JUMP JUMPDEST PUSH2 0x168C DUP3 DUP3 DUP6 PUSH2 0x1484 JUMP JUMPDEST PUSH1 0x0 PUSH1 0x20 SWAP1 POP PUSH1 0x1F DUP4 GT PUSH1 0x1 DUP2 EQ PUSH2 0x16BF JUMPI PUSH1 0x0 DUP5 ISZERO PUSH2 0x16AD JUMPI DUP3 DUP8 ADD MLOAD SWAP1 POP JUMPDEST PUSH2 0x16B7 DUP6 DUP3 PUSH2 0x14F5 JUMP JUMPDEST DUP7 SSTORE POP PUSH2 0x171F JUMP JUMPDEST PUSH1 0x1F NOT DUP5 AND PUSH2 0x16CD DUP7 PUSH2 0x1350 JUMP JUMPDEST PUSH1 0x0 JUMPDEST DUP3 DUP2 LT ISZERO PUSH2 0x16F5 JUMPI DUP5 DUP10 ADD MLOAD DUP3 SSTORE PUSH1 0x1 DUP3 ADD SWAP2 POP PUSH1 0x20 DUP6 ADD SWAP5 POP PUSH1 0x20 DUP2 ADD SWAP1 POP PUSH2 0x16D0 JUMP JUMPDEST DUP7 DUP4 LT ISZERO PUSH2 0x1712 JUMPI DUP5 DUP10 ADD MLOAD PUSH2 0x170E PUSH1 0x1F DUP10 AND DUP3 PUSH2 0x14D7 JUMP JUMPDEST DUP4 SSTORE POP JUMPDEST PUSH1 0x1 PUSH1 0x2 DUP9 MUL ADD DUP9 SSTORE POP POP POP JUMPDEST POP POP POP POP POP POP JUMP JUMPDEST PUSH32 0x4F776E61626C653A206E6577206F776E657220697320746865207A65726F2061 PUSH1 0x0 DUP3 ADD MSTORE PUSH32 0x6464726573730000000000000000000000000000000000000000000000000000 PUSH1 0x20 DUP3 ADD MSTORE POP JUMP JUMPDEST PUSH1 0x0 PUSH2 0x1783 PUSH1 0x26 DUP4 PUSH2 0xE02 JUMP JUMPDEST SWAP2 POP PUSH2 0x178E DUP3 PUSH2 0x1727 JUMP JUMPDEST PUSH1 0x40 DUP3 ADD SWAP1 POP SWAP2 SWAP1 POP JUMP JUMPDEST PUSH1 0x0 PUSH1 0x20 DUP3 ADD SWAP1 POP DUP2 DUP2 SUB PUSH1 0x0 DUP4 ADD MSTORE PUSH2 0x17B2 DUP2 PUSH2 0x1776 JUMP JUMPDEST SWAP1 POP SWAP2 SWAP1 POP JUMP JUMPDEST PUSH32 0x4F776E61626C653A2063616C6C6572206973206E6F7420746865206F776E6572 PUSH1 0x0 DUP3 ADD MSTORE POP JUMP JUMPDEST PUSH1 0x0 PUSH2 0x17EF PUSH1 0x20 DUP4 PUSH2 0xE02 JUMP JUMPDEST SWAP2 POP PUSH2 0x17FA DUP3 PUSH2 0x17B9 JUMP JUMPDEST PUSH1 0x20 DUP3 ADD SWAP1 POP SWAP2 SWAP1 POP JUMP JUMPDEST PUSH1 0x0 PUSH1 0x20 DUP3 ADD SWAP1 POP DUP2 DUP2 SUB PUSH1 0x0 DUP4 ADD MSTORE PUSH2 0x181E DUP2 PUSH2 0x17E2 JUMP JUMPDEST SWAP1 POP SWAP2 SWAP1 POP JUMP JUMPDEST PUSH32 0x21636F6E74726163740000000000000000000000000000000000000000000000 PUSH1 0x0 DUP3 ADD MSTORE POP JUMP JUMPDEST PUSH1 0x0 PUSH2 0x185B PUSH1 0x9 DUP4 PUSH2 0xE02 JUMP JUMPDEST SWAP2 POP PUSH2 0x1866 DUP3 PUSH2 0x1825 JUMP JUMPDEST PUSH1 0x20 DUP3 ADD SWAP1 POP SWAP2 SWAP1 POP JUMP JUMPDEST PUSH1 0x0 PUSH1 0x20 DUP3 ADD SWAP1 POP DUP2 DUP2 SUB PUSH1 0x0 DUP4 ADD MSTORE PUSH2 0x188A DUP2 PUSH2 0x184E JUMP JUMPDEST SWAP1 POP SWAP2 SWAP1 POP JUMP INVALID LOG2 PUSH5 0x6970667358 0x22 SLT KECCAK256 DUP6 0xC9 BLOCKHASH OR CODECOPY SAR 0xD2 PUSH7 0x6F1896CF2D7FA7 RETURNDATACOPY SWAP3 DUP3 0x2C ADDRESS PUSH16 0xBEBF2D2734987D8B6BBC3A64736F6C63 NUMBER STOP ADDMOD SLT STOP CALLER "},"methodIdentifiers":{"NGONetworkMapping(string)":"2cf7bc47","changeAddressOfContract(string,address)":"c5a0cc30","changeNetworkNameForChainID(string,uint32)":"c753a9c9","contractAddresses(string)":"ee67cc2a","domainIdentifiers(uint32)":"3f063469","handle(uint32,bytes32,bytes)":"56d5d475","interchainGasPaymaster()":"39bb4ad9","interchainSecurityModule()":"de523cf3","mailbox()":"d5438eae","owner()":"8da5cb5b","renounceOwnership()":"715018a6","setInterchainGasPaymaster(address)":"f1bd6f0a","setInterchainSecurityModule(address)":"0e72cc06","setMailbox(address)":"f3c61d6b","transferOwnership(address)":"f2fde38b"}}}}}