{
  "_format": "hh-sol-artifact-1",
  "contractName": "SubContract",
  "sourceName": "contracts/SubContract.sol",
  "abi": [
    {
      "anonymous": false,
      "inputs": [
        {
          "indexed": false,
          "internalType": "uint8",
          "name": "version",
          "type": "uint8"
        }
      ],
      "name": "Initialized",
      "type": "event"
    },
    {
      "anonymous": false,
      "inputs": [
        {
          "indexed": true,
          "internalType": "address",
          "name": "interchainGasPaymaster",
          "type": "address"
        }
      ],
      "name": "InterchainGasPaymasterSet",
      "type": "event"
    },
    {
      "anonymous": false,
      "inputs": [
        {
          "indexed": true,
          "internalType": "address",
          "name": "module",
          "type": "address"
        }
      ],
      "name": "InterchainSecurityModuleSet",
      "type": "event"
    },
    {
      "anonymous": false,
      "inputs": [
        {
          "indexed": true,
          "internalType": "address",
          "name": "mailbox",
          "type": "address"
        }
      ],
      "name": "MailboxSet",
      "type": "event"
    },
    {
      "anonymous": false,
      "inputs": [
        {
          "indexed": true,
          "internalType": "address",
          "name": "previousOwner",
          "type": "address"
        },
        {
          "indexed": true,
          "internalType": "address",
          "name": "newOwner",
          "type": "address"
        }
      ],
      "name": "OwnershipTransferred",
      "type": "event"
    },
    {
      "inputs": [],
      "name": "interchainGasPaymaster",
      "outputs": [
        {
          "internalType": "contract IInterchainGasPaymaster",
          "name": "",
          "type": "address"
        }
      ],
      "stateMutability": "view",
      "type": "function"
    },
    {
      "inputs": [],
      "name": "interchainSecurityModule",
      "outputs": [
        {
          "internalType": "contract IInterchainSecurityModule",
          "name": "",
          "type": "address"
        }
      ],
      "stateMutability": "view",
      "type": "function"
    },
    {
      "inputs": [
        {
          "internalType": "address",
          "name": "",
          "type": "address"
        }
      ],
      "name": "listOfNGOs",
      "outputs": [
        {
          "internalType": "string",
          "name": "name",
          "type": "string"
        }
      ],
      "stateMutability": "view",
      "type": "function"
    },
    {
      "inputs": [],
      "name": "mailbox",
      "outputs": [
        {
          "internalType": "contract IMailbox",
          "name": "",
          "type": "address"
        }
      ],
      "stateMutability": "view",
      "type": "function"
    },
    {
      "inputs": [],
      "name": "owner",
      "outputs": [
        {
          "internalType": "address",
          "name": "",
          "type": "address"
        }
      ],
      "stateMutability": "view",
      "type": "function"
    },
    {
      "inputs": [
        {
          "internalType": "uint32",
          "name": "_destination",
          "type": "uint32"
        },
        {
          "internalType": "address",
          "name": "_recipient",
          "type": "address"
        },
        {
          "internalType": "address",
          "name": "_NGOAddress",
          "type": "address"
        }
      ],
      "name": "relayNGOMappingToMainContract",
      "outputs": [],
      "stateMutability": "nonpayable",
      "type": "function"
    },
    {
      "inputs": [],
      "name": "renounceOwnership",
      "outputs": [],
      "stateMutability": "nonpayable",
      "type": "function"
    },
    {
      "inputs": [
        {
          "internalType": "address",
          "name": "_interchainGasPaymaster",
          "type": "address"
        }
      ],
      "name": "setInterchainGasPaymaster",
      "outputs": [],
      "stateMutability": "nonpayable",
      "type": "function"
    },
    {
      "inputs": [
        {
          "internalType": "address",
          "name": "_module",
          "type": "address"
        }
      ],
      "name": "setInterchainSecurityModule",
      "outputs": [],
      "stateMutability": "nonpayable",
      "type": "function"
    },
    {
      "inputs": [
        {
          "internalType": "address",
          "name": "_mailbox",
          "type": "address"
        }
      ],
      "name": "setMailbox",
      "outputs": [],
      "stateMutability": "nonpayable",
      "type": "function"
    },
    {
      "inputs": [
        {
          "internalType": "address",
          "name": "newOwner",
          "type": "address"
        }
      ],
      "name": "transferOwnership",
      "outputs": [],
      "stateMutability": "nonpayable",
      "type": "function"
    }
  ],
  "bytecode": "0x608060405234801561001057600080fd5b50610f74806100206000396000f3fe608060405234801561001057600080fd5b50600436106100a95760003560e01c8063d5438eae11610071578063d5438eae14610140578063de523cf31461015e578063f1bd6f0a1461017c578063f2fde38b14610198578063f3c61d6b146101b4578063f9c65cb4146101d0576100a9565b80630e72cc06146100ae57806339bb4ad9146100ca578063715018a6146100e85780638da5cb5b146100f25780638eb5b0d314610110575b600080fd5b6100c860048036038101906100c39190610973565b6101ec565b005b6100d2610200565b6040516100df91906109ff565b60405180910390f35b6100f0610226565b005b6100fa61023a565b6040516101079190610a29565b60405180910390f35b61012a60048036038101906101259190610973565b610264565b6040516101379190610ad4565b60405180910390f35b61014861030a565b6040516101559190610b17565b60405180910390f35b610166610330565b6040516101739190610b53565b60405180910390f35b61019660048036038101906101919190610973565b610356565b005b6101b260048036038101906101ad9190610973565b61036a565b005b6101ce60048036038101906101c99190610973565b6103ed565b005b6101ea60048036038101906101e59190610baa565b610401565b005b6101f46104d6565b6101fd81610554565b50565b606660009054906101000a900473ffffffffffffffffffffffffffffffffffffffff1681565b61022e6104d6565b610238600061065a565b565b6000603360009054906101000a900473ffffffffffffffffffffffffffffffffffffffff16905090565b609960205280600052604060002060009150905080600001805461028790610c2c565b80601f01602080910402602001604051908101604052809291908181526020018280546102b390610c2c565b80156103005780601f106102d557610100808354040283529160200191610300565b820191906000526020600020905b8154815290600101906020018083116102e357829003601f168201915b5050505050905081565b606560009054906101000a900473ffffffffffffffffffffffffffffffffffffffff1681565b606760009054906101000a900473ffffffffffffffffffffffffffffffffffffffff1681565b61035e6104d6565b61036781610720565b50565b6103726104d6565b600073ffffffffffffffffffffffffffffffffffffffff168173ffffffffffffffffffffffffffffffffffffffff16036103e1576040517f08c379a00000000000000000000000000000000000000000000000000000000081526004016103d890610ccf565b60405180910390fd5b6103ea8161065a565b50565b6103f56104d6565b6103fe816107f1565b50565b6000816040516020016104149190610d37565b6040516020818303038152906040529050606560009054906101000a900473ffffffffffffffffffffffffffffffffffffffff1673ffffffffffffffffffffffffffffffffffffffff1663fa31de018561046d866108c2565b846040518463ffffffff1660e01b815260040161048c93929190610dcf565b6020604051808303816000875af11580156104ab573d6000803e3d6000fd5b505050506040513d601f19601f820116820180604052508101906104cf9190610e39565b5050505050565b6104de6108e5565b73ffffffffffffffffffffffffffffffffffffffff166104fc61023a565b73ffffffffffffffffffffffffffffffffffffffff1614610552576040517f08c379a000000000000000000000000000000000000000000000000000000000815260040161054990610eb2565b60405180910390fd5b565b600073ffffffffffffffffffffffffffffffffffffffff168173ffffffffffffffffffffffffffffffffffffffff1614806105945750610593816108ed565b5b6105d3576040517f08c379a00000000000000000000000000000000000000000000000000000000081526004016105ca90610f1e565b60405180910390fd5b80606760006101000a81548173ffffffffffffffffffffffffffffffffffffffff021916908373ffffffffffffffffffffffffffffffffffffffff1602179055508073ffffffffffffffffffffffffffffffffffffffff167ffec811ed4e60aebdaf7a79cad8a97196bf56e35362f039705598226d30c9d24860405160405180910390a250565b6000603360009054906101000a900473ffffffffffffffffffffffffffffffffffffffff16905081603360006101000a81548173ffffffffffffffffffffffffffffffffffffffff021916908373ffffffffffffffffffffffffffffffffffffffff1602179055508173ffffffffffffffffffffffffffffffffffffffff168173ffffffffffffffffffffffffffffffffffffffff167f8be0079c531659141344cd1fd0a4f28419497f9722a3daafe3b4186f6b6457e060405160405180910390a35050565b8061072a816108ed565b610769576040517f08c379a000000000000000000000000000000000000000000000000000000000815260040161076090610f1e565b60405180910390fd5b81606660006101000a81548173ffffffffffffffffffffffffffffffffffffffff021916908373ffffffffffffffffffffffffffffffffffffffff1602179055508173ffffffffffffffffffffffffffffffffffffffff167fb87f5a0bface22cde699143559fb99f990ae54eea236995fc54178af91af859f60405160405180910390a25050565b806107fb816108ed565b61083a576040517f08c379a000000000000000000000000000000000000000000000000000000000815260040161083190610f1e565b60405180910390fd5b81606560006101000a81548173ffffffffffffffffffffffffffffffffffffffff021916908373ffffffffffffffffffffffffffffffffffffffff1602179055508173ffffffffffffffffffffffffffffffffffffffff167f7a61e573722ff8b205c8962b59d37e7d30573f368965597a844a94872204ebd760405160405180910390a25050565b60008173ffffffffffffffffffffffffffffffffffffffff1660001b9050919050565b600033905090565b6000808273ffffffffffffffffffffffffffffffffffffffff163b119050919050565b600080fd5b600073ffffffffffffffffffffffffffffffffffffffff82169050919050565b600061094082610915565b9050919050565b61095081610935565b811461095b57600080fd5b50565b60008135905061096d81610947565b92915050565b60006020828403121561098957610988610910565b5b60006109978482850161095e565b91505092915050565b6000819050919050565b60006109c56109c06109bb84610915565b6109a0565b610915565b9050919050565b60006109d7826109aa565b9050919050565b60006109e9826109cc565b9050919050565b6109f9816109de565b82525050565b6000602082019050610a1460008301846109f0565b92915050565b610a2381610935565b82525050565b6000602082019050610a3e6000830184610a1a565b92915050565b600081519050919050565b600082825260208201905092915050565b60005b83811015610a7e578082015181840152602081019050610a63565b60008484015250505050565b6000601f19601f8301169050919050565b6000610aa682610a44565b610ab08185610a4f565b9350610ac0818560208601610a60565b610ac981610a8a565b840191505092915050565b60006020820190508181036000830152610aee8184610a9b565b905092915050565b6000610b01826109cc565b9050919050565b610b1181610af6565b82525050565b6000602082019050610b2c6000830184610b08565b92915050565b6000610b3d826109cc565b9050919050565b610b4d81610b32565b82525050565b6000602082019050610b686000830184610b44565b92915050565b600063ffffffff82169050919050565b610b8781610b6e565b8114610b9257600080fd5b50565b600081359050610ba481610b7e565b92915050565b600080600060608486031215610bc357610bc2610910565b5b6000610bd186828701610b95565b9350506020610be28682870161095e565b9250506040610bf38682870161095e565b9150509250925092565b7f4e487b7100000000000000000000000000000000000000000000000000000000600052602260045260246000fd5b60006002820490506001821680610c4457607f821691505b602082108103610c5757610c56610bfd565b5b50919050565b7f4f776e61626c653a206e6577206f776e657220697320746865207a65726f206160008201527f6464726573730000000000000000000000000000000000000000000000000000602082015250565b6000610cb9602683610a4f565b9150610cc482610c5d565b604082019050919050565b60006020820190508181036000830152610ce881610cac565b9050919050565b60008160601b9050919050565b6000610d0782610cef565b9050919050565b6000610d1982610cfc565b9050919050565b610d31610d2c82610935565b610d0e565b82525050565b6000610d438284610d20565b60148201915081905092915050565b610d5b81610b6e565b82525050565b6000819050919050565b610d7481610d61565b82525050565b600081519050919050565b600082825260208201905092915050565b6000610da182610d7a565b610dab8185610d85565b9350610dbb818560208601610a60565b610dc481610a8a565b840191505092915050565b6000606082019050610de46000830186610d52565b610df16020830185610d6b565b8181036040830152610e038184610d96565b9050949350505050565b610e1681610d61565b8114610e2157600080fd5b50565b600081519050610e3381610e0d565b92915050565b600060208284031215610e4f57610e4e610910565b5b6000610e5d84828501610e24565b91505092915050565b7f4f776e61626c653a2063616c6c6572206973206e6f7420746865206f776e6572600082015250565b6000610e9c602083610a4f565b9150610ea782610e66565b602082019050919050565b60006020820190508181036000830152610ecb81610e8f565b9050919050565b7f21636f6e74726163740000000000000000000000000000000000000000000000600082015250565b6000610f08600983610a4f565b9150610f1382610ed2565b602082019050919050565b60006020820190508181036000830152610f3781610efb565b905091905056fea26469706673582212207876193ca055b2a9983bfaec4b15626907c7771d77741fb7fe8979aa7cc2395164736f6c63430008120033",
  "linkReferences": {},
  "deployedLinkReferences": {}
}