{
  "_format": "hh-sol-artifact-1",
  "contractName": "SubContract",
  "sourceName": "contracts/SubContract.sol",
  "abi": [
    {
      "anonymous": false,
      "inputs": [
        {
          "indexed": false,
          "internalType": "uint8",
          "name": "version",
          "type": "uint8"
        }
      ],
      "name": "Initialized",
      "type": "event"
    },
    {
      "anonymous": false,
      "inputs": [
        {
          "indexed": true,
          "internalType": "address",
          "name": "interchainGasPaymaster",
          "type": "address"
        }
      ],
      "name": "InterchainGasPaymasterSet",
      "type": "event"
    },
    {
      "anonymous": false,
      "inputs": [
        {
          "indexed": true,
          "internalType": "address",
          "name": "module",
          "type": "address"
        }
      ],
      "name": "InterchainSecurityModuleSet",
      "type": "event"
    },
    {
      "anonymous": false,
      "inputs": [
        {
          "indexed": true,
          "internalType": "address",
          "name": "mailbox",
          "type": "address"
        }
      ],
      "name": "MailboxSet",
      "type": "event"
    },
    {
      "anonymous": false,
      "inputs": [
        {
          "indexed": true,
          "internalType": "address",
          "name": "previousOwner",
          "type": "address"
        },
        {
          "indexed": true,
          "internalType": "address",
          "name": "newOwner",
          "type": "address"
        }
      ],
      "name": "OwnershipTransferred",
      "type": "event"
    },
    {
      "inputs": [
        {
          "internalType": "string",
          "name": "name",
          "type": "string"
        },
        {
          "internalType": "uint256",
          "name": "shiftStartTime",
          "type": "uint256"
        },
        {
          "internalType": "uint256",
          "name": "shiftEndTime",
          "type": "uint256"
        },
        {
          "internalType": "string",
          "name": "location",
          "type": "string"
        },
        {
          "internalType": "string",
          "name": "startDate",
          "type": "string"
        },
        {
          "internalType": "string",
          "name": "endDate",
          "type": "string"
        }
      ],
      "name": "addLongActivity",
      "outputs": [],
      "stateMutability": "nonpayable",
      "type": "function"
    },
    {
      "inputs": [
        {
          "internalType": "string",
          "name": "name",
          "type": "string"
        },
        {
          "internalType": "uint256",
          "name": "shiftStartTime",
          "type": "uint256"
        },
        {
          "internalType": "uint256",
          "name": "shiftEndTime",
          "type": "uint256"
        },
        {
          "internalType": "string",
          "name": "location",
          "type": "string"
        }
      ],
      "name": "addShortActivity",
      "outputs": [],
      "stateMutability": "nonpayable",
      "type": "function"
    },
    {
      "inputs": [],
      "name": "getLongActivities",
      "outputs": [
        {
          "components": [
            {
              "internalType": "string",
              "name": "name",
              "type": "string"
            },
            {
              "internalType": "string",
              "name": "location",
              "type": "string"
            },
            {
              "internalType": "uint256",
              "name": "shiftStartTime",
              "type": "uint256"
            },
            {
              "internalType": "uint256",
              "name": "shiftEndTime",
              "type": "uint256"
            },
            {
              "internalType": "string",
              "name": "startDate",
              "type": "string"
            },
            {
              "internalType": "string",
              "name": "endDate",
              "type": "string"
            }
          ],
          "internalType": "struct SubContract.long_activity[]",
          "name": "",
          "type": "tuple[]"
        }
      ],
      "stateMutability": "view",
      "type": "function"
    },
    {
      "inputs": [],
      "name": "getShortActivities",
      "outputs": [
        {
          "components": [
            {
              "internalType": "string",
              "name": "name",
              "type": "string"
            },
            {
              "internalType": "string",
              "name": "location",
              "type": "string"
            },
            {
              "internalType": "uint256",
              "name": "shiftStartTime",
              "type": "uint256"
            },
            {
              "internalType": "uint256",
              "name": "shiftEndTime",
              "type": "uint256"
            }
          ],
          "internalType": "struct SubContract.short_activity[]",
          "name": "",
          "type": "tuple[]"
        }
      ],
      "stateMutability": "view",
      "type": "function"
    },
    {
      "inputs": [],
      "name": "interchainGasPaymaster",
      "outputs": [
        {
          "internalType": "contract IInterchainGasPaymaster",
          "name": "",
          "type": "address"
        }
      ],
      "stateMutability": "view",
      "type": "function"
    },
    {
      "inputs": [],
      "name": "interchainSecurityModule",
      "outputs": [
        {
          "internalType": "contract IInterchainSecurityModule",
          "name": "",
          "type": "address"
        }
      ],
      "stateMutability": "view",
      "type": "function"
    },
    {
      "inputs": [
        {
          "internalType": "address",
          "name": "",
          "type": "address"
        }
      ],
      "name": "listOfNGOs",
      "outputs": [
        {
          "internalType": "string",
          "name": "name",
          "type": "string"
        }
      ],
      "stateMutability": "view",
      "type": "function"
    },
    {
      "inputs": [],
      "name": "mailbox",
      "outputs": [
        {
          "internalType": "contract IMailbox",
          "name": "",
          "type": "address"
        }
      ],
      "stateMutability": "view",
      "type": "function"
    },
    {
      "inputs": [],
      "name": "owner",
      "outputs": [
        {
          "internalType": "address",
          "name": "",
          "type": "address"
        }
      ],
      "stateMutability": "view",
      "type": "function"
    },
    {
      "inputs": [
        {
          "internalType": "uint32",
          "name": "_destination",
          "type": "uint32"
        },
        {
          "internalType": "address",
          "name": "_recipient",
          "type": "address"
        },
        {
          "internalType": "address",
          "name": "_NGOAddress",
          "type": "address"
        }
      ],
      "name": "relayNGOMappingToMainContract",
      "outputs": [],
      "stateMutability": "nonpayable",
      "type": "function"
    },
    {
      "inputs": [],
      "name": "renounceOwnership",
      "outputs": [],
      "stateMutability": "nonpayable",
      "type": "function"
    },
    {
      "inputs": [
        {
          "internalType": "address",
          "name": "_interchainGasPaymaster",
          "type": "address"
        }
      ],
      "name": "setInterchainGasPaymaster",
      "outputs": [],
      "stateMutability": "nonpayable",
      "type": "function"
    },
    {
      "inputs": [
        {
          "internalType": "address",
          "name": "_module",
          "type": "address"
        }
      ],
      "name": "setInterchainSecurityModule",
      "outputs": [],
      "stateMutability": "nonpayable",
      "type": "function"
    },
    {
      "inputs": [
        {
          "internalType": "address",
          "name": "_mailbox",
          "type": "address"
        }
      ],
      "name": "setMailbox",
      "outputs": [],
      "stateMutability": "nonpayable",
      "type": "function"
    },
    {
      "inputs": [
        {
          "internalType": "address",
          "name": "newOwner",
          "type": "address"
        }
      ],
      "name": "transferOwnership",
      "outputs": [],
      "stateMutability": "nonpayable",
      "type": "function"
    }
  ],
  "bytecode": "0x608060405234801561001057600080fd5b50611e9b806100206000396000f3fe608060405234801561001057600080fd5b50600436106100f55760003560e01c8063a0c3545111610097578063f1bd6f0a11610066578063f1bd6f0a1461023c578063f2fde38b14610258578063f3c61d6b14610274578063f9c65cb414610290576100f5565b8063a0c35451146101c6578063d5438eae146101e2578063de523cf314610200578063f0cee3341461021e576100f5565b8063715018a6116100d3578063715018a6146101525780638da5cb5b1461015c5780638eb5b0d31461017a57806396bf8a37146101aa576100f5565b80630e72cc06146100fa57806339bb4ad9146101165780636fbd8f9614610134575b600080fd5b610114600480360381019061010f9190610ff6565b6102ac565b005b61011e6102c0565b60405161012b9190611082565b60405180910390f35b61013c6102e6565b6040516101499190611272565b60405180910390f35b61015a61047d565b005b610164610491565b60405161017191906112a3565b60405180910390f35b610194600480360381019061018f9190610ff6565b6104bb565b6040516101a19190611308565b60405180910390f35b6101c460048036038101906101bf919061148b565b610561565b005b6101e060048036038101906101db9190611588565b61062f565b005b6101ea6106c3565b6040516101f79190611648565b60405180910390f35b6102086106e9565b6040516102159190611684565b60405180910390f35b61022661070f565b60405161023391906117ff565b60405180910390f35b61025660048036038101906102519190610ff6565b6109ca565b005b610272600480360381019061026d9190610ff6565b6109de565b005b61028e60048036038101906102899190610ff6565b610a61565b005b6102aa60048036038101906102a5919061185d565b610a75565b005b6102b4610b4a565b6102bd81610bc8565b50565b606660009054906101000a900473ffffffffffffffffffffffffffffffffffffffff1681565b6060609a805480602002602001604051908101604052809291908181526020016000905b82821015610474578382906000526020600020906004020160405180608001604052908160008201805461033d906118df565b80601f0160208091040260200160405190810160405280929190818152602001828054610369906118df565b80156103b65780601f1061038b576101008083540402835291602001916103b6565b820191906000526020600020905b81548152906001019060200180831161039957829003601f168201915b505050505081526020016001820180546103cf906118df565b80601f01602080910402602001604051908101604052809291908181526020018280546103fb906118df565b80156104485780601f1061041d57610100808354040283529160200191610448565b820191906000526020600020905b81548152906001019060200180831161042b57829003601f168201915b50505050508152602001600282015481526020016003820154815250508152602001906001019061030a565b50505050905090565b610485610b4a565b61048f6000610cce565b565b6000603360009054906101000a900473ffffffffffffffffffffffffffffffffffffffff16905090565b609b6020528060005260406000206000915090508060000180546104de906118df565b80601f016020809104026020016040519081016040528092919081815260200182805461050a906118df565b80156105575780601f1061052c57610100808354040283529160200191610557565b820191906000526020600020905b81548152906001019060200180831161053a57829003601f168201915b5050505050905081565b60996040518060c0016040528088815260200185815260200187815260200186815260200184815260200183815250908060018154018082558091505060019003906000526020600020906006020160009091909190915060008201518160000190816105ce9190611ab2565b5060208201518160010190816105e49190611ab2565b506040820151816002015560608201518160030155608082015181600401908161060e9190611ab2565b5060a08201518160050190816106249190611ab2565b505050505050505050565b609a604051806080016040528086815260200183815260200185815260200184815250908060018154018082558091505060019003906000526020600020906004020160009091909190915060008201518160000190816106909190611ab2565b5060208201518160010190816106a69190611ab2565b506040820151816002015560608201518160030155505050505050565b606560009054906101000a900473ffffffffffffffffffffffffffffffffffffffff1681565b606760009054906101000a900473ffffffffffffffffffffffffffffffffffffffff1681565b60606099805480602002602001604051908101604052809291908181526020016000905b828210156109c157838290600052602060002090600602016040518060c0016040529081600082018054610766906118df565b80601f0160208091040260200160405190810160405280929190818152602001828054610792906118df565b80156107df5780601f106107b4576101008083540402835291602001916107df565b820191906000526020600020905b8154815290600101906020018083116107c257829003601f168201915b505050505081526020016001820180546107f8906118df565b80601f0160208091040260200160405190810160405280929190818152602001828054610824906118df565b80156108715780601f1061084657610100808354040283529160200191610871565b820191906000526020600020905b81548152906001019060200180831161085457829003601f168201915b50505050508152602001600282015481526020016003820154815260200160048201805461089e906118df565b80601f01602080910402602001604051908101604052809291908181526020018280546108ca906118df565b80156109175780601f106108ec57610100808354040283529160200191610917565b820191906000526020600020905b8154815290600101906020018083116108fa57829003601f168201915b50505050508152602001600582018054610930906118df565b80601f016020809104026020016040519081016040528092919081815260200182805461095c906118df565b80156109a95780601f1061097e576101008083540402835291602001916109a9565b820191906000526020600020905b81548152906001019060200180831161098c57829003601f168201915b50505050508152505081526020019060010190610733565b50505050905090565b6109d2610b4a565b6109db81610d94565b50565b6109e6610b4a565b600073ffffffffffffffffffffffffffffffffffffffff168173ffffffffffffffffffffffffffffffffffffffff1603610a55576040517f08c379a0000000000000000000000000000000000000000000000000000000008152600401610a4c90611bf6565b60405180910390fd5b610a5e81610cce565b50565b610a69610b4a565b610a7281610e65565b50565b600081604051602001610a889190611c5e565b6040516020818303038152906040529050606560009054906101000a900473ffffffffffffffffffffffffffffffffffffffff1673ffffffffffffffffffffffffffffffffffffffff1663fa31de0185610ae186610f36565b846040518463ffffffff1660e01b8152600401610b0093929190611cf6565b6020604051808303816000875af1158015610b1f573d6000803e3d6000fd5b505050506040513d601f19601f82011682018060405250810190610b439190611d60565b5050505050565b610b52610f59565b73ffffffffffffffffffffffffffffffffffffffff16610b70610491565b73ffffffffffffffffffffffffffffffffffffffff1614610bc6576040517f08c379a0000000000000000000000000000000000000000000000000000000008152600401610bbd90611dd9565b60405180910390fd5b565b600073ffffffffffffffffffffffffffffffffffffffff168173ffffffffffffffffffffffffffffffffffffffff161480610c085750610c0781610f61565b5b610c47576040517f08c379a0000000000000000000000000000000000000000000000000000000008152600401610c3e90611e45565b60405180910390fd5b80606760006101000a81548173ffffffffffffffffffffffffffffffffffffffff021916908373ffffffffffffffffffffffffffffffffffffffff1602179055508073ffffffffffffffffffffffffffffffffffffffff167ffec811ed4e60aebdaf7a79cad8a97196bf56e35362f039705598226d30c9d24860405160405180910390a250565b6000603360009054906101000a900473ffffffffffffffffffffffffffffffffffffffff16905081603360006101000a81548173ffffffffffffffffffffffffffffffffffffffff021916908373ffffffffffffffffffffffffffffffffffffffff1602179055508173ffffffffffffffffffffffffffffffffffffffff168173ffffffffffffffffffffffffffffffffffffffff167f8be0079c531659141344cd1fd0a4f28419497f9722a3daafe3b4186f6b6457e060405160405180910390a35050565b80610d9e81610f61565b610ddd576040517f08c379a0000000000000000000000000000000000000000000000000000000008152600401610dd490611e45565b60405180910390fd5b81606660006101000a81548173ffffffffffffffffffffffffffffffffffffffff021916908373ffffffffffffffffffffffffffffffffffffffff1602179055508173ffffffffffffffffffffffffffffffffffffffff167fb87f5a0bface22cde699143559fb99f990ae54eea236995fc54178af91af859f60405160405180910390a25050565b80610e6f81610f61565b610eae576040517f08c379a0000000000000000000000000000000000000000000000000000000008152600401610ea590611e45565b60405180910390fd5b81606560006101000a81548173ffffffffffffffffffffffffffffffffffffffff021916908373ffffffffffffffffffffffffffffffffffffffff1602179055508173ffffffffffffffffffffffffffffffffffffffff167f7a61e573722ff8b205c8962b59d37e7d30573f368965597a844a94872204ebd760405160405180910390a25050565b60008173ffffffffffffffffffffffffffffffffffffffff1660001b9050919050565b600033905090565b6000808273ffffffffffffffffffffffffffffffffffffffff163b119050919050565b6000604051905090565b600080fd5b600080fd5b600073ffffffffffffffffffffffffffffffffffffffff82169050919050565b6000610fc382610f98565b9050919050565b610fd381610fb8565b8114610fde57600080fd5b50565b600081359050610ff081610fca565b92915050565b60006020828403121561100c5761100b610f8e565b5b600061101a84828501610fe1565b91505092915050565b6000819050919050565b600061104861104361103e84610f98565b611023565b610f98565b9050919050565b600061105a8261102d565b9050919050565b600061106c8261104f565b9050919050565b61107c81611061565b82525050565b60006020820190506110976000830184611073565b92915050565b600081519050919050565b600082825260208201905092915050565b6000819050602082019050919050565b600081519050919050565b600082825260208201905092915050565b60005b838110156111035780820151818401526020810190506110e8565b60008484015250505050565b6000601f19601f8301169050919050565b600061112b826110c9565b61113581856110d4565b93506111458185602086016110e5565b61114e8161110f565b840191505092915050565b6000819050919050565b61116c81611159565b82525050565b6000608083016000830151848203600086015261118f8282611120565b915050602083015184820360208601526111a98282611120565b91505060408301516111be6040860182611163565b5060608301516111d16060860182611163565b508091505092915050565b60006111e88383611172565b905092915050565b6000602082019050919050565b60006112088261109d565b61121281856110a8565b935083602082028501611224856110b9565b8060005b85811015611260578484038952815161124185826111dc565b945061124c836111f0565b925060208a01995050600181019050611228565b50829750879550505050505092915050565b6000602082019050818103600083015261128c81846111fd565b905092915050565b61129d81610fb8565b82525050565b60006020820190506112b86000830184611294565b92915050565b600082825260208201905092915050565b60006112da826110c9565b6112e481856112be565b93506112f48185602086016110e5565b6112fd8161110f565b840191505092915050565b6000602082019050818103600083015261132281846112cf565b905092915050565b600080fd5b600080fd5b7f4e487b7100000000000000000000000000000000000000000000000000000000600052604160045260246000fd5b61136c8261110f565b810181811067ffffffffffffffff8211171561138b5761138a611334565b5b80604052505050565b600061139e610f84565b90506113aa8282611363565b919050565b600067ffffffffffffffff8211156113ca576113c9611334565b5b6113d38261110f565b9050602081019050919050565b82818337600083830152505050565b60006114026113fd846113af565b611394565b90508281526020810184848401111561141e5761141d61132f565b5b6114298482856113e0565b509392505050565b600082601f8301126114465761144561132a565b5b81356114568482602086016113ef565b91505092915050565b61146881611159565b811461147357600080fd5b50565b6000813590506114858161145f565b92915050565b60008060008060008060c087890312156114a8576114a7610f8e565b5b600087013567ffffffffffffffff8111156114c6576114c5610f93565b5b6114d289828a01611431565b96505060206114e389828a01611476565b95505060406114f489828a01611476565b945050606087013567ffffffffffffffff81111561151557611514610f93565b5b61152189828a01611431565b935050608087013567ffffffffffffffff81111561154257611541610f93565b5b61154e89828a01611431565b92505060a087013567ffffffffffffffff81111561156f5761156e610f93565b5b61157b89828a01611431565b9150509295509295509295565b600080600080608085870312156115a2576115a1610f8e565b5b600085013567ffffffffffffffff8111156115c0576115bf610f93565b5b6115cc87828801611431565b94505060206115dd87828801611476565b93505060406115ee87828801611476565b925050606085013567ffffffffffffffff81111561160f5761160e610f93565b5b61161b87828801611431565b91505092959194509250565b60006116328261104f565b9050919050565b61164281611627565b82525050565b600060208201905061165d6000830184611639565b92915050565b600061166e8261104f565b9050919050565b61167e81611663565b82525050565b60006020820190506116996000830184611675565b92915050565b600081519050919050565b600082825260208201905092915050565b6000819050602082019050919050565b600060c08301600083015184820360008601526116e88282611120565b915050602083015184820360208601526117028282611120565b91505060408301516117176040860182611163565b50606083015161172a6060860182611163565b50608083015184820360808601526117428282611120565b91505060a083015184820360a086015261175c8282611120565b9150508091505092915050565b600061177583836116cb565b905092915050565b6000602082019050919050565b60006117958261169f565b61179f81856116aa565b9350836020820285016117b1856116bb565b8060005b858110156117ed57848403895281516117ce8582611769565b94506117d98361177d565b925060208a019950506001810190506117b5565b50829750879550505050505092915050565b60006020820190508181036000830152611819818461178a565b905092915050565b600063ffffffff82169050919050565b61183a81611821565b811461184557600080fd5b50565b60008135905061185781611831565b92915050565b60008060006060848603121561187657611875610f8e565b5b600061188486828701611848565b935050602061189586828701610fe1565b92505060406118a686828701610fe1565b9150509250925092565b7f4e487b7100000000000000000000000000000000000000000000000000000000600052602260045260246000fd5b600060028204905060018216806118f757607f821691505b60208210810361190a576119096118b0565b5b50919050565b60008190508160005260206000209050919050565b60006020601f8301049050919050565b600082821b905092915050565b6000600883026119727fffffffffffffffffffffffffffffffffffffffffffffffffffffffffffffffff82611935565b61197c8683611935565b95508019841693508086168417925050509392505050565b60006119af6119aa6119a584611159565b611023565b611159565b9050919050565b6000819050919050565b6119c983611994565b6119dd6119d5826119b6565b848454611942565b825550505050565b600090565b6119f26119e5565b6119fd8184846119c0565b505050565b5b81811015611a2157611a166000826119ea565b600181019050611a03565b5050565b601f821115611a6657611a3781611910565b611a4084611925565b81016020851015611a4f578190505b611a63611a5b85611925565b830182611a02565b50505b505050565b600082821c905092915050565b6000611a8960001984600802611a6b565b1980831691505092915050565b6000611aa28383611a78565b9150826002028217905092915050565b611abb826110c9565b67ffffffffffffffff811115611ad457611ad3611334565b5b611ade82546118df565b611ae9828285611a25565b600060209050601f831160018114611b1c5760008415611b0a578287015190505b611b148582611a96565b865550611b7c565b601f198416611b2a86611910565b60005b82811015611b5257848901518255600182019150602085019450602081019050611b2d565b86831015611b6f5784890151611b6b601f891682611a78565b8355505b6001600288020188555050505b505050505050565b7f4f776e61626c653a206e6577206f776e657220697320746865207a65726f206160008201527f6464726573730000000000000000000000000000000000000000000000000000602082015250565b6000611be06026836112be565b9150611beb82611b84565b604082019050919050565b60006020820190508181036000830152611c0f81611bd3565b9050919050565b60008160601b9050919050565b6000611c2e82611c16565b9050919050565b6000611c4082611c23565b9050919050565b611c58611c5382610fb8565b611c35565b82525050565b6000611c6a8284611c47565b60148201915081905092915050565b611c8281611821565b82525050565b6000819050919050565b611c9b81611c88565b82525050565b600081519050919050565b600082825260208201905092915050565b6000611cc882611ca1565b611cd28185611cac565b9350611ce28185602086016110e5565b611ceb8161110f565b840191505092915050565b6000606082019050611d0b6000830186611c79565b611d186020830185611c92565b8181036040830152611d2a8184611cbd565b9050949350505050565b611d3d81611c88565b8114611d4857600080fd5b50565b600081519050611d5a81611d34565b92915050565b600060208284031215611d7657611d75610f8e565b5b6000611d8484828501611d4b565b91505092915050565b7f4f776e61626c653a2063616c6c6572206973206e6f7420746865206f776e6572600082015250565b6000611dc36020836112be565b9150611dce82611d8d565b602082019050919050565b60006020820190508181036000830152611df281611db6565b9050919050565b7f21636f6e74726163740000000000000000000000000000000000000000000000600082015250565b6000611e2f6009836112be565b9150611e3a82611df9565b602082019050919050565b60006020820190508181036000830152611e5e81611e22565b905091905056fea26469706673582212209b153247bb65266c10418c8417b61ff5f2053e6e1d3fc282c0ce4c44efe1989364736f6c63430008120033",
  "linkReferences": {},
  "deployedLinkReferences": {}
}