{
  "_format": "hh-sol-artifact-1",
  "contractName": "SubContract",
  "sourceName": "contracts/SubContract.sol",
  "abi": [
    {
      "anonymous": false,
      "inputs": [
        {
          "indexed": false,
          "internalType": "uint8",
          "name": "version",
          "type": "uint8"
        }
      ],
      "name": "Initialized",
      "type": "event"
    },
    {
      "anonymous": false,
      "inputs": [
        {
          "indexed": true,
          "internalType": "address",
          "name": "interchainGasPaymaster",
          "type": "address"
        }
      ],
      "name": "InterchainGasPaymasterSet",
      "type": "event"
    },
    {
      "anonymous": false,
      "inputs": [
        {
          "indexed": true,
          "internalType": "address",
          "name": "module",
          "type": "address"
        }
      ],
      "name": "InterchainSecurityModuleSet",
      "type": "event"
    },
    {
      "anonymous": false,
      "inputs": [
        {
          "indexed": true,
          "internalType": "address",
          "name": "mailbox",
          "type": "address"
        }
      ],
      "name": "MailboxSet",
      "type": "event"
    },
    {
      "anonymous": false,
      "inputs": [
        {
          "indexed": true,
          "internalType": "address",
          "name": "previousOwner",
          "type": "address"
        },
        {
          "indexed": true,
          "internalType": "address",
          "name": "newOwner",
          "type": "address"
        }
      ],
      "name": "OwnershipTransferred",
      "type": "event"
    },
    {
      "inputs": [],
      "name": "interchainGasPaymaster",
      "outputs": [
        {
          "internalType": "contract IInterchainGasPaymaster",
          "name": "",
          "type": "address"
        }
      ],
      "stateMutability": "view",
      "type": "function"
    },
    {
      "inputs": [],
      "name": "interchainSecurityModule",
      "outputs": [
        {
          "internalType": "contract IInterchainSecurityModule",
          "name": "",
          "type": "address"
        }
      ],
      "stateMutability": "view",
      "type": "function"
    },
    {
      "inputs": [],
      "name": "mailbox",
      "outputs": [
        {
          "internalType": "contract IMailbox",
          "name": "",
          "type": "address"
        }
      ],
      "stateMutability": "view",
      "type": "function"
    },
    {
      "inputs": [],
      "name": "owner",
      "outputs": [
        {
          "internalType": "address",
          "name": "",
          "type": "address"
        }
      ],
      "stateMutability": "view",
      "type": "function"
    },
    {
      "inputs": [
        {
          "internalType": "uint32",
          "name": "_destination",
          "type": "uint32"
        },
        {
          "internalType": "address",
          "name": "_recipient",
          "type": "address"
        },
        {
          "internalType": "address",
          "name": "_NGOAddress",
          "type": "address"
        }
      ],
      "name": "relayNGOMappingToMainContract",
      "outputs": [],
      "stateMutability": "nonpayable",
      "type": "function"
    },
    {
      "inputs": [],
      "name": "renounceOwnership",
      "outputs": [],
      "stateMutability": "nonpayable",
      "type": "function"
    },
    {
      "inputs": [
        {
          "internalType": "address",
          "name": "_interchainGasPaymaster",
          "type": "address"
        }
      ],
      "name": "setInterchainGasPaymaster",
      "outputs": [],
      "stateMutability": "nonpayable",
      "type": "function"
    },
    {
      "inputs": [
        {
          "internalType": "address",
          "name": "_module",
          "type": "address"
        }
      ],
      "name": "setInterchainSecurityModule",
      "outputs": [],
      "stateMutability": "nonpayable",
      "type": "function"
    },
    {
      "inputs": [
        {
          "internalType": "address",
          "name": "_mailbox",
          "type": "address"
        }
      ],
      "name": "setMailbox",
      "outputs": [],
      "stateMutability": "nonpayable",
      "type": "function"
    },
    {
      "inputs": [
        {
          "internalType": "address",
          "name": "newOwner",
          "type": "address"
        }
      ],
      "name": "transferOwnership",
      "outputs": [],
      "stateMutability": "nonpayable",
      "type": "function"
    }
  ],
  "bytecode": "0x608060405234801561001057600080fd5b50610dcd806100206000396000f3fe608060405234801561001057600080fd5b506004361061009e5760003560e01c8063de523cf311610066578063de523cf314610123578063f1bd6f0a14610141578063f2fde38b1461015d578063f3c61d6b14610179578063f9c65cb4146101955761009e565b80630e72cc06146100a357806339bb4ad9146100bf578063715018a6146100dd5780638da5cb5b146100e7578063d5438eae14610105575b600080fd5b6100bd60048036038101906100b89190610892565b6101b1565b005b6100c76101c5565b6040516100d4919061091e565b60405180910390f35b6100e56101eb565b005b6100ef6101ff565b6040516100fc9190610948565b60405180910390f35b61010d610229565b60405161011a9190610984565b60405180910390f35b61012b61024f565b60405161013891906109c0565b60405180910390f35b61015b60048036038101906101569190610892565b610275565b005b61017760048036038101906101729190610892565b610289565b005b610193600480360381019061018e9190610892565b61030c565b005b6101af60048036038101906101aa9190610a17565b610320565b005b6101b96103f5565b6101c281610473565b50565b606660009054906101000a900473ffffffffffffffffffffffffffffffffffffffff1681565b6101f36103f5565b6101fd6000610579565b565b6000603360009054906101000a900473ffffffffffffffffffffffffffffffffffffffff16905090565b606560009054906101000a900473ffffffffffffffffffffffffffffffffffffffff1681565b606760009054906101000a900473ffffffffffffffffffffffffffffffffffffffff1681565b61027d6103f5565b6102868161063f565b50565b6102916103f5565b600073ffffffffffffffffffffffffffffffffffffffff168173ffffffffffffffffffffffffffffffffffffffff1603610300576040517f08c379a00000000000000000000000000000000000000000000000000000000081526004016102f790610aed565b60405180910390fd5b61030981610579565b50565b6103146103f5565b61031d81610710565b50565b6000816040516020016103339190610b55565b6040516020818303038152906040529050606560009054906101000a900473ffffffffffffffffffffffffffffffffffffffff1673ffffffffffffffffffffffffffffffffffffffff1663fa31de018561038c866107e1565b846040518463ffffffff1660e01b81526004016103ab93929190610c28565b6020604051808303816000875af11580156103ca573d6000803e3d6000fd5b505050506040513d601f19601f820116820180604052508101906103ee9190610c92565b5050505050565b6103fd610804565b73ffffffffffffffffffffffffffffffffffffffff1661041b6101ff565b73ffffffffffffffffffffffffffffffffffffffff1614610471576040517f08c379a000000000000000000000000000000000000000000000000000000000815260040161046890610d0b565b60405180910390fd5b565b600073ffffffffffffffffffffffffffffffffffffffff168173ffffffffffffffffffffffffffffffffffffffff1614806104b357506104b28161080c565b5b6104f2576040517f08c379a00000000000000000000000000000000000000000000000000000000081526004016104e990610d77565b60405180910390fd5b80606760006101000a81548173ffffffffffffffffffffffffffffffffffffffff021916908373ffffffffffffffffffffffffffffffffffffffff1602179055508073ffffffffffffffffffffffffffffffffffffffff167ffec811ed4e60aebdaf7a79cad8a97196bf56e35362f039705598226d30c9d24860405160405180910390a250565b6000603360009054906101000a900473ffffffffffffffffffffffffffffffffffffffff16905081603360006101000a81548173ffffffffffffffffffffffffffffffffffffffff021916908373ffffffffffffffffffffffffffffffffffffffff1602179055508173ffffffffffffffffffffffffffffffffffffffff168173ffffffffffffffffffffffffffffffffffffffff167f8be0079c531659141344cd1fd0a4f28419497f9722a3daafe3b4186f6b6457e060405160405180910390a35050565b806106498161080c565b610688576040517f08c379a000000000000000000000000000000000000000000000000000000000815260040161067f90610d77565b60405180910390fd5b81606660006101000a81548173ffffffffffffffffffffffffffffffffffffffff021916908373ffffffffffffffffffffffffffffffffffffffff1602179055508173ffffffffffffffffffffffffffffffffffffffff167fb87f5a0bface22cde699143559fb99f990ae54eea236995fc54178af91af859f60405160405180910390a25050565b8061071a8161080c565b610759576040517f08c379a000000000000000000000000000000000000000000000000000000000815260040161075090610d77565b60405180910390fd5b81606560006101000a81548173ffffffffffffffffffffffffffffffffffffffff021916908373ffffffffffffffffffffffffffffffffffffffff1602179055508173ffffffffffffffffffffffffffffffffffffffff167f7a61e573722ff8b205c8962b59d37e7d30573f368965597a844a94872204ebd760405160405180910390a25050565b60008173ffffffffffffffffffffffffffffffffffffffff1660001b9050919050565b600033905090565b6000808273ffffffffffffffffffffffffffffffffffffffff163b119050919050565b600080fd5b600073ffffffffffffffffffffffffffffffffffffffff82169050919050565b600061085f82610834565b9050919050565b61086f81610854565b811461087a57600080fd5b50565b60008135905061088c81610866565b92915050565b6000602082840312156108a8576108a761082f565b5b60006108b68482850161087d565b91505092915050565b6000819050919050565b60006108e46108df6108da84610834565b6108bf565b610834565b9050919050565b60006108f6826108c9565b9050919050565b6000610908826108eb565b9050919050565b610918816108fd565b82525050565b6000602082019050610933600083018461090f565b92915050565b61094281610854565b82525050565b600060208201905061095d6000830184610939565b92915050565b600061096e826108eb565b9050919050565b61097e81610963565b82525050565b60006020820190506109996000830184610975565b92915050565b60006109aa826108eb565b9050919050565b6109ba8161099f565b82525050565b60006020820190506109d560008301846109b1565b92915050565b600063ffffffff82169050919050565b6109f4816109db565b81146109ff57600080fd5b50565b600081359050610a11816109eb565b92915050565b600080600060608486031215610a3057610a2f61082f565b5b6000610a3e86828701610a02565b9350506020610a4f8682870161087d565b9250506040610a608682870161087d565b9150509250925092565b600082825260208201905092915050565b7f4f776e61626c653a206e6577206f776e657220697320746865207a65726f206160008201527f6464726573730000000000000000000000000000000000000000000000000000602082015250565b6000610ad7602683610a6a565b9150610ae282610a7b565b604082019050919050565b60006020820190508181036000830152610b0681610aca565b9050919050565b60008160601b9050919050565b6000610b2582610b0d565b9050919050565b6000610b3782610b1a565b9050919050565b610b4f610b4a82610854565b610b2c565b82525050565b6000610b618284610b3e565b60148201915081905092915050565b610b79816109db565b82525050565b6000819050919050565b610b9281610b7f565b82525050565b600081519050919050565b600082825260208201905092915050565b60005b83811015610bd2578082015181840152602081019050610bb7565b60008484015250505050565b6000601f19601f8301169050919050565b6000610bfa82610b98565b610c048185610ba3565b9350610c14818560208601610bb4565b610c1d81610bde565b840191505092915050565b6000606082019050610c3d6000830186610b70565b610c4a6020830185610b89565b8181036040830152610c5c8184610bef565b9050949350505050565b610c6f81610b7f565b8114610c7a57600080fd5b50565b600081519050610c8c81610c66565b92915050565b600060208284031215610ca857610ca761082f565b5b6000610cb684828501610c7d565b91505092915050565b7f4f776e61626c653a2063616c6c6572206973206e6f7420746865206f776e6572600082015250565b6000610cf5602083610a6a565b9150610d0082610cbf565b602082019050919050565b60006020820190508181036000830152610d2481610ce8565b9050919050565b7f21636f6e74726163740000000000000000000000000000000000000000000000600082015250565b6000610d61600983610a6a565b9150610d6c82610d2b565b602082019050919050565b60006020820190508181036000830152610d9081610d54565b905091905056fea264697066735822122001e4b12a4c387d32638e33bb08592524407a9b26b6ca578a2f34dd38f4cbbd2864736f6c63430008120033",
  "linkReferences": {},
  "deployedLinkReferences": {}
}