{
  "_format": "hh-sol-artifact-1",
  "contractName": "NetworkMapper",
  "sourceName": "contracts/NetworkMapper.sol",
  "abi": [
    {
      "inputs": [
        {
          "internalType": "address[]",
          "name": "_contractAddresses",
          "type": "address[]"
        }
      ],
      "stateMutability": "nonpayable",
      "type": "constructor"
    },
    {
      "anonymous": false,
      "inputs": [
        {
          "indexed": true,
          "internalType": "address",
          "name": "previousOwner",
          "type": "address"
        },
        {
          "indexed": true,
          "internalType": "address",
          "name": "newOwner",
          "type": "address"
        }
      ],
      "name": "OwnershipTransferred",
      "type": "event"
    },
    {
      "inputs": [
        {
          "internalType": "address",
          "name": "",
          "type": "address"
        }
      ],
      "name": "NGOToNetworkMapping",
      "outputs": [
        {
          "internalType": "string",
          "name": "",
          "type": "string"
        }
      ],
      "stateMutability": "view",
      "type": "function"
    },
    {
      "inputs": [
        {
          "internalType": "string",
          "name": "_networkName",
          "type": "string"
        },
        {
          "internalType": "address",
          "name": "_contractAddress",
          "type": "address"
        }
      ],
      "name": "changeAddressOfContract",
      "outputs": [],
      "stateMutability": "nonpayable",
      "type": "function"
    },
    {
      "inputs": [
        {
          "internalType": "string",
          "name": "",
          "type": "string"
        }
      ],
      "name": "contractAddresses",
      "outputs": [
        {
          "internalType": "address",
          "name": "",
          "type": "address"
        }
      ],
      "stateMutability": "view",
      "type": "function"
    },
    {
      "inputs": [],
      "name": "getNewNetwork",
      "outputs": [
        {
          "internalType": "enum NetworkMapper.networks",
          "name": "",
          "type": "uint8"
        }
      ],
      "stateMutability": "nonpayable",
      "type": "function"
    },
    {
      "inputs": [],
      "name": "owner",
      "outputs": [
        {
          "internalType": "address",
          "name": "",
          "type": "address"
        }
      ],
      "stateMutability": "view",
      "type": "function"
    },
    {
      "inputs": [],
      "name": "renounceOwnership",
      "outputs": [],
      "stateMutability": "nonpayable",
      "type": "function"
    },
    {
      "inputs": [
        {
          "internalType": "string",
          "name": "_networkName",
          "type": "string"
        },
        {
          "internalType": "address",
          "name": "_NGOAddress",
          "type": "address"
        }
      ],
      "name": "setNGONetworkMapping",
      "outputs": [],
      "stateMutability": "nonpayable",
      "type": "function"
    },
    {
      "inputs": [
        {
          "internalType": "string",
          "name": "_name",
          "type": "string"
        },
        {
          "internalType": "uint8",
          "name": "_age",
          "type": "uint8"
        },
        {
          "internalType": "uint256",
          "name": "_balance",
          "type": "uint256"
        },
        {
          "internalType": "string",
          "name": "_location",
          "type": "string"
        },
        {
          "internalType": "address",
          "name": "_userAddress",
          "type": "address"
        }
      ],
      "name": "setUserMapping",
      "outputs": [],
      "stateMutability": "nonpayable",
      "type": "function"
    },
    {
      "inputs": [
        {
          "internalType": "address",
          "name": "newOwner",
          "type": "address"
        }
      ],
      "name": "transferOwnership",
      "outputs": [],
      "stateMutability": "nonpayable",
      "type": "function"
    },
    {
      "inputs": [
        {
          "internalType": "address",
          "name": "",
          "type": "address"
        }
      ],
      "name": "userMapping",
      "outputs": [
        {
          "internalType": "string",
          "name": "name",
          "type": "string"
        },
        {
          "internalType": "uint256",
          "name": "balance",
          "type": "uint256"
        },
        {
          "internalType": "string",
          "name": "location",
          "type": "string"
        },
        {
          "internalType": "uint8",
          "name": "age",
          "type": "uint8"
        }
      ],
      "stateMutability": "view",
      "type": "function"
    }
  ],
  "bytecode": "0x60806040523480156200001157600080fd5b5060405162001a6438038062001a64833981810160405281019062000037919062000532565b620000576200004b6200027860201b60201c565b6200028060201b60201c565b6000600360006101000a81548160ff0219169083600381111562000080576200007f62000583565b5b0217905550806000815181106200009c576200009b620005b2565b5b60200260200101516001604051620000b4906200063c565b908152602001604051809103902060006101000a81548173ffffffffffffffffffffffffffffffffffffffff021916908373ffffffffffffffffffffffffffffffffffffffff16021790555080600181518110620001175762000116620005b2565b5b602002602001015160016040516200012f90620006a3565b908152602001604051809103902060006101000a81548173ffffffffffffffffffffffffffffffffffffffff021916908373ffffffffffffffffffffffffffffffffffffffff16021790555080600281518110620001925762000191620005b2565b5b60200260200101516001604051620001aa906200070a565b908152602001604051809103902060006101000a81548173ffffffffffffffffffffffffffffffffffffffff021916908373ffffffffffffffffffffffffffffffffffffffff160217905550806003815181106200020d576200020c620005b2565b5b60200260200101516001604051620002259062000771565b908152602001604051809103902060006101000a81548173ffffffffffffffffffffffffffffffffffffffff021916908373ffffffffffffffffffffffffffffffffffffffff1602179055505062000788565b600033905090565b60008060009054906101000a900473ffffffffffffffffffffffffffffffffffffffff169050816000806101000a81548173ffffffffffffffffffffffffffffffffffffffff021916908373ffffffffffffffffffffffffffffffffffffffff1602179055508173ffffffffffffffffffffffffffffffffffffffff168173ffffffffffffffffffffffffffffffffffffffff167f8be0079c531659141344cd1fd0a4f28419497f9722a3daafe3b4186f6b6457e060405160405180910390a35050565b6000604051905090565b600080fd5b600080fd5b600080fd5b6000601f19601f8301169050919050565b7f4e487b7100000000000000000000000000000000000000000000000000000000600052604160045260246000fd5b620003a8826200035d565b810181811067ffffffffffffffff82111715620003ca57620003c96200036e565b5b80604052505050565b6000620003df62000344565b9050620003ed82826200039d565b919050565b600067ffffffffffffffff82111562000410576200040f6200036e565b5b602082029050602081019050919050565b600080fd5b600073ffffffffffffffffffffffffffffffffffffffff82169050919050565b6000620004538262000426565b9050919050565b620004658162000446565b81146200047157600080fd5b50565b60008151905062000485816200045a565b92915050565b6000620004a26200049c84620003f2565b620003d3565b90508083825260208201905060208402830185811115620004c857620004c762000421565b5b835b81811015620004f55780620004e0888262000474565b845260208401935050602081019050620004ca565b5050509392505050565b600082601f83011262000517576200051662000358565b5b8151620005298482602086016200048b565b91505092915050565b6000602082840312156200054b576200054a6200034e565b5b600082015167ffffffffffffffff8111156200056c576200056b62000353565b5b6200057a84828501620004ff565b91505092915050565b7f4e487b7100000000000000000000000000000000000000000000000000000000600052602160045260246000fd5b7f4e487b7100000000000000000000000000000000000000000000000000000000600052603260045260246000fd5b600081905092915050565b7f66696c65636f696e487970657273706163650000000000000000000000000000600082015250565b600062000624601283620005e1565b91506200063182620005ec565b601282019050919050565b6000620006498262000615565b9150819050919050565b7f676e6f7369730000000000000000000000000000000000000000000000000000600082015250565b60006200068b600683620005e1565b9150620006988262000653565b600682019050919050565b6000620006b0826200067c565b9150819050919050565b7f7363726f6c6c0000000000000000000000000000000000000000000000000000600082015250565b6000620006f2600683620005e1565b9150620006ff82620006ba565b600682019050919050565b60006200071782620006e3565b9150819050919050565b7f6f7074696d69736d000000000000000000000000000000000000000000000000600082015250565b600062000759600883620005e1565b9150620007668262000721565b600882019050919050565b60006200077e826200074a565b9150819050919050565b6112cc80620007986000396000f3fe608060405234801561001057600080fd5b506004361061009e5760003560e01c80637fc879da116100665780637fc879da146101485780638da5cb5b14610166578063c5a0cc3014610184578063ee67cc2a146101a0578063f2fde38b146101d05761009e565b8063118b9535146100a35780631abf3826146100d65780633b95fe88146100f2578063715018a61461010e578063780afa1614610118575b600080fd5b6100bd60048036038101906100b891906108fc565b6101ec565b6040516100cd94939291906109ee565b60405180910390f35b6100f060048036038101906100eb9190610bce565b610339565b005b61010c60048036038101906101079190610c81565b610405565b005b61011661045e565b005b610132600480360381019061012d91906108fc565b610472565b60405161013f9190610cdd565b60405180910390f35b610150610512565b60405161015d9190610d76565b60405180910390f35b61016e6105e2565b60405161017b9190610da0565b60405180910390f35b61019e60048036038101906101999190610c81565b61060b565b005b6101ba60048036038101906101b59190610dbb565b610674565b6040516101c79190610da0565b60405180910390f35b6101ea60048036038101906101e591906108fc565b6106bd565b005b600460205280600052604060002060009150905080600001805461020f90610e33565b80601f016020809104026020016040519081016040528092919081815260200182805461023b90610e33565b80156102885780601f1061025d57610100808354040283529160200191610288565b820191906000526020600020905b81548152906001019060200180831161026b57829003601f168201915b5050505050908060010154908060020180546102a390610e33565b80601f01602080910402602001604051908101604052809291908181526020018280546102cf90610e33565b801561031c5780601f106102f15761010080835404028352916020019161031c565b820191906000526020600020905b8154815290600101906020018083116102ff57829003601f168201915b5050505050908060030160009054906101000a900460ff16905084565b610341610740565b60405180608001604052808681526020018481526020018381526020018560ff16815250600460008373ffffffffffffffffffffffffffffffffffffffff1673ffffffffffffffffffffffffffffffffffffffff16815260200190815260200160002060008201518160000190816103b99190611010565b506020820151816001015560408201518160020190816103d99190611010565b5060608201518160030160006101000a81548160ff021916908360ff1602179055509050505050505050565b61040d610740565b81600260008373ffffffffffffffffffffffffffffffffffffffff1673ffffffffffffffffffffffffffffffffffffffff16815260200190815260200160002090816104599190611010565b505050565b610466610740565b61047060006107be565b565b6002602052806000526040600020600091509050805461049190610e33565b80601f01602080910402602001604051908101604052809291908181526020018280546104bd90610e33565b801561050a5780601f106104df5761010080835404028352916020019161050a565b820191906000526020600020905b8154815290600101906020018083116104ed57829003601f168201915b505050505081565b600080600360009054906101000a900460ff169050600381600381111561053c5761053b610cff565b5b03610571576000600360006101000a81548160ff0219169083600381111561056757610566610cff565b5b02179055506105db565b6001600360009054906101000a900460ff16600381111561059557610594610cff565b5b61059f9190611111565b60038111156105b1576105b0610cff565b5b600360006101000a81548160ff021916908360038111156105d5576105d4610cff565b5b02179055505b8091505090565b60008060009054906101000a900473ffffffffffffffffffffffffffffffffffffffff16905090565b610613610740565b806001836040516106249190611181565b908152602001604051809103902060006101000a81548173ffffffffffffffffffffffffffffffffffffffff021916908373ffffffffffffffffffffffffffffffffffffffff1602179055505050565b6001818051602081018201805184825260208301602085012081835280955050505050506000915054906101000a900473ffffffffffffffffffffffffffffffffffffffff1681565b6106c5610740565b600073ffffffffffffffffffffffffffffffffffffffff168173ffffffffffffffffffffffffffffffffffffffff1603610734576040517f08c379a000000000000000000000000000000000000000000000000000000000815260040161072b9061120a565b60405180910390fd5b61073d816107be565b50565b610748610882565b73ffffffffffffffffffffffffffffffffffffffff166107666105e2565b73ffffffffffffffffffffffffffffffffffffffff16146107bc576040517f08c379a00000000000000000000000000000000000000000000000000000000081526004016107b390611276565b60405180910390fd5b565b60008060009054906101000a900473ffffffffffffffffffffffffffffffffffffffff169050816000806101000a81548173ffffffffffffffffffffffffffffffffffffffff021916908373ffffffffffffffffffffffffffffffffffffffff1602179055508173ffffffffffffffffffffffffffffffffffffffff168173ffffffffffffffffffffffffffffffffffffffff167f8be0079c531659141344cd1fd0a4f28419497f9722a3daafe3b4186f6b6457e060405160405180910390a35050565b600033905090565b6000604051905090565b600080fd5b600080fd5b600073ffffffffffffffffffffffffffffffffffffffff82169050919050565b60006108c98261089e565b9050919050565b6108d9816108be565b81146108e457600080fd5b50565b6000813590506108f6816108d0565b92915050565b60006020828403121561091257610911610894565b5b6000610920848285016108e7565b91505092915050565b600081519050919050565b600082825260208201905092915050565b60005b83811015610963578082015181840152602081019050610948565b60008484015250505050565b6000601f19601f8301169050919050565b600061098b82610929565b6109958185610934565b93506109a5818560208601610945565b6109ae8161096f565b840191505092915050565b6000819050919050565b6109cc816109b9565b82525050565b600060ff82169050919050565b6109e8816109d2565b82525050565b60006080820190508181036000830152610a088187610980565b9050610a1760208301866109c3565b8181036040830152610a298185610980565b9050610a3860608301846109df565b95945050505050565b600080fd5b600080fd5b7f4e487b7100000000000000000000000000000000000000000000000000000000600052604160045260246000fd5b610a838261096f565b810181811067ffffffffffffffff82111715610aa257610aa1610a4b565b5b80604052505050565b6000610ab561088a565b9050610ac18282610a7a565b919050565b600067ffffffffffffffff821115610ae157610ae0610a4b565b5b610aea8261096f565b9050602081019050919050565b82818337600083830152505050565b6000610b19610b1484610ac6565b610aab565b905082815260208101848484011115610b3557610b34610a46565b5b610b40848285610af7565b509392505050565b600082601f830112610b5d57610b5c610a41565b5b8135610b6d848260208601610b06565b91505092915050565b610b7f816109d2565b8114610b8a57600080fd5b50565b600081359050610b9c81610b76565b92915050565b610bab816109b9565b8114610bb657600080fd5b50565b600081359050610bc881610ba2565b92915050565b600080600080600060a08688031215610bea57610be9610894565b5b600086013567ffffffffffffffff811115610c0857610c07610899565b5b610c1488828901610b48565b9550506020610c2588828901610b8d565b9450506040610c3688828901610bb9565b935050606086013567ffffffffffffffff811115610c5757610c56610899565b5b610c6388828901610b48565b9250506080610c74888289016108e7565b9150509295509295909350565b60008060408385031215610c9857610c97610894565b5b600083013567ffffffffffffffff811115610cb657610cb5610899565b5b610cc285828601610b48565b9250506020610cd3858286016108e7565b9150509250929050565b60006020820190508181036000830152610cf78184610980565b905092915050565b7f4e487b7100000000000000000000000000000000000000000000000000000000600052602160045260246000fd5b60048110610d3f57610d3e610cff565b5b50565b6000819050610d5082610d2e565b919050565b6000610d6082610d42565b9050919050565b610d7081610d55565b82525050565b6000602082019050610d8b6000830184610d67565b92915050565b610d9a816108be565b82525050565b6000602082019050610db56000830184610d91565b92915050565b600060208284031215610dd157610dd0610894565b5b600082013567ffffffffffffffff811115610def57610dee610899565b5b610dfb84828501610b48565b91505092915050565b7f4e487b7100000000000000000000000000000000000000000000000000000000600052602260045260246000fd5b60006002820490506001821680610e4b57607f821691505b602082108103610e5e57610e5d610e04565b5b50919050565b60008190508160005260206000209050919050565b60006020601f8301049050919050565b600082821b905092915050565b600060088302610ec67fffffffffffffffffffffffffffffffffffffffffffffffffffffffffffffffff82610e89565b610ed08683610e89565b95508019841693508086168417925050509392505050565b6000819050919050565b6000610f0d610f08610f03846109b9565b610ee8565b6109b9565b9050919050565b6000819050919050565b610f2783610ef2565b610f3b610f3382610f14565b848454610e96565b825550505050565b600090565b610f50610f43565b610f5b818484610f1e565b505050565b5b81811015610f7f57610f74600082610f48565b600181019050610f61565b5050565b601f821115610fc457610f9581610e64565b610f9e84610e79565b81016020851015610fad578190505b610fc1610fb985610e79565b830182610f60565b50505b505050565b600082821c905092915050565b6000610fe760001984600802610fc9565b1980831691505092915050565b60006110008383610fd6565b9150826002028217905092915050565b61101982610929565b67ffffffffffffffff81111561103257611031610a4b565b5b61103c8254610e33565b611047828285610f83565b600060209050601f83116001811461107a5760008415611068578287015190505b6110728582610ff4565b8655506110da565b601f19841661108886610e64565b60005b828110156110b05784890151825560018201915060208501945060208101905061108b565b868310156110cd57848901516110c9601f891682610fd6565b8355505b6001600288020188555050505b505050505050565b7f4e487b7100000000000000000000000000000000000000000000000000000000600052601160045260246000fd5b600061111c826109b9565b9150611127836109b9565b925082820190508082111561113f5761113e6110e2565b5b92915050565b600081905092915050565b600061115b82610929565b6111658185611145565b9350611175818560208601610945565b80840191505092915050565b600061118d8284611150565b915081905092915050565b7f4f776e61626c653a206e6577206f776e657220697320746865207a65726f206160008201527f6464726573730000000000000000000000000000000000000000000000000000602082015250565b60006111f4602683610934565b91506111ff82611198565b604082019050919050565b60006020820190508181036000830152611223816111e7565b9050919050565b7f4f776e61626c653a2063616c6c6572206973206e6f7420746865206f776e6572600082015250565b6000611260602083610934565b915061126b8261122a565b602082019050919050565b6000602082019050818103600083015261128f81611253565b905091905056fea2646970667358221220b5d4d69ee39b06f7ff7a9fcc508a251f3e11cab509c0b8369edb1188ba63d8d564736f6c63430008120033",
  "linkReferences": {},
  "deployedLinkReferences": {}
}