{
  "_format": "hh-sol-artifact-1",
  "contractName": "NetworkMapper",
  "sourceName": "contracts/NetworkMapper.sol",
  "abi": [
    {
      "anonymous": false,
      "inputs": [
        {
          "indexed": true,
          "internalType": "address",
          "name": "previousOwner",
          "type": "address"
        },
        {
          "indexed": true,
          "internalType": "address",
          "name": "newOwner",
          "type": "address"
        }
      ],
      "name": "OwnershipTransferred",
      "type": "event"
    },
    {
      "inputs": [
        {
          "internalType": "string",
          "name": "_networkName",
          "type": "string"
        },
        {
          "internalType": "address",
          "name": "_contractAddress",
          "type": "address"
        }
      ],
      "name": "changeAddressOfContract",
      "outputs": [],
      "stateMutability": "nonpayable",
      "type": "function"
    },
    {
      "inputs": [
        {
          "internalType": "string",
          "name": "_networkName",
          "type": "string"
        }
      ],
      "name": "getAddressOfContract",
      "outputs": [
        {
          "internalType": "address",
          "name": "",
          "type": "address"
        }
      ],
      "stateMutability": "view",
      "type": "function"
    },
    {
      "inputs": [],
      "name": "owner",
      "outputs": [
        {
          "internalType": "address",
          "name": "",
          "type": "address"
        }
      ],
      "stateMutability": "view",
      "type": "function"
    },
    {
      "inputs": [],
      "name": "renounceOwnership",
      "outputs": [],
      "stateMutability": "nonpayable",
      "type": "function"
    },
    {
      "inputs": [
        {
          "internalType": "address",
          "name": "newOwner",
          "type": "address"
        }
      ],
      "name": "transferOwnership",
      "outputs": [],
      "stateMutability": "nonpayable",
      "type": "function"
    }
  ],
  "bytecode": "0x608060405234801561001057600080fd5b5061002d61002261003260201b60201c565b61003a60201b60201c565b6100fe565b600033905090565b60008060009054906101000a900473ffffffffffffffffffffffffffffffffffffffff169050816000806101000a81548173ffffffffffffffffffffffffffffffffffffffff021916908373ffffffffffffffffffffffffffffffffffffffff1602179055508173ffffffffffffffffffffffffffffffffffffffff168173ffffffffffffffffffffffffffffffffffffffff167f8be0079c531659141344cd1fd0a4f28419497f9722a3daafe3b4186f6b6457e060405160405180910390a35050565b6108288061010d6000396000f3fe608060405234801561001057600080fd5b50600436106100575760003560e01c806338afff791461005c578063715018a61461008c5780638da5cb5b14610096578063c5a0cc30146100b4578063f2fde38b146100d0575b600080fd5b61007660048036038101906100719190610501565b6100ec565b604051610083919061058b565b60405180910390f35b610094610134565b005b61009e610148565b6040516100ab919061058b565b60405180910390f35b6100ce60048036038101906100c991906105d2565b610171565b005b6100ea60048036038101906100e5919061062e565b6101da565b005b60006001826040516100fe91906106cc565b908152602001604051809103902060009054906101000a900473ffffffffffffffffffffffffffffffffffffffff169050919050565b61013c61025d565b61014660006102db565b565b60008060009054906101000a900473ffffffffffffffffffffffffffffffffffffffff16905090565b61017961025d565b8060018360405161018a91906106cc565b908152602001604051809103902060006101000a81548173ffffffffffffffffffffffffffffffffffffffff021916908373ffffffffffffffffffffffffffffffffffffffff1602179055505050565b6101e261025d565b600073ffffffffffffffffffffffffffffffffffffffff168173ffffffffffffffffffffffffffffffffffffffff1603610251576040517f08c379a000000000000000000000000000000000000000000000000000000000815260040161024890610766565b60405180910390fd5b61025a816102db565b50565b61026561039f565b73ffffffffffffffffffffffffffffffffffffffff16610283610148565b73ffffffffffffffffffffffffffffffffffffffff16146102d9576040517f08c379a00000000000000000000000000000000000000000000000000000000081526004016102d0906107d2565b60405180910390fd5b565b60008060009054906101000a900473ffffffffffffffffffffffffffffffffffffffff169050816000806101000a81548173ffffffffffffffffffffffffffffffffffffffff021916908373ffffffffffffffffffffffffffffffffffffffff1602179055508173ffffffffffffffffffffffffffffffffffffffff168173ffffffffffffffffffffffffffffffffffffffff167f8be0079c531659141344cd1fd0a4f28419497f9722a3daafe3b4186f6b6457e060405160405180910390a35050565b600033905090565b6000604051905090565b600080fd5b600080fd5b600080fd5b600080fd5b6000601f19601f8301169050919050565b7f4e487b7100000000000000000000000000000000000000000000000000000000600052604160045260246000fd5b61040e826103c5565b810181811067ffffffffffffffff8211171561042d5761042c6103d6565b5b80604052505050565b60006104406103a7565b905061044c8282610405565b919050565b600067ffffffffffffffff82111561046c5761046b6103d6565b5b610475826103c5565b9050602081019050919050565b82818337600083830152505050565b60006104a461049f84610451565b610436565b9050828152602081018484840111156104c0576104bf6103c0565b5b6104cb848285610482565b509392505050565b600082601f8301126104e8576104e76103bb565b5b81356104f8848260208601610491565b91505092915050565b600060208284031215610517576105166103b1565b5b600082013567ffffffffffffffff811115610535576105346103b6565b5b610541848285016104d3565b91505092915050565b600073ffffffffffffffffffffffffffffffffffffffff82169050919050565b60006105758261054a565b9050919050565b6105858161056a565b82525050565b60006020820190506105a0600083018461057c565b92915050565b6105af8161056a565b81146105ba57600080fd5b50565b6000813590506105cc816105a6565b92915050565b600080604083850312156105e9576105e86103b1565b5b600083013567ffffffffffffffff811115610607576106066103b6565b5b610613858286016104d3565b9250506020610624858286016105bd565b9150509250929050565b600060208284031215610644576106436103b1565b5b6000610652848285016105bd565b91505092915050565b600081519050919050565b600081905092915050565b60005b8381101561068f578082015181840152602081019050610674565b60008484015250505050565b60006106a68261065b565b6106b08185610666565b93506106c0818560208601610671565b80840191505092915050565b60006106d8828461069b565b915081905092915050565b600082825260208201905092915050565b7f4f776e61626c653a206e6577206f776e657220697320746865207a65726f206160008201527f6464726573730000000000000000000000000000000000000000000000000000602082015250565b60006107506026836106e3565b915061075b826106f4565b604082019050919050565b6000602082019050818103600083015261077f81610743565b9050919050565b7f4f776e61626c653a2063616c6c6572206973206e6f7420746865206f776e6572600082015250565b60006107bc6020836106e3565b91506107c782610786565b602082019050919050565b600060208201905081810360008301526107eb816107af565b905091905056fea2646970667358221220533b2a3a65c03ae11819f45b1abffe676b41b28a871596641b0a79e2f9000fce64736f6c63430008120033",
  "linkReferences": {},
  "deployedLinkReferences": {}
}