{
  "_format": "hh-sol-artifact-1",
  "contractName": "NetworkMapper",
  "sourceName": "contracts/NetworkMapper.sol",
  "abi": [
    {
      "inputs": [
        {
          "internalType": "address[]",
          "name": "_contractAddresses",
          "type": "address[]"
        }
      ],
      "stateMutability": "nonpayable",
      "type": "constructor"
    },
    {
      "anonymous": false,
      "inputs": [
        {
          "indexed": true,
          "internalType": "address",
          "name": "previousOwner",
          "type": "address"
        },
        {
          "indexed": true,
          "internalType": "address",
          "name": "newOwner",
          "type": "address"
        }
      ],
      "name": "OwnershipTransferred",
      "type": "event"
    },
    {
      "inputs": [
        {
          "internalType": "address",
          "name": "",
          "type": "address"
        }
      ],
      "name": "NGOToNetworkMapping",
      "outputs": [
        {
          "internalType": "string",
          "name": "",
          "type": "string"
        }
      ],
      "stateMutability": "view",
      "type": "function"
    },
    {
      "inputs": [
        {
          "internalType": "string",
          "name": "_networkName",
          "type": "string"
        },
        {
          "internalType": "address",
          "name": "_contractAddress",
          "type": "address"
        }
      ],
      "name": "changeAddressOfContract",
      "outputs": [],
      "stateMutability": "nonpayable",
      "type": "function"
    },
    {
      "inputs": [
        {
          "internalType": "string",
          "name": "",
          "type": "string"
        }
      ],
      "name": "contractAddresses",
      "outputs": [
        {
          "internalType": "address",
          "name": "",
          "type": "address"
        }
      ],
      "stateMutability": "view",
      "type": "function"
    },
    {
      "inputs": [],
      "name": "owner",
      "outputs": [
        {
          "internalType": "address",
          "name": "",
          "type": "address"
        }
      ],
      "stateMutability": "view",
      "type": "function"
    },
    {
      "inputs": [],
      "name": "renounceOwnership",
      "outputs": [],
      "stateMutability": "nonpayable",
      "type": "function"
    },
    {
      "inputs": [
        {
          "internalType": "address",
          "name": "newOwner",
          "type": "address"
        }
      ],
      "name": "transferOwnership",
      "outputs": [],
      "stateMutability": "nonpayable",
      "type": "function"
    },
    {
      "inputs": [
        {
          "internalType": "address",
          "name": "",
          "type": "address"
        }
      ],
      "name": "userMapping",
      "outputs": [
        {
          "internalType": "string",
          "name": "name",
          "type": "string"
        },
        {
          "internalType": "uint256",
          "name": "balance",
          "type": "uint256"
        },
        {
          "internalType": "uint8",
          "name": "age",
          "type": "uint8"
        }
      ],
      "stateMutability": "view",
      "type": "function"
    }
  ],
  "bytecode": "0x60806040523480156200001157600080fd5b506040516200127938038062001279833981810160405281019062000037919062000504565b620000576200004b6200024a60201b60201c565b6200025260201b60201c565b806000815181106200006e576200006d62000555565b5b602002602001015160016040516200008690620005df565b908152602001604051809103902060006101000a81548173ffffffffffffffffffffffffffffffffffffffff021916908373ffffffffffffffffffffffffffffffffffffffff16021790555080600181518110620000e957620000e862000555565b5b60200260200101516001604051620001019062000646565b908152602001604051809103902060006101000a81548173ffffffffffffffffffffffffffffffffffffffff021916908373ffffffffffffffffffffffffffffffffffffffff1602179055508060028151811062000164576200016362000555565b5b602002602001015160016040516200017c90620006ad565b908152602001604051809103902060006101000a81548173ffffffffffffffffffffffffffffffffffffffff021916908373ffffffffffffffffffffffffffffffffffffffff16021790555080600381518110620001df57620001de62000555565b5b60200260200101516001604051620001f79062000714565b908152602001604051809103902060006101000a81548173ffffffffffffffffffffffffffffffffffffffff021916908373ffffffffffffffffffffffffffffffffffffffff160217905550506200072b565b600033905090565b60008060009054906101000a900473ffffffffffffffffffffffffffffffffffffffff169050816000806101000a81548173ffffffffffffffffffffffffffffffffffffffff021916908373ffffffffffffffffffffffffffffffffffffffff1602179055508173ffffffffffffffffffffffffffffffffffffffff168173ffffffffffffffffffffffffffffffffffffffff167f8be0079c531659141344cd1fd0a4f28419497f9722a3daafe3b4186f6b6457e060405160405180910390a35050565b6000604051905090565b600080fd5b600080fd5b600080fd5b6000601f19601f8301169050919050565b7f4e487b7100000000000000000000000000000000000000000000000000000000600052604160045260246000fd5b6200037a826200032f565b810181811067ffffffffffffffff821117156200039c576200039b62000340565b5b80604052505050565b6000620003b162000316565b9050620003bf82826200036f565b919050565b600067ffffffffffffffff821115620003e257620003e162000340565b5b602082029050602081019050919050565b600080fd5b600073ffffffffffffffffffffffffffffffffffffffff82169050919050565b60006200042582620003f8565b9050919050565b620004378162000418565b81146200044357600080fd5b50565b60008151905062000457816200042c565b92915050565b6000620004746200046e84620003c4565b620003a5565b905080838252602082019050602084028301858111156200049a5762000499620003f3565b5b835b81811015620004c75780620004b2888262000446565b8452602084019350506020810190506200049c565b5050509392505050565b600082601f830112620004e957620004e86200032a565b5b8151620004fb8482602086016200045d565b91505092915050565b6000602082840312156200051d576200051c62000320565b5b600082015167ffffffffffffffff8111156200053e576200053d62000325565b5b6200054c84828501620004d1565b91505092915050565b7f4e487b7100000000000000000000000000000000000000000000000000000000600052603260045260246000fd5b600081905092915050565b7f66696c65636f696e487970657273706163650000000000000000000000000000600082015250565b6000620005c760128362000584565b9150620005d4826200058f565b601282019050919050565b6000620005ec82620005b8565b9150819050919050565b7f676e6f7369730000000000000000000000000000000000000000000000000000600082015250565b60006200062e60068362000584565b91506200063b82620005f6565b600682019050919050565b600062000653826200061f565b9150819050919050565b7f7363726f6c6c0000000000000000000000000000000000000000000000000000600082015250565b60006200069560068362000584565b9150620006a2826200065d565b600682019050919050565b6000620006ba8262000686565b9150819050919050565b7f6f7074696d69736d000000000000000000000000000000000000000000000000600082015250565b6000620006fc60088362000584565b91506200070982620006c4565b600882019050919050565b60006200072182620006ed565b9150819050919050565b610b3e806200073b6000396000f3fe608060405234801561001057600080fd5b506004361061007d5760003560e01c80638da5cb5b1161005b5780638da5cb5b146100ee578063c5a0cc301461010c578063ee67cc2a14610128578063f2fde38b146101585761007d565b8063118b953514610082578063715018a6146100b4578063780afa16146100be575b600080fd5b61009c60048036038101906100979190610601565b610174565b6040516100ab939291906106f3565b60405180910390f35b6100bc610233565b005b6100d860048036038101906100d39190610601565b610247565b6040516100e59190610731565b60405180910390f35b6100f66102e7565b6040516101039190610762565b60405180910390f35b610126600480360381019061012191906108b2565b610310565b005b610142600480360381019061013d919061090e565b610379565b60405161014f9190610762565b60405180910390f35b610172600480360381019061016d9190610601565b6103c2565b005b600360205280600052604060002060009150905080600001805461019790610986565b80601f01602080910402602001604051908101604052809291908181526020018280546101c390610986565b80156102105780601f106101e557610100808354040283529160200191610210565b820191906000526020600020905b8154815290600101906020018083116101f357829003601f168201915b5050505050908060010154908060020160009054906101000a900460ff16905083565b61023b610445565b61024560006104c3565b565b6002602052806000526040600020600091509050805461026690610986565b80601f016020809104026020016040519081016040528092919081815260200182805461029290610986565b80156102df5780601f106102b4576101008083540402835291602001916102df565b820191906000526020600020905b8154815290600101906020018083116102c257829003601f168201915b505050505081565b60008060009054906101000a900473ffffffffffffffffffffffffffffffffffffffff16905090565b610318610445565b8060018360405161032991906109f3565b908152602001604051809103902060006101000a81548173ffffffffffffffffffffffffffffffffffffffff021916908373ffffffffffffffffffffffffffffffffffffffff1602179055505050565b6001818051602081018201805184825260208301602085012081835280955050505050506000915054906101000a900473ffffffffffffffffffffffffffffffffffffffff1681565b6103ca610445565b600073ffffffffffffffffffffffffffffffffffffffff168173ffffffffffffffffffffffffffffffffffffffff1603610439576040517f08c379a000000000000000000000000000000000000000000000000000000000815260040161043090610a7c565b60405180910390fd5b610442816104c3565b50565b61044d610587565b73ffffffffffffffffffffffffffffffffffffffff1661046b6102e7565b73ffffffffffffffffffffffffffffffffffffffff16146104c1576040517f08c379a00000000000000000000000000000000000000000000000000000000081526004016104b890610ae8565b60405180910390fd5b565b60008060009054906101000a900473ffffffffffffffffffffffffffffffffffffffff169050816000806101000a81548173ffffffffffffffffffffffffffffffffffffffff021916908373ffffffffffffffffffffffffffffffffffffffff1602179055508173ffffffffffffffffffffffffffffffffffffffff168173ffffffffffffffffffffffffffffffffffffffff167f8be0079c531659141344cd1fd0a4f28419497f9722a3daafe3b4186f6b6457e060405160405180910390a35050565b600033905090565b6000604051905090565b600080fd5b600080fd5b600073ffffffffffffffffffffffffffffffffffffffff82169050919050565b60006105ce826105a3565b9050919050565b6105de816105c3565b81146105e957600080fd5b50565b6000813590506105fb816105d5565b92915050565b60006020828403121561061757610616610599565b5b6000610625848285016105ec565b91505092915050565b600081519050919050565b600082825260208201905092915050565b60005b8381101561066857808201518184015260208101905061064d565b60008484015250505050565b6000601f19601f8301169050919050565b60006106908261062e565b61069a8185610639565b93506106aa81856020860161064a565b6106b381610674565b840191505092915050565b6000819050919050565b6106d1816106be565b82525050565b600060ff82169050919050565b6106ed816106d7565b82525050565b6000606082019050818103600083015261070d8186610685565b905061071c60208301856106c8565b61072960408301846106e4565b949350505050565b6000602082019050818103600083015261074b8184610685565b905092915050565b61075c816105c3565b82525050565b60006020820190506107776000830184610753565b92915050565b600080fd5b600080fd5b7f4e487b7100000000000000000000000000000000000000000000000000000000600052604160045260246000fd5b6107bf82610674565b810181811067ffffffffffffffff821117156107de576107dd610787565b5b80604052505050565b60006107f161058f565b90506107fd82826107b6565b919050565b600067ffffffffffffffff82111561081d5761081c610787565b5b61082682610674565b9050602081019050919050565b82818337600083830152505050565b600061085561085084610802565b6107e7565b90508281526020810184848401111561087157610870610782565b5b61087c848285610833565b509392505050565b600082601f8301126108995761089861077d565b5b81356108a9848260208601610842565b91505092915050565b600080604083850312156108c9576108c8610599565b5b600083013567ffffffffffffffff8111156108e7576108e661059e565b5b6108f385828601610884565b9250506020610904858286016105ec565b9150509250929050565b60006020828403121561092457610923610599565b5b600082013567ffffffffffffffff8111156109425761094161059e565b5b61094e84828501610884565b91505092915050565b7f4e487b7100000000000000000000000000000000000000000000000000000000600052602260045260246000fd5b6000600282049050600182168061099e57607f821691505b6020821081036109b1576109b0610957565b5b50919050565b600081905092915050565b60006109cd8261062e565b6109d781856109b7565b93506109e781856020860161064a565b80840191505092915050565b60006109ff82846109c2565b915081905092915050565b7f4f776e61626c653a206e6577206f776e657220697320746865207a65726f206160008201527f6464726573730000000000000000000000000000000000000000000000000000602082015250565b6000610a66602683610639565b9150610a7182610a0a565b604082019050919050565b60006020820190508181036000830152610a9581610a59565b9050919050565b7f4f776e61626c653a2063616c6c6572206973206e6f7420746865206f776e6572600082015250565b6000610ad2602083610639565b9150610add82610a9c565b602082019050919050565b60006020820190508181036000830152610b0181610ac5565b905091905056fea2646970667358221220e71482ab57576278ca64fc95efa2c8906f74498f46d153555479690b15addfcf64736f6c63430008120033",
  "linkReferences": {},
  "deployedLinkReferences": {}
}